{
  "contractName": "BoardDao",
  "abi": [
    {
      "inputs": [
        {
          "internalType": "address",
          "name": "_creator",
          "type": "address"
        },
        {
          "internalType": "address",
          "name": "_invesDao",
          "type": "address"
        },
        {
          "internalType": "uint256",
          "name": "_daoOwnership",
          "type": "uint256"
        },
        {
          "internalType": "uint256",
          "name": "_creatorOwnership",
          "type": "uint256"
        },
        {
          "internalType": "uint256",
          "name": "_invesDaoOwnership",
          "type": "uint256"
        },
        {
          "internalType": "string",
          "name": "_tokenName",
          "type": "string"
        },
        {
          "internalType": "string",
          "name": "_tokenSymbol",
          "type": "string"
        },
        {
          "internalType": "address",
          "name": "_raiseDaoToken",
          "type": "address"
        }
      ],
      "stateMutability": "nonpayable",
      "type": "constructor"
    },
    {
      "inputs": [
        {
          "internalType": "uint256",
          "name": "",
          "type": "uint256"
        }
      ],
      "name": "proposals",
      "outputs": [
        {
          "internalType": "string",
          "name": "title",
          "type": "string"
        },
        {
          "internalType": "string",
          "name": "purpose",
          "type": "string"
        },
        {
          "internalType": "address",
          "name": "creator",
          "type": "address"
        },
        {
          "internalType": "address",
          "name": "recipient",
          "type": "address"
        },
        {
          "internalType": "uint256",
          "name": "amountRequired",
          "type": "uint256"
        },
        {
          "internalType": "int256",
          "name": "support",
          "type": "int256"
        },
        {
          "internalType": "enum BoardDao.BoardProposalStatus",
          "name": "status",
          "type": "uint8"
        }
      ],
      "stateMutability": "view",
      "type": "function"
    },
    {
      "inputs": [],
      "name": "mintBoardVotes",
      "outputs": [],
      "stateMutability": "nonpayable",
      "type": "function"
    },
    {
      "inputs": [
        {
          "internalType": "string",
          "name": "_title",
          "type": "string"
        },
        {
          "internalType": "string",
          "name": "_purpose",
          "type": "string"
        },
        {
          "internalType": "address",
          "name": "_recipient",
          "type": "address"
        },
        {
          "internalType": "uint256",
          "name": "_amountRequired",
          "type": "uint256"
        }
      ],
      "name": "createProposal",
      "outputs": [],
      "stateMutability": "nonpayable",
      "type": "function"
    },
    {
      "inputs": [
        {
          "internalType": "uint256",
          "name": "_proposalId",
          "type": "uint256"
        },
        {
          "internalType": "bool",
          "name": "isInFavour",
          "type": "bool"
        }
      ],
      "name": "voteForProposal",
      "outputs": [],
      "stateMutability": "payable",
      "type": "function"
    },
    {
      "inputs": [
        {
          "internalType": "uint256",
          "name": "_proposalId",
          "type": "uint256"
        }
      ],
      "name": "decideOnProposal",
      "outputs": [],
      "stateMutability": "nonpayable",
      "type": "function"
    },
    {
      "inputs": [],
      "name": "getTokenAddress",
      "outputs": [
        {
          "internalType": "address",
          "name": "",
          "type": "address"
        }
      ],
      "stateMutability": "view",
      "type": "function"
    }
  ],
  "bytecode": "0x60806040523480156200001157600080fd5b50604051620040b9380380620040b9833981810160405281019062000037919062000581565b336000806101000a81548173ffffffffffffffffffffffffffffffffffffffff021916908373ffffffffffffffffffffffffffffffffffffffff16021790555033600160006101000a81548173ffffffffffffffffffffffffffffffffffffffff021916908373ffffffffffffffffffffffffffffffffffffffff16021790555033600260006101000a81548173ffffffffffffffffffffffffffffffffffffffff021916908373ffffffffffffffffffffffffffffffffffffffff16021790555086600460006101000a81548173ffffffffffffffffffffffffffffffffffffffff021916908373ffffffffffffffffffffffffffffffffffffffff16021790555087600360006101000a81548173ffffffffffffffffffffffffffffffffffffffff021916908373ffffffffffffffffffffffffffffffffffffffff160217905550828260646040516200018d9062000336565b6200019b9392919062000732565b604051809103906000f080158015620001b8573d6000803e3d6000fd5b50600760006101000a81548173ffffffffffffffffffffffffffffffffffffffff021916908373ffffffffffffffffffffffffffffffffffffffff1602179055508560066000600260009054906101000a900473ffffffffffffffffffffffffffffffffffffffff1673ffffffffffffffffffffffffffffffffffffffff1673ffffffffffffffffffffffffffffffffffffffff1681526020019081526020016000208190555084600660008a73ffffffffffffffffffffffffffffffffffffffff1673ffffffffffffffffffffffffffffffffffffffff1681526020019081526020016000208190555083600660008973ffffffffffffffffffffffffffffffffffffffff1673ffffffffffffffffffffffffffffffffffffffff1681526020019081526020016000208190555080600560006101000a81548173ffffffffffffffffffffffffffffffffffffffff021916908373ffffffffffffffffffffffffffffffffffffffff16021790555050505050505050506200077d565b611d0680620023b383390190565b6000604051905090565b600080fd5b600080fd5b600073ffffffffffffffffffffffffffffffffffffffff82169050919050565b6000620003858262000358565b9050919050565b620003978162000378565b8114620003a357600080fd5b50565b600081519050620003b7816200038c565b92915050565b6000819050919050565b620003d281620003bd565b8114620003de57600080fd5b50565b600081519050620003f281620003c7565b92915050565b600080fd5b600080fd5b6000601f19601f8301169050919050565b7f4e487b7100000000000000000000000000000000000000000000000000000000600052604160045260246000fd5b6200044d8262000402565b810181811067ffffffffffffffff821117156200046f576200046e62000413565b5b80604052505050565b60006200048462000344565b905062000492828262000442565b919050565b600067ffffffffffffffff821115620004b557620004b462000413565b5b620004c08262000402565b9050602081019050919050565b60005b83811015620004ed578082015181840152602081019050620004d0565b83811115620004fd576000848401525b50505050565b60006200051a620005148462000497565b62000478565b905082815260208101848484011115620005395762000538620003fd565b5b62000546848285620004cd565b509392505050565b600082601f830112620005665762000565620003f8565b5b81516200057884826020860162000503565b91505092915050565b600080600080600080600080610100898b031215620005a557620005a46200034e565b5b6000620005b58b828c01620003a6565b9850506020620005c88b828c01620003a6565b9750506040620005db8b828c01620003e1565b9650506060620005ee8b828c01620003e1565b9550506080620006018b828c01620003e1565b94505060a089015167ffffffffffffffff81111562000625576200062462000353565b5b620006338b828c016200054e565b93505060c089015167ffffffffffffffff81111562000657576200065662000353565b5b620006658b828c016200054e565b92505060e0620006788b828c01620003a6565b9150509295985092959890939650565b600081519050919050565b600082825260208201905092915050565b6000620006b18262000688565b620006bd818562000693565b9350620006cf818560208601620004cd565b620006da8162000402565b840191505092915050565b6000819050919050565b6000819050919050565b60006200071a620007146200070e84620006e5565b620006ef565b620003bd565b9050919050565b6200072c81620006f9565b82525050565b600060608201905081810360008301526200074e8186620006a4565b90508181036020830152620007648185620006a4565b905062000775604083018462000721565b949350505050565b611c26806200078d6000396000f3fe6080604052600436106100555760003560e01c8063013cf08b1461005a57806310fe9ae81461009d5780636505e8e8146100c85780637cdc2eb7146100e4578063d3c697581461010d578063f073139f14610124575b600080fd5b34801561006657600080fd5b50610081600480360381019061007c91906112d7565b61014d565b604051610094979695949392919061147d565b60405180910390f35b3480156100a957600080fd5b506100b26102fc565b6040516100bf91906114fa565b60405180910390f35b6100e260048036038101906100dd919061154d565b610326565b005b3480156100f057600080fd5b5061010b600480360381019061010691906116ee565b6106a0565b005b34801561011957600080fd5b506101226109d0565b005b34801561013057600080fd5b5061014b600480360381019061014691906112d7565b610f60565b005b6008818154811061015d57600080fd5b9060005260206000209060070201600091509050806000018054610180906117bc565b80601f01602080910402602001604051908101604052809291908181526020018280546101ac906117bc565b80156101f95780601f106101ce576101008083540402835291602001916101f9565b820191906000526020600020905b8154815290600101906020018083116101dc57829003601f168201915b50505050509080600101805461020e906117bc565b80601f016020809104026020016040519081016040528092919081815260200182805461023a906117bc565b80156102875780601f1061025c57610100808354040283529160200191610287565b820191906000526020600020905b81548152906001019060200180831161026a57829003601f168201915b5050505050908060020160009054906101000a900473ffffffffffffffffffffffffffffffffffffffff16908060030160009054906101000a900473ffffffffffffffffffffffffffffffffffffffff16908060040154908060050154908060060160009054906101000a900460ff16905087565b6000600760009054906101000a900473ffffffffffffffffffffffffffffffffffffffff16905090565b6000600760009054906101000a900473ffffffffffffffffffffffffffffffffffffffff1673ffffffffffffffffffffffffffffffffffffffff166370a08231336040518263ffffffff1660e01b815260040161038391906114fa565b602060405180830381865afa1580156103a0573d6000803e3d6000fd5b505050506040513d601f19601f820116820180604052508101906103c49190611803565b116103ce57600080fd5b81600060028111156103e3576103e2611406565b5b600882815481106103f7576103f6611830565b5b906000526020600020906007020160060160009054906101000a900460ff16600281111561042857610427611406565b5b1461043257600080fd5b6000600760009054906101000a900473ffffffffffffffffffffffffffffffffffffffff1673ffffffffffffffffffffffffffffffffffffffff166370a08231336040518263ffffffff1660e01b815260040161048f91906114fa565b602060405180830381865afa1580156104ac573d6000803e3d6000fd5b505050506040513d601f19601f820116820180604052508101906104d09190611803565b116104da57600080fd5b6001151582151514156105c357600760009054906101000a900473ffffffffffffffffffffffffffffffffffffffff1673ffffffffffffffffffffffffffffffffffffffff166370a08231336040518263ffffffff1660e01b815260040161054291906114fa565b602060405180830381865afa15801561055f573d6000803e3d6000fd5b505050506040513d601f19601f820116820180604052508101906105839190611803565b6008848154811061059757610596611830565b5b906000526020600020906007020160050160008282546105b7919061188e565b9250508190555061069b565b600760009054906101000a900473ffffffffffffffffffffffffffffffffffffffff1673ffffffffffffffffffffffffffffffffffffffff166370a08231336040518263ffffffff1660e01b815260040161061e91906114fa565b602060405180830381865afa15801561063b573d6000803e3d6000fd5b505050506040513d601f19601f8201168201806040525081019061065f9190611803565b6008848154811061067357610672611830565b5b906000526020600020906007020160050160008282546106939190611922565b925050819055505b505050565b6000600760009054906101000a900473ffffffffffffffffffffffffffffffffffffffff1673ffffffffffffffffffffffffffffffffffffffff166370a08231336040518263ffffffff1660e01b81526004016106fd91906114fa565b602060405180830381865afa15801561071a573d6000803e3d6000fd5b505050506040513d601f19601f8201168201806040525081019061073e9190611803565b1161074857600080fd5b8047101561078b576040517f08c379a000000000000000000000000000000000000000000000000000000000815260040161078290611a02565b60405180910390fd5b60086040518060e001604052808681526020018581526020013373ffffffffffffffffffffffffffffffffffffffff1681526020018473ffffffffffffffffffffffffffffffffffffffff16815260200183815260200160008152602001600060028111156107fd576107fc611406565b5b815250908060018154018082558091505060019003906000526020600020906007020160009091909190915060008201518160000190805190602001906108459291906111ea565b5060208201518160010190805190602001906108629291906111ea565b5060408201518160020160006101000a81548173ffffffffffffffffffffffffffffffffffffffff021916908373ffffffffffffffffffffffffffffffffffffffff16021790555060608201518160030160006101000a81548173ffffffffffffffffffffffffffffffffffffffff021916908373ffffffffffffffffffffffffffffffffffffffff1602179055506080820151816004015560a0820151816005015560c08201518160060160006101000a81548160ff021916908360028111156109305761092f611406565b5b02179055505050600160009054906101000a900473ffffffffffffffffffffffffffffffffffffffff1673ffffffffffffffffffffffffffffffffffffffff16632ec58ee4858585856040518563ffffffff1660e01b81526004016109989493929190611a22565b600060405180830381600087803b1580156109b257600080fd5b505af11580156109c6573d6000803e3d6000fd5b5050505050505050565b60008054906101000a900473ffffffffffffffffffffffffffffffffffffffff1673ffffffffffffffffffffffffffffffffffffffff163373ffffffffffffffffffffffffffffffffffffffff1614610a2857600080fd5b60004711610a3557600080fd5b600060066000600460009054906101000a900473ffffffffffffffffffffffffffffffffffffffff1673ffffffffffffffffffffffffffffffffffffffff1673ffffffffffffffffffffffffffffffffffffffff1681526020019081526020016000205460066000600360009054906101000a900473ffffffffffffffffffffffffffffffffffffffff1673ffffffffffffffffffffffffffffffffffffffff1673ffffffffffffffffffffffffffffffffffffffff1681526020019081526020016000205460066000600260009054906101000a900473ffffffffffffffffffffffffffffffffffffffff1673ffffffffffffffffffffffffffffffffffffffff1673ffffffffffffffffffffffffffffffffffffffff16815260200190815260200160002054610b679190611a75565b610b719190611a75565b9050600760009054906101000a900473ffffffffffffffffffffffffffffffffffffffff1673ffffffffffffffffffffffffffffffffffffffff1663a9059cbb600260009054906101000a900473ffffffffffffffffffffffffffffffffffffffff16670de0b6b3a764000084606460066000600260009054906101000a900473ffffffffffffffffffffffffffffffffffffffff1673ffffffffffffffffffffffffffffffffffffffff1673ffffffffffffffffffffffffffffffffffffffff16815260200190815260200160002054610c4c9190611acb565b610c569190611b54565b610c609190611acb565b6040518363ffffffff1660e01b8152600401610c7d929190611b85565b6020604051808303816000875af1158015610c9c573d6000803e3d6000fd5b505050506040513d601f19601f82011682018060405250810190610cc09190611bc3565b50600760009054906101000a900473ffffffffffffffffffffffffffffffffffffffff1673ffffffffffffffffffffffffffffffffffffffff1663a9059cbb600260009054906101000a900473ffffffffffffffffffffffffffffffffffffffff16670de0b6b3a764000084606460066000600360009054906101000a900473ffffffffffffffffffffffffffffffffffffffff1673ffffffffffffffffffffffffffffffffffffffff1673ffffffffffffffffffffffffffffffffffffffff16815260200190815260200160002054610d9a9190611acb565b610da49190611b54565b610dae9190611acb565b6040518363ffffffff1660e01b8152600401610dcb929190611b85565b6020604051808303816000875af1158015610dea573d6000803e3d6000fd5b505050506040513d601f19601f82011682018060405250810190610e0e9190611bc3565b50600760009054906101000a900473ffffffffffffffffffffffffffffffffffffffff1673ffffffffffffffffffffffffffffffffffffffff1663a9059cbb600260009054906101000a900473ffffffffffffffffffffffffffffffffffffffff16670de0b6b3a764000084606460066000600460009054906101000a900473ffffffffffffffffffffffffffffffffffffffff1673ffffffffffffffffffffffffffffffffffffffff1673ffffffffffffffffffffffffffffffffffffffff16815260200190815260200160002054610ee89190611acb565b610ef29190611b54565b610efc9190611acb565b6040518363ffffffff1660e01b8152600401610f19929190611b85565b6020604051808303816000875af1158015610f38573d6000803e3d6000fd5b505050506040513d601f19601f82011682018060405250810190610f5c9190611bc3565b5050565b8060006002811115610f7557610f74611406565b5b60088281548110610f8957610f88611830565b5b906000526020600020906007020160060160009054906101000a900460ff166002811115610fba57610fb9611406565b5b14610fc457600080fd5b60088281548110610fd857610fd7611830565b5b906000526020600020906007020160020160009054906101000a900473ffffffffffffffffffffffffffffffffffffffff1673ffffffffffffffffffffffffffffffffffffffff163373ffffffffffffffffffffffffffffffffffffffff161461104157600080fd5b60006008838154811061105757611056611830565b5b90600052602060002090600702016005015413156110c75760016008838154811061108557611084611830565b5b906000526020600020906007020160060160006101000a81548160ff021916908360028111156110b8576110b7611406565b5b02179055506110c6826110cb565b5b5050565b80600160028111156110e0576110df611406565b5b600882815481106110f4576110f3611830565b5b906000526020600020906007020160060160009054906101000a900460ff16600281111561112557611124611406565b5b1461112f57600080fd5b60006008838154811061114557611144611830565b5b906000526020600020906007020160030160009054906101000a900473ffffffffffffffffffffffffffffffffffffffff1690508073ffffffffffffffffffffffffffffffffffffffff166108fc600885815481106111a7576111a6611830565b5b9060005260206000209060070201600401549081150290604051600060405180830381858888f193505050501580156111e4573d6000803e3d6000fd5b50505050565b8280546111f6906117bc565b90600052602060002090601f016020900481019282611218576000855561125f565b82601f1061123157805160ff191683800117855561125f565b8280016001018555821561125f579182015b8281111561125e578251825591602001919060010190611243565b5b50905061126c9190611270565b5090565b5b80821115611289576000816000905550600101611271565b5090565b6000604051905090565b600080fd5b600080fd5b6000819050919050565b6112b4816112a1565b81146112bf57600080fd5b50565b6000813590506112d1816112ab565b92915050565b6000602082840312156112ed576112ec611297565b5b60006112fb848285016112c2565b91505092915050565b600081519050919050565b600082825260208201905092915050565b60005b8381101561133e578082015181840152602081019050611323565b8381111561134d576000848401525b50505050565b6000601f19601f8301169050919050565b600061136f82611304565b611379818561130f565b9350611389818560208601611320565b61139281611353565b840191505092915050565b600073ffffffffffffffffffffffffffffffffffffffff82169050919050565b60006113c88261139d565b9050919050565b6113d8816113bd565b82525050565b6113e7816112a1565b82525050565b6000819050919050565b611400816113ed565b82525050565b7f4e487b7100000000000000000000000000000000000000000000000000000000600052602160045260246000fd5b6003811061144657611445611406565b5b50565b600081905061145782611435565b919050565b600061146782611449565b9050919050565b6114778161145c565b82525050565b600060e0820190508181036000830152611497818a611364565b905081810360208301526114ab8189611364565b90506114ba60408301886113cf565b6114c760608301876113cf565b6114d460808301866113de565b6114e160a08301856113f7565b6114ee60c083018461146e565b98975050505050505050565b600060208201905061150f60008301846113cf565b92915050565b60008115159050919050565b61152a81611515565b811461153557600080fd5b50565b60008135905061154781611521565b92915050565b6000806040838503121561156457611563611297565b5b6000611572858286016112c2565b925050602061158385828601611538565b9150509250929050565b600080fd5b600080fd5b7f4e487b7100000000000000000000000000000000000000000000000000000000600052604160045260246000fd5b6115cf82611353565b810181811067ffffffffffffffff821117156115ee576115ed611597565b5b80604052505050565b600061160161128d565b905061160d82826115c6565b919050565b600067ffffffffffffffff82111561162d5761162c611597565b5b61163682611353565b9050602081019050919050565b82818337600083830152505050565b600061166561166084611612565b6115f7565b90508281526020810184848401111561168157611680611592565b5b61168c848285611643565b509392505050565b600082601f8301126116a9576116a861158d565b5b81356116b9848260208601611652565b91505092915050565b6116cb816113bd565b81146116d657600080fd5b50565b6000813590506116e8816116c2565b92915050565b6000806000806080858703121561170857611707611297565b5b600085013567ffffffffffffffff8111156117265761172561129c565b5b61173287828801611694565b945050602085013567ffffffffffffffff8111156117535761175261129c565b5b61175f87828801611694565b9350506040611770878288016116d9565b9250506060611781878288016112c2565b91505092959194509250565b7f4e487b7100000000000000000000000000000000000000000000000000000000600052602260045260246000fd5b600060028204905060018216806117d457607f821691505b602082108114156117e8576117e761178d565b5b50919050565b6000815190506117fd816112ab565b92915050565b60006020828403121561181957611818611297565b5b6000611827848285016117ee565b91505092915050565b7f4e487b7100000000000000000000000000000000000000000000000000000000600052603260045260246000fd5b7f4e487b7100000000000000000000000000000000000000000000000000000000600052601160045260246000fd5b6000611899826113ed565b91506118a4836113ed565b9250817f7fffffffffffffffffffffffffffffffffffffffffffffffffffffffffffffff038313600083121516156118df576118de61185f565b5b817f80000000000000000000000000000000000000000000000000000000000000000383126000831216156119175761191661185f565b5b828201905092915050565b600061192d826113ed565b9150611938836113ed565b9250827f8000000000000000000000000000000000000000000000000000000000000000018212600084121516156119735761197261185f565b5b827f7fffffffffffffffffffffffffffffffffffffffffffffffffffffffffffffff0182136000841216156119ab576119aa61185f565b5b828203905092915050565b7f4e6f7420656e6f7567682062616c616e63650000000000000000000000000000600082015250565b60006119ec60128361130f565b91506119f7826119b6565b602082019050919050565b60006020820190508181036000830152611a1b816119df565b9050919050565b60006080820190508181036000830152611a3c8187611364565b90508181036020830152611a508186611364565b9050611a5f60408301856113cf565b611a6c60608301846113de565b95945050505050565b6000611a80826112a1565b9150611a8b836112a1565b9250827fffffffffffffffffffffffffffffffffffffffffffffffffffffffffffffffff03821115611ac057611abf61185f565b5b828201905092915050565b6000611ad6826112a1565b9150611ae1836112a1565b9250817fffffffffffffffffffffffffffffffffffffffffffffffffffffffffffffffff0483118215151615611b1a57611b1961185f565b5b828202905092915050565b7f4e487b7100000000000000000000000000000000000000000000000000000000600052601260045260246000fd5b6000611b5f826112a1565b9150611b6a836112a1565b925082611b7a57611b79611b25565b5b828204905092915050565b6000604082019050611b9a60008301856113cf565b611ba760208301846113de565b9392505050565b600081519050611bbd81611521565b92915050565b600060208284031215611bd957611bd8611297565b5b6000611be784828501611bae565b9150509291505056fea264697066735822122097200df18037923beb680cf83691e7041b63a38df70d403bf3ca018e30269e3f64736f6c634300080a003360806040523480156200001157600080fd5b5060405162001d0638038062001d0683398181016040528101906200003791906200050a565b828281600390805190602001906200005192919062000282565b5080600490805190602001906200006a92919062000282565b505050620000ac3362000082620000f660201b60201c565b60ff16600a62000093919062000727565b83620000a0919062000778565b620000ff60201b60201c565b33600560006101000a81548173ffffffffffffffffffffffffffffffffffffffff021916908373ffffffffffffffffffffffffffffffffffffffff1602179055505050506200094c565b60006012905090565b600073ffffffffffffffffffffffffffffffffffffffff168273ffffffffffffffffffffffffffffffffffffffff16141562000172576040517f08c379a000000000000000000000000000000000000000000000000000000000815260040162000169906200083a565b60405180910390fd5b62000186600083836200027860201b60201c565b80600260008282546200019a91906200085c565b92505081905550806000808473ffffffffffffffffffffffffffffffffffffffff1673ffffffffffffffffffffffffffffffffffffffff1681526020019081526020016000206000828254620001f191906200085c565b925050819055508173ffffffffffffffffffffffffffffffffffffffff16600073ffffffffffffffffffffffffffffffffffffffff167fddf252ad1be2c89b69c2b068fc378daa952ba7f163c4a11628f55a4df523b3ef83604051620002589190620008ca565b60405180910390a362000274600083836200027d60201b60201c565b5050565b505050565b505050565b828054620002909062000916565b90600052602060002090601f016020900481019282620002b4576000855562000300565b82601f10620002cf57805160ff191683800117855562000300565b8280016001018555821562000300579182015b82811115620002ff578251825591602001919060010190620002e2565b5b5090506200030f919062000313565b5090565b5b808211156200032e57600081600090555060010162000314565b5090565b6000604051905090565b600080fd5b600080fd5b600080fd5b600080fd5b6000601f19601f8301169050919050565b7f4e487b7100000000000000000000000000000000000000000000000000000000600052604160045260246000fd5b6200039b8262000350565b810181811067ffffffffffffffff82111715620003bd57620003bc62000361565b5b80604052505050565b6000620003d262000332565b9050620003e0828262000390565b919050565b600067ffffffffffffffff82111562000403576200040262000361565b5b6200040e8262000350565b9050602081019050919050565b60005b838110156200043b5780820151818401526020810190506200041e565b838111156200044b576000848401525b50505050565b6000620004686200046284620003e5565b620003c6565b9050828152602081018484840111156200048757620004866200034b565b5b620004948482856200041b565b509392505050565b600082601f830112620004b457620004b362000346565b5b8151620004c684826020860162000451565b91505092915050565b6000819050919050565b620004e481620004cf565b8114620004f057600080fd5b50565b6000815190506200050481620004d9565b92915050565b6000806000606084860312156200052657620005256200033c565b5b600084015167ffffffffffffffff81111562000547576200054662000341565b5b62000555868287016200049c565b935050602084015167ffffffffffffffff81111562000579576200057862000341565b5b62000587868287016200049c565b92505060406200059a86828701620004f3565b9150509250925092565b7f4e487b7100000000000000000000000000000000000000000000000000000000600052601160045260246000fd5b60008160011c9050919050565b6000808291508390505b600185111562000632578086048111156200060a5762000609620005a4565b5b60018516156200061a5780820291505b80810290506200062a85620005d3565b9450620005ea565b94509492505050565b6000826200064d576001905062000720565b816200065d576000905062000720565b81600181146200067657600281146200068157620006b7565b600191505062000720565b60ff841115620006965762000695620005a4565b5b8360020a915084821115620006b057620006af620005a4565b5b5062000720565b5060208310610133831016604e8410600b8410161715620006f15782820a905083811115620006eb57620006ea620005a4565b5b62000720565b620007008484846001620005e0565b925090508184048111156200071a5762000719620005a4565b5b81810290505b9392505050565b60006200073482620004cf565b91506200074183620004cf565b9250620007707fffffffffffffffffffffffffffffffffffffffffffffffffffffffffffffffff84846200063b565b905092915050565b60006200078582620004cf565b91506200079283620004cf565b9250817fffffffffffffffffffffffffffffffffffffffffffffffffffffffffffffffff0483118215151615620007ce57620007cd620005a4565b5b828202905092915050565b600082825260208201905092915050565b7f45524332303a206d696e7420746f20746865207a65726f206164647265737300600082015250565b600062000822601f83620007d9565b91506200082f82620007ea565b602082019050919050565b60006020820190508181036000830152620008558162000813565b9050919050565b60006200086982620004cf565b91506200087683620004cf565b9250827fffffffffffffffffffffffffffffffffffffffffffffffffffffffffffffffff03821115620008ae57620008ad620005a4565b5b828201905092915050565b620008c481620004cf565b82525050565b6000602082019050620008e16000830184620008b9565b92915050565b7f4e487b7100000000000000000000000000000000000000000000000000000000600052602260045260246000fd5b600060028204905060018216806200092f57607f821691505b60208210811415620009465762000945620008e7565b5b50919050565b6113aa806200095c6000396000f3fe608060405234801561001057600080fd5b50600436106100a95760003560e01c80633950935111610071578063395093511461016857806370a082311461019857806395d89b41146101c8578063a457c2d7146101e6578063a9059cbb14610216578063dd62ed3e14610246576100a9565b806306fdde03146100ae578063095ea7b3146100cc57806318160ddd146100fc57806323b872dd1461011a578063313ce5671461014a575b600080fd5b6100b6610276565b6040516100c39190610c3e565b60405180910390f35b6100e660048036038101906100e19190610cf9565b610308565b6040516100f39190610d54565b60405180910390f35b610104610326565b6040516101119190610d7e565b60405180910390f35b610134600480360381019061012f9190610d99565b610330565b6040516101419190610d54565b60405180910390f35b610152610428565b60405161015f9190610e08565b60405180910390f35b610182600480360381019061017d9190610cf9565b610431565b60405161018f9190610d54565b60405180910390f35b6101b260048036038101906101ad9190610e23565b6104dd565b6040516101bf9190610d7e565b60405180910390f35b6101d0610525565b6040516101dd9190610c3e565b60405180910390f35b61020060048036038101906101fb9190610cf9565b6105b7565b60405161020d9190610d54565b60405180910390f35b610230600480360381019061022b9190610cf9565b6106a2565b60405161023d9190610d54565b60405180910390f35b610260600480360381019061025b9190610e50565b6106c0565b60405161026d9190610d7e565b60405180910390f35b60606003805461028590610ebf565b80601f01602080910402602001604051908101604052809291908181526020018280546102b190610ebf565b80156102fe5780601f106102d3576101008083540402835291602001916102fe565b820191906000526020600020905b8154815290600101906020018083116102e157829003601f168201915b5050505050905090565b600061031c610315610747565b848461074f565b6001905092915050565b6000600254905090565b600061033d84848461091a565b6000600160008673ffffffffffffffffffffffffffffffffffffffff1673ffffffffffffffffffffffffffffffffffffffff1681526020019081526020016000206000610388610747565b73ffffffffffffffffffffffffffffffffffffffff1673ffffffffffffffffffffffffffffffffffffffff16815260200190815260200160002054905082811015610408576040517f08c379a00000000000000000000000000000000000000000000000000000000081526004016103ff90610f63565b60405180910390fd5b61041c85610414610747565b85840361074f565b60019150509392505050565b60006012905090565b60006104d361043e610747565b84846001600061044c610747565b73ffffffffffffffffffffffffffffffffffffffff1673ffffffffffffffffffffffffffffffffffffffff16815260200190815260200160002060008873ffffffffffffffffffffffffffffffffffffffff1673ffffffffffffffffffffffffffffffffffffffff168152602001908152602001600020546104ce9190610fb2565b61074f565b6001905092915050565b60008060008373ffffffffffffffffffffffffffffffffffffffff1673ffffffffffffffffffffffffffffffffffffffff168152602001908152602001600020549050919050565b60606004805461053490610ebf565b80601f016020809104026020016040519081016040528092919081815260200182805461056090610ebf565b80156105ad5780601f10610582576101008083540402835291602001916105ad565b820191906000526020600020905b81548152906001019060200180831161059057829003601f168201915b5050505050905090565b600080600160006105c6610747565b73ffffffffffffffffffffffffffffffffffffffff1673ffffffffffffffffffffffffffffffffffffffff16815260200190815260200160002060008573ffffffffffffffffffffffffffffffffffffffff1673ffffffffffffffffffffffffffffffffffffffff16815260200190815260200160002054905082811015610683576040517f08c379a000000000000000000000000000000000000000000000000000000000815260040161067a9061107a565b60405180910390fd5b61069761068e610747565b8585840361074f565b600191505092915050565b60006106b66106af610747565b848461091a565b6001905092915050565b6000600160008473ffffffffffffffffffffffffffffffffffffffff1673ffffffffffffffffffffffffffffffffffffffff16815260200190815260200160002060008373ffffffffffffffffffffffffffffffffffffffff1673ffffffffffffffffffffffffffffffffffffffff16815260200190815260200160002054905092915050565b600033905090565b600073ffffffffffffffffffffffffffffffffffffffff168373ffffffffffffffffffffffffffffffffffffffff1614156107bf576040517f08c379a00000000000000000000000000000000000000000000000000000000081526004016107b69061110c565b60405180910390fd5b600073ffffffffffffffffffffffffffffffffffffffff168273ffffffffffffffffffffffffffffffffffffffff16141561082f576040517f08c379a00000000000000000000000000000000000000000000000000000000081526004016108269061119e565b60405180910390fd5b80600160008573ffffffffffffffffffffffffffffffffffffffff1673ffffffffffffffffffffffffffffffffffffffff16815260200190815260200160002060008473ffffffffffffffffffffffffffffffffffffffff1673ffffffffffffffffffffffffffffffffffffffff168152602001908152602001600020819055508173ffffffffffffffffffffffffffffffffffffffff168373ffffffffffffffffffffffffffffffffffffffff167f8c5be1e5ebec7d5bd14f71427d1e84f3dd0314c0f7b2291e5b200ac8c7c3b9258360405161090d9190610d7e565b60405180910390a3505050565b600073ffffffffffffffffffffffffffffffffffffffff168373ffffffffffffffffffffffffffffffffffffffff16141561098a576040517f08c379a000000000000000000000000000000000000000000000000000000000815260040161098190611230565b60405180910390fd5b600073ffffffffffffffffffffffffffffffffffffffff168273ffffffffffffffffffffffffffffffffffffffff1614156109fa576040517f08c379a00000000000000000000000000000000000000000000000000000000081526004016109f1906112c2565b60405180910390fd5b610a05838383610b9b565b60008060008573ffffffffffffffffffffffffffffffffffffffff1673ffffffffffffffffffffffffffffffffffffffff16815260200190815260200160002054905081811015610a8b576040517f08c379a0000000000000000000000000000000000000000000000000000000008152600401610a8290611354565b60405180910390fd5b8181036000808673ffffffffffffffffffffffffffffffffffffffff1673ffffffffffffffffffffffffffffffffffffffff16815260200190815260200160002081905550816000808573ffffffffffffffffffffffffffffffffffffffff1673ffffffffffffffffffffffffffffffffffffffff1681526020019081526020016000206000828254610b1e9190610fb2565b925050819055508273ffffffffffffffffffffffffffffffffffffffff168473ffffffffffffffffffffffffffffffffffffffff167fddf252ad1be2c89b69c2b068fc378daa952ba7f163c4a11628f55a4df523b3ef84604051610b829190610d7e565b60405180910390a3610b95848484610ba0565b50505050565b505050565b505050565b600081519050919050565b600082825260208201905092915050565b60005b83811015610bdf578082015181840152602081019050610bc4565b83811115610bee576000848401525b50505050565b6000601f19601f8301169050919050565b6000610c1082610ba5565b610c1a8185610bb0565b9350610c2a818560208601610bc1565b610c3381610bf4565b840191505092915050565b60006020820190508181036000830152610c588184610c05565b905092915050565b600080fd5b600073ffffffffffffffffffffffffffffffffffffffff82169050919050565b6000610c9082610c65565b9050919050565b610ca081610c85565b8114610cab57600080fd5b50565b600081359050610cbd81610c97565b92915050565b6000819050919050565b610cd681610cc3565b8114610ce157600080fd5b50565b600081359050610cf381610ccd565b92915050565b60008060408385031215610d1057610d0f610c60565b5b6000610d1e85828601610cae565b9250506020610d2f85828601610ce4565b9150509250929050565b60008115159050919050565b610d4e81610d39565b82525050565b6000602082019050610d696000830184610d45565b92915050565b610d7881610cc3565b82525050565b6000602082019050610d936000830184610d6f565b92915050565b600080600060608486031215610db257610db1610c60565b5b6000610dc086828701610cae565b9350506020610dd186828701610cae565b9250506040610de286828701610ce4565b9150509250925092565b600060ff82169050919050565b610e0281610dec565b82525050565b6000602082019050610e1d6000830184610df9565b92915050565b600060208284031215610e3957610e38610c60565b5b6000610e4784828501610cae565b91505092915050565b60008060408385031215610e6757610e66610c60565b5b6000610e7585828601610cae565b9250506020610e8685828601610cae565b9150509250929050565b7f4e487b7100000000000000000000000000000000000000000000000000000000600052602260045260246000fd5b60006002820490506001821680610ed757607f821691505b60208210811415610eeb57610eea610e90565b5b50919050565b7f45524332303a207472616e7366657220616d6f756e742065786365656473206160008201527f6c6c6f77616e6365000000000000000000000000000000000000000000000000602082015250565b6000610f4d602883610bb0565b9150610f5882610ef1565b604082019050919050565b60006020820190508181036000830152610f7c81610f40565b9050919050565b7f4e487b7100000000000000000000000000000000000000000000000000000000600052601160045260246000fd5b6000610fbd82610cc3565b9150610fc883610cc3565b9250827fffffffffffffffffffffffffffffffffffffffffffffffffffffffffffffffff03821115610ffd57610ffc610f83565b5b828201905092915050565b7f45524332303a2064656372656173656420616c6c6f77616e63652062656c6f7760008201527f207a65726f000000000000000000000000000000000000000000000000000000602082015250565b6000611064602583610bb0565b915061106f82611008565b604082019050919050565b6000602082019050818103600083015261109381611057565b9050919050565b7f45524332303a20617070726f76652066726f6d20746865207a65726f2061646460008201527f7265737300000000000000000000000000000000000000000000000000000000602082015250565b60006110f6602483610bb0565b91506111018261109a565b604082019050919050565b60006020820190508181036000830152611125816110e9565b9050919050565b7f45524332303a20617070726f766520746f20746865207a65726f20616464726560008201527f7373000000000000000000000000000000000000000000000000000000000000602082015250565b6000611188602283610bb0565b91506111938261112c565b604082019050919050565b600060208201905081810360008301526111b78161117b565b9050919050565b7f45524332303a207472616e736665722066726f6d20746865207a65726f20616460008201527f6472657373000000000000000000000000000000000000000000000000000000602082015250565b600061121a602583610bb0565b9150611225826111be565b604082019050919050565b600060208201905081810360008301526112498161120d565b9050919050565b7f45524332303a207472616e7366657220746f20746865207a65726f206164647260008201527f6573730000000000000000000000000000000000000000000000000000000000602082015250565b60006112ac602383610bb0565b91506112b782611250565b604082019050919050565b600060208201905081810360008301526112db8161129f565b9050919050565b7f45524332303a207472616e7366657220616d6f756e742065786365656473206260008201527f616c616e63650000000000000000000000000000000000000000000000000000602082015250565b600061133e602683610bb0565b9150611349826112e2565b604082019050919050565b6000602082019050818103600083015261136d81611331565b905091905056fea2646970667358221220b6fe0c2344ce3899a7280d4dc3fad2f097139603c4e15ac31bf0ede9d83efbd564736f6c634300080a0033",
  "immutableReferences": {},
  "source": "// SPDX-License-Identifier: MIT\r\npragma solidity >=0.4.22 <0.9.0;\r\n\r\nimport \"./Token.sol\";\r\nimport \"./RaiseDao.sol\";\r\n\r\ncontract BoardDao {\r\n  address _owner;\r\n  RaiseDao daoContract;\r\n  address dao;\r\n  address creator;\r\n  address invesDao;\r\n\r\n  address raiseDaoToken;\r\n  \r\n  mapping (address => uint) voteBank;\r\n\r\n  Token boardToken;\r\n\r\n  uint256 constant boardSize = 100;\r\n  \r\n  enum BoardProposalStatus {VOTING, ACCEPTED, DECLINED}\r\n\r\n  struct BoardProposal {\r\n    string title;\r\n    string purpose;\r\n    address creator;\r\n    address recipient;\r\n    uint amountRequired;\r\n    int support;\r\n    BoardProposalStatus status;\r\n  }\r\n\r\n  BoardProposal[] public proposals;\r\n\r\n  constructor(\r\n    address _creator,\r\n    address _invesDao,\r\n    uint _daoOwnership,\r\n    uint _creatorOwnership,\r\n    uint _invesDaoOwnership,\r\n    string memory _tokenName,\r\n    string memory _tokenSymbol,\r\n    address _raiseDaoToken\r\n  ) {\r\n    _owner = msg.sender;\r\n    daoContract = RaiseDao(msg.sender);\r\n    dao = (msg.sender);\r\n    invesDao = _invesDao;\r\n    creator = _creator;\r\n    boardToken = new Token(_tokenName, _tokenSymbol, 100);\r\n    voteBank[dao] = _daoOwnership;\r\n    voteBank[_creator] = _creatorOwnership;\r\n    voteBank[_invesDao] = _invesDaoOwnership;\r\n    raiseDaoToken = _raiseDaoToken;\r\n  }\r\n\r\n  modifier onlyOwner() {\r\n    require(msg.sender == _owner);\r\n    _;  \r\n  }\r\n\r\n  modifier hasNativeToken() {\r\n    require(address(this).balance > 0);\r\n    _;\r\n  }\r\n\r\n  function mintBoardVotes() external onlyOwner hasNativeToken {\r\n    uint totalStake = voteBank[dao] + voteBank[creator] + voteBank[invesDao];\r\n    boardToken.transfer(dao, ((voteBank[dao] * 100) / totalStake) * (1 ether));\r\n    boardToken.transfer(dao, ((voteBank[creator] * 100) / totalStake) * (1 ether));\r\n    boardToken.transfer(dao, ((voteBank[invesDao] * 100) / totalStake) * (1 ether));\r\n  }\r\n\r\n  modifier isBoardMember() {\r\n    require(boardToken.balanceOf(msg.sender) > 0);\r\n    _;\r\n  }\r\n\r\n  modifier proposalUpForVoting (uint _proposalId) {\r\n    require(proposals[_proposalId].status == BoardProposalStatus.VOTING);\r\n    _;\r\n  }\r\n\r\n  modifier proposalAccepted (uint _proposalId) {\r\n    require(proposals[_proposalId].status == BoardProposalStatus.ACCEPTED);\r\n    _;\r\n  }\r\n\r\n  function createProposal(string memory _title, string memory _purpose, address _recipient, uint _amountRequired) public isBoardMember {\r\n    require(address(this).balance >= _amountRequired, \"Not enough balance\");\r\n    proposals.push(BoardProposal(_title, _purpose, msg.sender, _recipient, _amountRequired, 0, BoardProposalStatus.VOTING));\r\n    daoContract.createBoardProposal(_title, _purpose, _recipient, _amountRequired);\r\n    \r\n  }\r\n\r\n  function voteForProposal(uint _proposalId, bool isInFavour) external payable isBoardMember proposalUpForVoting(_proposalId) {\r\n    require(boardToken.balanceOf(msg.sender) > 0);\r\n    if (isInFavour == true) {\r\n      proposals[_proposalId].support += int(boardToken.balanceOf(msg.sender));\r\n    } else {\r\n      proposals[_proposalId].support -= int(boardToken.balanceOf(msg.sender));\r\n    }\r\n  }\r\n  \r\n  function decideOnProposal(uint _proposalId) external proposalUpForVoting(_proposalId) {\r\n    require(msg.sender == proposals[_proposalId].creator);\r\n    if (proposals[_proposalId].support > 0) {\r\n      proposals[_proposalId].status = BoardProposalStatus.ACCEPTED;\r\n      executeProposal(_proposalId);\r\n    }\r\n  }\r\n\r\n  function executeProposal(uint _proposalId) internal proposalAccepted(_proposalId) {\r\n    address payable recipient = payable(proposals[_proposalId].recipient);\r\n    recipient.transfer(proposals[_proposalId].amountRequired);\r\n  }\r\n\r\n  function getTokenAddress() public view returns(address) {\r\n    return address(boardToken);\r\n  }\r\n\r\n}",
  "sourcePath": "C:\\Users\\shrey\\Downloads\\InvesDAO\\contracts\\contracts\\BoardDao.sol",
  "compiler": {
    "name": "solc",
    "version": "0.8.10+commit.fc410830.Emscripten.clang"
  },
  "schemaVersion": "3.4.3",
  "updatedAt": "2021-12-14T17:29:21.292Z",
  "devdoc": {
    "kind": "dev",
    "methods": {},
    "version": 1
  },
  "userdoc": {
    "kind": "user",
    "methods": {},
    "version": 1
  }
}