{
  "contractName": "InvesDao",
  "abi": [
    {
      "inputs": [],
      "stateMutability": "nonpayable",
      "type": "constructor"
    },
    {
      "anonymous": false,
      "inputs": [
        {
          "indexed": false,
          "internalType": "address",
          "name": "",
          "type": "address"
        },
        {
          "indexed": false,
          "internalType": "uint256",
          "name": "",
          "type": "uint256"
        }
      ],
      "name": "TokenSwapped",
      "type": "event"
    },
    {
      "anonymous": false,
      "inputs": [
        {
          "indexed": false,
          "internalType": "address",
          "name": "",
          "type": "address"
        }
      ],
      "name": "campaignCreated",
      "type": "event"
    },
    {
      "inputs": [],
      "name": "applyForMembership",
      "outputs": [],
      "stateMutability": "payable",
      "type": "function"
    },
    {
      "inputs": [
        {
          "internalType": "string",
          "name": "_themeName",
          "type": "string"
        },
        {
          "internalType": "string",
          "name": "_tokenName",
          "type": "string"
        },
        {
          "internalType": "string",
          "name": "_tokenSymbol",
          "type": "string"
        },
        {
          "internalType": "uint256",
          "name": "_raiseGoal",
          "type": "uint256"
        }
      ],
      "name": "createRaiseCampaign",
      "outputs": [],
      "stateMutability": "nonpayable",
      "type": "function"
    }
  ],
  "bytecode": "0x60806040526b204fce5e3e250261100000006001553480156200002157600080fd5b50426003819055506b204fce5e3e250261100000006040516200004490620001a3565b6200005091906200027d565b604051809103906000f0801580156200006d573d6000803e3d6000fd5b50600260006101000a81548173ffffffffffffffffffffffffffffffffffffffff021916908373ffffffffffffffffffffffffffffffffffffffff160217905550600260009054906101000a900473ffffffffffffffffffffffffffffffffffffffff1673ffffffffffffffffffffffffffffffffffffffff1663a9059cbb3368056bc75e2d631000006040518363ffffffff1660e01b81526004016200011692919062000356565b6020604051808303816000875af115801562000136573d6000803e3d6000fd5b505050506040513d601f19601f820116820180604052508101906200015c9190620003c5565b50336000806101000a81548173ffffffffffffffffffffffffffffffffffffffff021916908373ffffffffffffffffffffffffffffffffffffffff160217905550620003f7565b611d06806200ba0283390190565b600082825260208201905092915050565b7f496e76657344616f000000000000000000000000000000000000000000000000600082015250565b6000620001fa600883620001b1565b91506200020782620001c2565b602082019050919050565b7f6944414f00000000000000000000000000000000000000000000000000000000600082015250565b60006200024a600483620001b1565b9150620002578262000212565b602082019050919050565b6000819050919050565b620002778162000262565b82525050565b600060608201905081810360008301526200029881620001eb565b90508181036020830152620002ad816200023b565b9050620002be60408301846200026c565b92915050565b600073ffffffffffffffffffffffffffffffffffffffff82169050919050565b6000620002f182620002c4565b9050919050565b6200030381620002e4565b82525050565b6000819050919050565b6000819050919050565b60006200033e62000338620003328462000309565b62000313565b62000262565b9050919050565b62000350816200031d565b82525050565b60006040820190506200036d6000830185620002f8565b6200037c602083018462000345565b9392505050565b600080fd5b60008115159050919050565b6200039f8162000388565b8114620003ab57600080fd5b50565b600081519050620003bf8162000394565b92915050565b600060208284031215620003de57620003dd62000383565b5b6000620003ee84828501620003ae565b91505092915050565b61b5fb80620004076000396000f3fe6080604052600436106200002c5760003560e01c80635e1ee52a14620000315780635e965f63146200003d575b600080fd5b6200003b6200006b565b005b3480156200004a57600080fd5b506200006960048036038101906200006391906200040d565b620001c1565b005b6000600154116200007b57600080fd5b600154341115620000c3576040517f08c379a0000000000000000000000000000000000000000000000000000000008152600401620000ba906200053d565b60405180910390fd5b3460016000828254620000d791906200058e565b92505081905550600260009054906101000a900473ffffffffffffffffffffffffffffffffffffffff1673ffffffffffffffffffffffffffffffffffffffff1663a9059cbb33346040518363ffffffff1660e01b81526004016200013d9291906200061f565b6020604051808303816000875af11580156200015d573d6000803e3d6000fd5b505050506040513d601f19601f8201168201806040525081019062000183919062000689565b507f5cf069f6412972a6c15aa4f5d0a340bfc369c3118f4cf8960b568ffe7ae462133334604051620001b79291906200061f565b60405180910390a1565b600060015411620001d157600080fd5b7f3b5c6dff367f8fe540e018ee8cb76957ce7d9fafe57f188fa343a6d0608447558484848460405162000204906200024e565b6200021394939291906200073d565b604051809103906000f08015801562000230573d6000803e3d6000fd5b506040516200024091906200079f565b60405180910390a150505050565b61ae0980620007bd83390190565b6000604051905090565b600080fd5b600080fd5b600080fd5b600080fd5b6000601f19601f8301169050919050565b7f4e487b7100000000000000000000000000000000000000000000000000000000600052604160045260246000fd5b620002c5826200027a565b810181811067ffffffffffffffff82111715620002e757620002e66200028b565b5b80604052505050565b6000620002fc6200025c565b90506200030a8282620002ba565b919050565b600067ffffffffffffffff8211156200032d576200032c6200028b565b5b62000338826200027a565b9050602081019050919050565b82818337600083830152505050565b60006200036b62000365846200030f565b620002f0565b9050828152602081018484840111156200038a576200038962000275565b5b6200039784828562000345565b509392505050565b600082601f830112620003b757620003b662000270565b5b8135620003c984826020860162000354565b91505092915050565b6000819050919050565b620003e781620003d2565b8114620003f357600080fd5b50565b6000813590506200040781620003dc565b92915050565b600080600080608085870312156200042a576200042962000266565b5b600085013567ffffffffffffffff8111156200044b576200044a6200026b565b5b62000459878288016200039f565b945050602085013567ffffffffffffffff8111156200047d576200047c6200026b565b5b6200048b878288016200039f565b935050604085013567ffffffffffffffff811115620004af57620004ae6200026b565b5b620004bd878288016200039f565b9250506060620004d087828801620003f6565b91505092959194509250565b600082825260208201905092915050565b7f4e6f7420656e6f75676820746f6b656e7320617661696c61626c650000000000600082015250565b600062000525601b83620004dc565b91506200053282620004ed565b602082019050919050565b60006020820190508181036000830152620005588162000516565b9050919050565b7f4e487b7100000000000000000000000000000000000000000000000000000000600052601160045260246000fd5b60006200059b82620003d2565b9150620005a883620003d2565b925082821015620005be57620005bd6200055f565b5b828203905092915050565b600073ffffffffffffffffffffffffffffffffffffffff82169050919050565b6000620005f682620005c9565b9050919050565b6200060881620005e9565b82525050565b6200061981620003d2565b82525050565b6000604082019050620006366000830185620005fd565b6200064560208301846200060e565b9392505050565b60008115159050919050565b62000663816200064c565b81146200066f57600080fd5b50565b600081519050620006838162000658565b92915050565b600060208284031215620006a257620006a162000266565b5b6000620006b28482850162000672565b91505092915050565b600081519050919050565b60005b83811015620006e6578082015181840152602081019050620006c9565b83811115620006f6576000848401525b50505050565b60006200070982620006bb565b620007158185620004dc565b935062000727818560208601620006c6565b62000732816200027a565b840191505092915050565b60006080820190508181036000830152620007598187620006fc565b905081810360208301526200076f8186620006fc565b90508181036040830152620007858185620006fc565b90506200079660608301846200060e565b95945050505050565b6000602082019050620007b66000830184620005fd565b9291505056fe60806040523480156200001157600080fd5b506040516200ae093803806200ae0983398181016040528101906200003791906200045c565b83600090805190602001906200004f929190620001c6565b5033600160006101000a81548173ffffffffffffffffffffffffffffffffffffffff021916908373ffffffffffffffffffffffffffffffffffffffff1602179055504260078190555033600260006101000a81548173ffffffffffffffffffffffffffffffffffffffff021916908373ffffffffffffffffffffffffffffffffffffffff160217905550828282604051620000ea9062000257565b620000f89392919062000599565b604051809103906000f08015801562000115573d6000803e3d6000fd5b50600360006101000a81548173ffffffffffffffffffffffffffffffffffffffff021916908373ffffffffffffffffffffffffffffffffffffffff160217905550670de0b6b3a7640000816200016c919062000613565b600481905550670de0b6b3a76400008162000188919062000613565b6005819055506000600660006101000a81548160ff02191690836002811115620001b757620001b662000674565b5b02179055505050505062000708565b828054620001d490620006d2565b90600052602060002090601f016020900481019282620001f8576000855562000244565b82601f106200021357805160ff191683800117855562000244565b8280016001018555821562000244579182015b828111156200024357825182559160200191906001019062000226565b5b50905062000253919062000265565b5090565b611d06806200910383390190565b5b808211156200028057600081600090555060010162000266565b5090565b6000604051905090565b600080fd5b600080fd5b600080fd5b600080fd5b6000601f19601f8301169050919050565b7f4e487b7100000000000000000000000000000000000000000000000000000000600052604160045260246000fd5b620002ed82620002a2565b810181811067ffffffffffffffff821117156200030f576200030e620002b3565b5b80604052505050565b60006200032462000284565b9050620003328282620002e2565b919050565b600067ffffffffffffffff821115620003555762000354620002b3565b5b6200036082620002a2565b9050602081019050919050565b60005b838110156200038d57808201518184015260208101905062000370565b838111156200039d576000848401525b50505050565b6000620003ba620003b48462000337565b62000318565b905082815260208101848484011115620003d957620003d86200029d565b5b620003e68482856200036d565b509392505050565b600082601f83011262000406576200040562000298565b5b815162000418848260208601620003a3565b91505092915050565b6000819050919050565b620004368162000421565b81146200044257600080fd5b50565b60008151905062000456816200042b565b92915050565b600080600080608085870312156200047957620004786200028e565b5b600085015167ffffffffffffffff8111156200049a576200049962000293565b5b620004a887828801620003ee565b945050602085015167ffffffffffffffff811115620004cc57620004cb62000293565b5b620004da87828801620003ee565b935050604085015167ffffffffffffffff811115620004fe57620004fd62000293565b5b6200050c87828801620003ee565b92505060606200051f8782880162000445565b91505092959194509250565b600081519050919050565b600082825260208201905092915050565b600062000554826200052b565b62000560818562000536565b9350620005728185602086016200036d565b6200057d81620002a2565b840191505092915050565b620005938162000421565b82525050565b60006060820190508181036000830152620005b5818662000547565b90508181036020830152620005cb818562000547565b9050620005dc604083018462000588565b949350505050565b7f4e487b7100000000000000000000000000000000000000000000000000000000600052601160045260246000fd5b6000620006208262000421565b91506200062d8362000421565b9250817fffffffffffffffffffffffffffffffffffffffffffffffffffffffffffffffff0483118215151615620006695762000668620005e4565b5b828202905092915050565b7f4e487b7100000000000000000000000000000000000000000000000000000000600052602160045260246000fd5b7f4e487b7100000000000000000000000000000000000000000000000000000000600052602260045260246000fd5b60006002820490506001821680620006eb57607f821691505b60208210811415620007025762000701620006a3565b5b50919050565b6189eb80620007186000396000f3fe6080604052600436106200010a5760003560e01c80636af3f7411162000097578063ca089df51162000061578063ca089df514620003a9578063ceba152814620003d9578063d328e84d146200040e578063dc7faacb146200043e576200010a565b80636af3f74114620002b55780637e673cda14620002eb578063a66f2b891462000335578063bb932ced1462000365576200010a565b80633b4d01a711620000d95780633b4d01a714620001fd57806345badb1b14620002495780634c86de5514620002795780635e1ee52a14620002a9576200010a565b8063013cf08b146200010f57806317fff9c1146200015d57806328ce7c9714620001a15780632ec58ee414620001cf575b600080fd5b3480156200011c57600080fd5b506200013b6004803603810190620001359190620034b5565b62000474565b604051620001549b9a9998979695949392919062003661565b60405180910390f35b3480156200016a57600080fd5b5062000189600480360381019062000183919062003787565b6200088c565b604051620001989190620037eb565b60405180910390f35b348015620001ae57600080fd5b50620001cd6004803603810190620001c79190620034b5565b62000c3c565b005b348015620001dc57600080fd5b50620001fb6004803603810190620001f591906200398a565b62000f59565b005b3480156200020a57600080fd5b50620002296004803603810190620002239190620034b5565b620011b7565b604051620002409998979695949392919062003a3a565b60405180910390f35b3480156200025657600080fd5b5062000261620016e4565b60405162000270919062003b03565b60405180910390f35b3480156200028657600080fd5b50620002916200179c565b604051620002a09190620037eb565b60405180910390f35b620002b3620018ce565b005b620002d36004803603810190620002cd9190620034b5565b62001b12565b604051620002e29190620037eb565b60405180910390f35b348015620002f857600080fd5b50620003176004803603810190620003119190620034b5565b62001cc3565b6040516200032c979695949392919062003b82565b60405180910390f35b3480156200034257600080fd5b506200034d62001e83565b6040516200035c919062003c78565b60405180910390f35b3480156200037257600080fd5b506200039160048036038101906200038b919062003c95565b62001ea9565b604051620003a09190620037eb565b60405180910390f35b348015620003b657600080fd5b50620003c1620022d7565b604051620003d0919062003b03565b60405180910390f35b348015620003e657600080fd5b50620003f162002348565b604051620004059695949392919062003e69565b60405180910390f35b3480156200041b57600080fd5b506200042662002544565b60405162000435919062003eeb565b60405180910390f35b6200045c600480360381019062000456919062003f39565b62002551565b6040516200046b9190620037eb565b60405180910390f35b600a81815481106200048557600080fd5b90600052602060002090600a0201600091509050806000018054620004aa9062003faf565b80601f0160208091040260200160405190810160405280929190818152602001828054620004d89062003faf565b8015620005295780601f10620004fd5761010080835404028352916020019162000529565b820191906000526020600020905b8154815290600101906020018083116200050b57829003601f168201915b505050505090806001018054620005409062003faf565b80601f01602080910402602001604051908101604052809291908181526020018280546200056e9062003faf565b8015620005bf5780601f106200059357610100808354040283529160200191620005bf565b820191906000526020600020905b815481529060010190602001808311620005a157829003601f168201915b505050505090806002018054620005d69062003faf565b80601f0160208091040260200160405190810160405280929190818152602001828054620006049062003faf565b8015620006555780601f10620006295761010080835404028352916020019162000655565b820191906000526020600020905b8154815290600101906020018083116200063757829003601f168201915b5050505050908060030180546200066c9062003faf565b80601f01602080910402602001604051908101604052809291908181526020018280546200069a9062003faf565b8015620006eb5780601f10620006bf57610100808354040283529160200191620006eb565b820191906000526020600020905b815481529060010190602001808311620006cd57829003601f168201915b505050505090806004018054620007029062003faf565b80601f0160208091040260200160405190810160405280929190818152602001828054620007309062003faf565b8015620007815780601f10620007555761010080835404028352916020019162000781565b820191906000526020600020905b8154815290600101906020018083116200076357829003601f168201915b505050505090806005018054620007989062003faf565b80601f0160208091040260200160405190810160405280929190818152602001828054620007c69062003faf565b8015620008175780601f10620007eb5761010080835404028352916020019162000817565b820191906000526020600020905b815481529060010190602001808311620007f957829003601f168201915b5050505050908060060160009054906101000a900473ffffffffffffffffffffffffffffffffffffffff16908060060160149054906101000a900460ff16908060070160009054906101000a900473ffffffffffffffffffffffffffffffffffffffff1690806008015490806009015490508b565b600080600360009054906101000a900473ffffffffffffffffffffffffffffffffffffffff1673ffffffffffffffffffffffffffffffffffffffff166370a08231336040518263ffffffff1660e01b8152600401620008ec919062003b03565b602060405180830381865afa1580156200090a573d6000803e3d6000fd5b505050506040513d601f19601f8201168201806040525081019062000930919062003ffc565b116200093b57600080fd5b60006002811115620009525762000951620035d0565b5b600660009054906101000a900460ff166002811115620009775762000976620035d0565b5b146200098257600080fd5b81600360009054906101000a900473ffffffffffffffffffffffffffffffffffffffff1673ffffffffffffffffffffffffffffffffffffffff166370a08231336040518263ffffffff1660e01b8152600401620009e0919062003b03565b602060405180830381865afa158015620009fe573d6000803e3d6000fd5b505050506040513d601f19601f8201168201806040525081019062000a24919062003ffc565b101562000a68576040517f08c379a000000000000000000000000000000000000000000000000000000000815260040162000a5f906200407e565b60405180910390fd5b600360009054906101000a900473ffffffffffffffffffffffffffffffffffffffff1673ffffffffffffffffffffffffffffffffffffffff166323b872dd3330856040518463ffffffff1660e01b815260040162000ac993929190620040a0565b6020604051808303816000875af115801562000ae9573d6000803e3d6000fd5b505050506040513d601f19601f8201168201806040525081019062000b0f9190620040f4565b5081600b60003373ffffffffffffffffffffffffffffffffffffffff1673ffffffffffffffffffffffffffffffffffffffff168152602001908152602001600020600082825462000b61919062004155565b92505081905550600c339080600181540180825580915050600190039060005260206000200160009091909190916101000a81548173ffffffffffffffffffffffffffffffffffffffff021916908373ffffffffffffffffffffffffffffffffffffffff16021790555081600e6000858152602001908152602001600020600082825462000bf0919062004155565b925050819055507fad76813c9c63ea914a1cf77666ce08e646ad4188368b2268a64d0db2f3883d97338460405162000c2a929190620041b2565b60405180910390a16001905092915050565b600160009054906101000a900473ffffffffffffffffffffffffffffffffffffffff1673ffffffffffffffffffffffffffffffffffffffff163373ffffffffffffffffffffffffffffffffffffffff161462000c9757600080fd5b6001600281111562000cae5762000cad620035d0565b5b600660009054906101000a900460ff16600281111562000cd35762000cd2620035d0565b5b1462000cde57600080fd5b806000600281111562000cf65762000cf5620035d0565b5b6011828154811062000d0d5762000d0c620041df565b5b906000526020600020906007020160060160009054906101000a900460ff16600281111562000d415762000d40620035d0565b5b1462000d4c57600080fd5b60006011838154811062000d655762000d64620041df565b5b906000526020600020906007020160050154131562000e6c5760016011838154811062000d975762000d96620041df565b5b906000526020600020906007020160060160006101000a81548160ff0219169083600281111562000dcd5762000dcc620035d0565b5b0217905550601260009054906101000a900473ffffffffffffffffffffffffffffffffffffffff1673ffffffffffffffffffffffffffffffffffffffff16636505e8e88360016040518363ffffffff1660e01b815260040162000e329291906200420e565b600060405180830381600087803b15801562000e4d57600080fd5b505af115801562000e62573d6000803e3d6000fd5b5050505062000f55565b60026011838154811062000e855762000e84620041df565b5b906000526020600020906007020160060160006101000a81548160ff0219169083600281111562000ebb5762000eba620035d0565b5b0217905550601260009054906101000a900473ffffffffffffffffffffffffffffffffffffffff1673ffffffffffffffffffffffffffffffffffffffff16636505e8e88360006040518363ffffffff1660e01b815260040162000f209291906200420e565b600060405180830381600087803b15801562000f3b57600080fd5b505af115801562000f50573d6000803e3d6000fd5b505050505b5050565b601260009054906101000a900473ffffffffffffffffffffffffffffffffffffffff1673ffffffffffffffffffffffffffffffffffffffff163373ffffffffffffffffffffffffffffffffffffffff161462000fb457600080fd5b6001600281111562000fcb5762000fca620035d0565b5b600660009054906101000a900460ff16600281111562000ff05762000fef620035d0565b5b1462000ffb57600080fd5b60116040518060e001604052808681526020018581526020013373ffffffffffffffffffffffffffffffffffffffff1681526020018473ffffffffffffffffffffffffffffffffffffffff168152602001838152602001600081526020016000600281111562001070576200106f620035d0565b5b81525090806001815401808255809150506001900390600052602060002090600702016000909190919091506000820151816000019080519060200190620010ba92919062003385565b506020820151816001019080519060200190620010d992919062003385565b5060408201518160020160006101000a81548173ffffffffffffffffffffffffffffffffffffffff021916908373ffffffffffffffffffffffffffffffffffffffff16021790555060608201518160030160006101000a81548173ffffffffffffffffffffffffffffffffffffffff021916908373ffffffffffffffffffffffffffffffffffffffff1602179055506080820151816004015560a0820151816005015560c08201518160060160006101000a81548160ff02191690836002811115620011aa57620011a9620035d0565b5b0217905550505050505050565b606080606080606080600080600080600a8b81548110620011dd57620011dc620041df565b5b90600052602060002090600a020160405180610160016040529081600082018054620012099062003faf565b80601f0160208091040260200160405190810160405280929190818152602001828054620012379062003faf565b8015620012885780601f106200125c5761010080835404028352916020019162001288565b820191906000526020600020905b8154815290600101906020018083116200126a57829003601f168201915b50505050508152602001600182018054620012a39062003faf565b80601f0160208091040260200160405190810160405280929190818152602001828054620012d19062003faf565b8015620013225780601f10620012f65761010080835404028352916020019162001322565b820191906000526020600020905b8154815290600101906020018083116200130457829003601f168201915b505050505081526020016002820180546200133d9062003faf565b80601f01602080910402602001604051908101604052809291908181526020018280546200136b9062003faf565b8015620013bc5780601f106200139057610100808354040283529160200191620013bc565b820191906000526020600020905b8154815290600101906020018083116200139e57829003601f168201915b50505050508152602001600382018054620013d79062003faf565b80601f0160208091040260200160405190810160405280929190818152602001828054620014059062003faf565b8015620014565780601f106200142a5761010080835404028352916020019162001456565b820191906000526020600020905b8154815290600101906020018083116200143857829003601f168201915b50505050508152602001600482018054620014719062003faf565b80601f01602080910402602001604051908101604052809291908181526020018280546200149f9062003faf565b8015620014f05780601f10620014c457610100808354040283529160200191620014f0565b820191906000526020600020905b815481529060010190602001808311620014d257829003601f168201915b505050505081526020016005820180546200150b9062003faf565b80601f0160208091040260200160405190810160405280929190818152602001828054620015399062003faf565b80156200158a5780601f106200155e576101008083540402835291602001916200158a565b820191906000526020600020905b8154815290600101906020018083116200156c57829003601f168201915b505050505081526020016006820160009054906101000a900473ffffffffffffffffffffffffffffffffffffffff1673ffffffffffffffffffffffffffffffffffffffff1673ffffffffffffffffffffffffffffffffffffffff1681526020016006820160149054906101000a900460ff166002811115620016115762001610620035d0565b5b6002811115620016265762001625620035d0565b5b81526020016007820160009054906101000a900473ffffffffffffffffffffffffffffffffffffffff1673ffffffffffffffffffffffffffffffffffffffff1673ffffffffffffffffffffffffffffffffffffffff168152602001600882015481526020016009820154815250509050806000015181602001518260400151836060015184608001518560a001518660c001518760e00151886101000151995099509950995099509950995099509950509193959799909294969850565b6000600280811115620016fc57620016fb620035d0565b5b600660009054906101000a900460ff166002811115620017215762001720620035d0565b5b14156200172d57600080fd5b60016002811115620017445762001743620035d0565b5b600660009054906101000a900460ff166002811115620017695762001768620035d0565b5b146200177457600080fd5b600f60009054906101000a900473ffffffffffffffffffffffffffffffffffffffff16905090565b6000600160009054906101000a900473ffffffffffffffffffffffffffffffffffffffff1673ffffffffffffffffffffffffffffffffffffffff163373ffffffffffffffffffffffffffffffffffffffff1614620017f957600080fd5b6000600281111562001810576200180f620035d0565b5b600660009054906101000a900460ff166002811115620018355762001834620035d0565b5b146200184057600080fd5b600480546200185091906200426a565b600d5410156200186e576200186462002812565b60009050620018cb565b60006200187a62002ae5565b90507fffffffffffffffffffffffffffffffffffffffffffffffffffffffffffffffff811415620018ba57620018af62002812565b6000915050620018cb565b620018c58162002cb8565b60019150505b90565b600060055411620018de57600080fd5b60006002811115620018f557620018f4620035d0565b5b600660009054906101000a900460ff1660028111156200191a5762001919620035d0565b5b146200192557600080fd5b6005543411156200196d576040517f08c379a0000000000000000000000000000000000000000000000000000000008152600401620019649062004318565b60405180910390fd5b34600560008282546200198191906200433a565b9250508190555034600860003373ffffffffffffffffffffffffffffffffffffffff1673ffffffffffffffffffffffffffffffffffffffff168152602001908152602001600020819055506009339080600181540180825580915050600190039060005260206000200160009091909190916101000a81548173ffffffffffffffffffffffffffffffffffffffff021916908373ffffffffffffffffffffffffffffffffffffffff160217905550600360009054906101000a900473ffffffffffffffffffffffffffffffffffffffff1673ffffffffffffffffffffffffffffffffffffffff1663a9059cbb33346040518363ffffffff1660e01b815260040162001a8e92919062004375565b6020604051808303816000875af115801562001aae573d6000803e3d6000fd5b505050506040513d601f19601f8201168201806040525081019062001ad49190620040f4565b507f0df04d174cf93d31884851bea9b0476485ae3657a1031c51a492320138d3a3c0333460405162001b0892919062004375565b60405180910390a1565b600080600281111562001b2a5762001b29620035d0565b5b600660009054906101000a900460ff16600281111562001b4f5762001b4e620035d0565b5b1462001b5a57600080fd5b6000600281111562001b715762001b70620035d0565b5b600a838154811062001b885762001b87620041df565b5b90600052602060002090600a020160060160149054906101000a900460ff16600281111562001bbc5762001bbb620035d0565b5b1462001bc757600080fd5b670de0b6b3a764000034101562001bdd57600080fd5b6001600a838154811062001bf65762001bf5620041df565b5b90600052602060002090600a020160060160146101000a81548160ff0219169083600281111562001c2c5762001c2b620035d0565b5b021790555060003390508073ffffffffffffffffffffffffffffffffffffffff166108fc349081150290604051600060405180830381858888f1935050505015801562001c7d573d6000803e3d6000fd5b507f9ad8be15dcbea66c1587e5bb33ba3fea6e0e828656d8888930bb4d1876472a8c338460405162001cb192919062004375565b60405180910390a16001915050919050565b6011818154811062001cd457600080fd5b906000526020600020906007020160009150905080600001805462001cf99062003faf565b80601f016020809104026020016040519081016040528092919081815260200182805462001d279062003faf565b801562001d785780601f1062001d4c5761010080835404028352916020019162001d78565b820191906000526020600020905b81548152906001019060200180831162001d5a57829003601f168201915b50505050509080600101805462001d8f9062003faf565b80601f016020809104026020016040519081016040528092919081815260200182805462001dbd9062003faf565b801562001e0e5780601f1062001de25761010080835404028352916020019162001e0e565b820191906000526020600020905b81548152906001019060200180831162001df057829003601f168201915b5050505050908060020160009054906101000a900473ffffffffffffffffffffffffffffffffffffffff16908060030160009054906101000a900473ffffffffffffffffffffffffffffffffffffffff16908060040154908060050154908060060160009054906101000a900460ff16905087565b601060009054906101000a900473ffffffffffffffffffffffffffffffffffffffff1681565b600080600360009054906101000a900473ffffffffffffffffffffffffffffffffffffffff1673ffffffffffffffffffffffffffffffffffffffff166370a08231336040518263ffffffff1660e01b815260040162001f09919062003b03565b602060405180830381865afa15801562001f27573d6000803e3d6000fd5b505050506040513d601f19601f8201168201806040525081019062001f4d919062003ffc565b1162001f5857600080fd5b6000600281111562001f6f5762001f6e620035d0565b5b600660009054906101000a900460ff16600281111562001f945762001f93620035d0565b5b1462001f9f57600080fd5b6031831462001fe5576040517f08c379a000000000000000000000000000000000000000000000000000000000815260040162001fdc9062004418565b60405180910390fd5b603182146200202b576040517f08c379a0000000000000000000000000000000000000000000000000000000008152600401620020229062004418565b60405180910390fd5b600a6040518061016001604052808b81526020018a81526020018981526020018881526020018781526020018681526020013373ffffffffffffffffffffffffffffffffffffffff1681526020016000600281111562002090576200208f620035d0565b5b8152602001600073ffffffffffffffffffffffffffffffffffffffff1681526020018581526020018481525090806001815401808255809150506001900390600052602060002090600a020160009091909190915060008201518160000190805190602001906200210392919062003385565b5060208201518160010190805190602001906200212292919062003385565b5060408201518160020190805190602001906200214192919062003385565b5060608201518160030190805190602001906200216092919062003385565b5060808201518160040190805190602001906200217f92919062003385565b5060a08201518160050190805190602001906200219e92919062003385565b5060c08201518160060160006101000a81548173ffffffffffffffffffffffffffffffffffffffff021916908373ffffffffffffffffffffffffffffffffffffffff16021790555060e08201518160060160146101000a81548160ff02191690836002811115620022145762002213620035d0565b5b02179055506101008201518160070160006101000a81548173ffffffffffffffffffffffffffffffffffffffff021916908373ffffffffffffffffffffffffffffffffffffffff1602179055506101208201518160080155610140820151816009015550507fc89a81be55ee41b6033b5d2ec11727edaaea46f87eea47df78428b1e86ec0f67336001600a80549050620022af91906200433a565b604051620022bf92919062004375565b60405180910390a16001905098975050505050505050565b6000600280811115620022ef57620022ee620035d0565b5b600660009054906101000a900460ff166002811115620023145762002313620035d0565b5b14156200232057600080fd5b600360009054906101000a900473ffffffffffffffffffffffffffffffffffffffff16905090565b606060008060006060806000600454600554600660009054906101000a900460ff16600360009054906101000a900473ffffffffffffffffffffffffffffffffffffffff1673ffffffffffffffffffffffffffffffffffffffff166306fdde036040518163ffffffff1660e01b8152600401600060405180830381865afa158015620023d8573d6000803e3d6000fd5b505050506040513d6000823e3d601f19601f82011682018060405250810190620024039190620044b8565b600360009054906101000a900473ffffffffffffffffffffffffffffffffffffffff1673ffffffffffffffffffffffffffffffffffffffff166395d89b416040518163ffffffff1660e01b8152600401600060405180830381865afa15801562002471573d6000803e3d6000fd5b505050506040513d6000823e3d601f19601f820116820180604052508101906200249c9190620044b8565b858054620024aa9062003faf565b80601f0160208091040260200160405190810160405280929190818152602001828054620024d89062003faf565b8015620025295780601f10620024fd5761010080835404028352916020019162002529565b820191906000526020600020905b8154815290600101906020018083116200250b57829003601f168201915b50505050509550955095509550955095509550909192939495565b6000600a80549050905090565b600080600360009054906101000a900473ffffffffffffffffffffffffffffffffffffffff1673ffffffffffffffffffffffffffffffffffffffff166370a08231336040518263ffffffff1660e01b8152600401620025b1919062003b03565b602060405180830381865afa158015620025cf573d6000803e3d6000fd5b505050506040513d601f19601f82011682018060405250810190620025f5919062003ffc565b116200260057600080fd5b60016002811115620026175762002616620035d0565b5b600660009054906101000a900460ff1660028111156200263c576200263b620035d0565b5b146200264757600080fd5b82600060028111156200265f576200265e620035d0565b5b60118281548110620026765762002675620041df565b5b906000526020600020906007020160060160009054906101000a900460ff166002811115620026aa57620026a9620035d0565b5b14620026b557600080fd5b34600b60003373ffffffffffffffffffffffffffffffffffffffff1673ffffffffffffffffffffffffffffffffffffffff168152602001908152602001600020600082825462002706919062004155565b92505081905550600c339080600181540180825580915050600190039060005260206000200160009091909190916101000a81548173ffffffffffffffffffffffffffffffffffffffff021916908373ffffffffffffffffffffffffffffffffffffffff160217905550600115158315151415620027c5573460118581548110620027965762002795620041df565b5b90600052602060002090600702016005016000828254620027b8919062004509565b9250508190555062002807565b3460118581548110620027dd57620027dc620041df565b5b90600052602060002090600702016005016000828254620027ff9190620045a7565b925050819055505b600191505092915050565b600160009054906101000a900473ffffffffffffffffffffffffffffffffffffffff1673ffffffffffffffffffffffffffffffffffffffff163373ffffffffffffffffffffffffffffffffffffffff16146200286d57600080fd5b60006002811115620028845762002883620035d0565b5b600660009054906101000a900460ff166002811115620028a957620028a8620035d0565b5b14620028b457600080fd5b6000805b6009805490508110156200296c576008600060098381548110620028e157620028e0620041df565b5b9060005260206000200160009054906101000a900473ffffffffffffffffffffffffffffffffffffffff1673ffffffffffffffffffffffffffffffffffffffff1673ffffffffffffffffffffffffffffffffffffffff168152602001908152602001600020548262002954919062004155565b91508080620029639062004645565b915050620028b8565b50600080600090505b60098054905081101562002ab257600981815481106200299a5762002999620041df565b5b9060005260206000200160009054906101000a900473ffffffffffffffffffffffffffffffffffffffff1691508173ffffffffffffffffffffffffffffffffffffffff166108fc846008600060098681548110620029fd57620029fc620041df565b5b9060005260206000200160009054906101000a900473ffffffffffffffffffffffffffffffffffffffff1673ffffffffffffffffffffffffffffffffffffffff1673ffffffffffffffffffffffffffffffffffffffff1681526020019081526020016000205462002a6f91906200426a565b9081150290604051600060405180830381858888f1935050505015801562002a9b573d6000803e3d6000fd5b50808062002aa99062004645565b91505062002975565b506002600660006101000a81548160ff0219169083600281111562002adc5762002adb620035d0565b5b02179055505050565b6000600160009054906101000a900473ffffffffffffffffffffffffffffffffffffffff1673ffffffffffffffffffffffffffffffffffffffff163373ffffffffffffffffffffffffffffffffffffffff161462002b4257600080fd5b6000600281111562002b595762002b58620035d0565b5b600660009054906101000a900460ff16600281111562002b7e5762002b7d620035d0565b5b1462002b8957600080fd5b60007fffffffffffffffffffffffffffffffffffffffffffffffffffffffffffffffff90506000600e60007fffffffffffffffffffffffffffffffffffffffffffffffffffffffffffffffff815260200190815260200160002054905060005b600a8054905081121562002caf5781600e60008381526020019081526020016000205413801562002c7957506000600281111562002c2c5762002c2b620035d0565b5b600a828154811062002c435762002c42620041df565b5b90600052602060002090600a020160060160149054906101000a900460ff16600281111562002c775762002c76620035d0565b5b145b1562002c9957600e60008281526020019081526020016000205491508092505b808062002ca69062004693565b91505062002be9565b50819250505090565b600160009054906101000a900473ffffffffffffffffffffffffffffffffffffffff1673ffffffffffffffffffffffffffffffffffffffff163373ffffffffffffffffffffffffffffffffffffffff161462002d1357600080fd5b6000600281111562002d2a5762002d29620035d0565b5b600660009054906101000a900460ff16600281111562002d4f5762002d4e620035d0565b5b1462002d5a57600080fd5b6002600a828154811062002d735762002d72620041df565b5b90600052602060002090600a020160060160146101000a81548160ff0219169083600281111562002da95762002da8620035d0565b5b0217905550600a818154811062002dc55762002dc4620041df565b5b90600052602060002090600a020160060160009054906101000a900473ffffffffffffffffffffffffffffffffffffffff16600260009054906101000a900473ffffffffffffffffffffffffffffffffffffffff16600a838154811062002e315762002e30620041df565b5b90600052602060002090600a020160080154600a848154811062002e5a5762002e59620041df565b5b90600052602060002090600a0201600901546002600a868154811062002e855762002e84620041df565b5b90600052602060002090600a0201600301600a878154811062002ead5762002eac620041df565b5b90600052602060002090600a0201600401600360009054906101000a900473ffffffffffffffffffffffffffffffffffffffff1660405162002eef9062003416565b62002f02989796959493929190620047c5565b604051809103906000f08015801562002f1f573d6000803e3d6000fd5b50601260006101000a81548173ffffffffffffffffffffffffffffffffffffffff021916908373ffffffffffffffffffffffffffffffffffffffff160217905550601260009054906101000a900473ffffffffffffffffffffffffffffffffffffffff1673ffffffffffffffffffffffffffffffffffffffff166310fe9ae86040518163ffffffff1660e01b8152600401602060405180830381865afa15801562002fce573d6000803e3d6000fd5b505050506040513d601f19601f8201168201806040525081019062002ff4919062004878565b600f60006101000a81548173ffffffffffffffffffffffffffffffffffffffff021916908373ffffffffffffffffffffffffffffffffffffffff160217905550600f60009054906101000a900473ffffffffffffffffffffffffffffffffffffffff16601060006101000a81548173ffffffffffffffffffffffffffffffffffffffff021916908373ffffffffffffffffffffffffffffffffffffffff1602179055506001600660006101000a81548160ff02191690836002811115620030c057620030bf620035d0565b5b0217905550620030cf620030d2565b50565b600160009054906101000a900473ffffffffffffffffffffffffffffffffffffffff1673ffffffffffffffffffffffffffffffffffffffff163373ffffffffffffffffffffffffffffffffffffffff16146200312d57600080fd5b600080600090505b600c80549050811015620032c357600c81815481106200315a5762003159620041df565b5b9060005260206000200160009054906101000a900473ffffffffffffffffffffffffffffffffffffffff169150600360009054906101000a900473ffffffffffffffffffffffffffffffffffffffff1673ffffffffffffffffffffffffffffffffffffffff1663a9059cbb836008600060098681548110620031e157620031e0620041df565b5b9060005260206000200160009054906101000a900473ffffffffffffffffffffffffffffffffffffffff1673ffffffffffffffffffffffffffffffffffffffff1673ffffffffffffffffffffffffffffffffffffffff168152602001908152602001600020546040518363ffffffff1660e01b815260040162003266929190620048cf565b6020604051808303816000875af115801562003286573d6000803e3d6000fd5b505050506040513d601f19601f82011682018060405250810190620032ac9190620040f4565b508080620032ba9062004645565b91505062003135565b5060005b600c8054905081101562003371576000600b6000600c8481548110620032f257620032f1620041df565b5b9060005260206000200160009054906101000a900473ffffffffffffffffffffffffffffffffffffffff1673ffffffffffffffffffffffffffffffffffffffff1673ffffffffffffffffffffffffffffffffffffffff168152602001908152602001600020819055508080620033689062004645565b915050620032c7565b50600c600062003382919062003424565b50565b828054620033939062003faf565b90600052602060002090601f016020900481019282620033b7576000855562003403565b82601f10620033d257805160ff191683800117855562003403565b8280016001018555821562003403579182015b8281111562003402578251825591602001919060010190620033e5565b5b50905062003412919062003447565b5090565b6140b980620048fd83390190565b508054600082559060005260206000209081019062003444919062003447565b50565b5b808211156200346257600081600090555060010162003448565b5090565b6000604051905090565b600080fd5b600080fd5b6000819050919050565b6200348f816200347a565b81146200349b57600080fd5b50565b600081359050620034af8162003484565b92915050565b600060208284031215620034ce57620034cd62003470565b5b6000620034de848285016200349e565b91505092915050565b600081519050919050565b600082825260208201905092915050565b60005b838110156200352357808201518184015260208101905062003506565b8381111562003533576000848401525b50505050565b6000601f19601f8301169050919050565b60006200355782620034e7565b620035638185620034f2565b93506200357581856020860162003503565b620035808162003539565b840191505092915050565b600073ffffffffffffffffffffffffffffffffffffffff82169050919050565b6000620035b8826200358b565b9050919050565b620035ca81620035ab565b82525050565b7f4e487b7100000000000000000000000000000000000000000000000000000000600052602160045260246000fd5b60038110620036135762003612620035d0565b5b50565b60008190506200362682620035ff565b919050565b6000620036388262003616565b9050919050565b6200364a816200362b565b82525050565b6200365b816200347a565b82525050565b60006101608201905081810360008301526200367e818e6200354a565b9050818103602083015262003694818d6200354a565b90508181036040830152620036aa818c6200354a565b90508181036060830152620036c0818b6200354a565b90508181036080830152620036d6818a6200354a565b905081810360a0830152620036ec81896200354a565b9050620036fd60c0830188620035bf565b6200370c60e08301876200363f565b6200371c610100830186620035bf565b6200372c61012083018562003650565b6200373c61014083018462003650565b9c9b505050505050505050505050565b6000819050919050565b62003761816200374c565b81146200376d57600080fd5b50565b600081359050620037818162003756565b92915050565b60008060408385031215620037a157620037a062003470565b5b6000620037b18582860162003770565b9250506020620037c4858286016200349e565b9150509250929050565b60008115159050919050565b620037e581620037ce565b82525050565b6000602082019050620038026000830184620037da565b92915050565b600080fd5b600080fd5b7f4e487b7100000000000000000000000000000000000000000000000000000000600052604160045260246000fd5b6200384c8262003539565b810181811067ffffffffffffffff821117156200386e576200386d62003812565b5b80604052505050565b60006200388362003466565b905062003891828262003841565b919050565b600067ffffffffffffffff821115620038b457620038b362003812565b5b620038bf8262003539565b9050602081019050919050565b82818337600083830152505050565b6000620038f2620038ec8462003896565b62003877565b9050828152602081018484840111156200391157620039106200380d565b5b6200391e848285620038cc565b509392505050565b600082601f8301126200393e576200393d62003808565b5b813562003950848260208601620038db565b91505092915050565b6200396481620035ab565b81146200397057600080fd5b50565b600081359050620039848162003959565b92915050565b60008060008060808587031215620039a757620039a662003470565b5b600085013567ffffffffffffffff811115620039c857620039c762003475565b5b620039d68782880162003926565b945050602085013567ffffffffffffffff811115620039fa57620039f962003475565b5b62003a088782880162003926565b935050604062003a1b8782880162003973565b925050606062003a2e878288016200349e565b91505092959194509250565b600061012082019050818103600083015262003a57818c6200354a565b9050818103602083015262003a6d818b6200354a565b9050818103604083015262003a83818a6200354a565b9050818103606083015262003a9981896200354a565b9050818103608083015262003aaf81886200354a565b905081810360a083015262003ac581876200354a565b905062003ad660c0830186620035bf565b62003ae560e08301856200363f565b62003af5610100830184620035bf565b9a9950505050505050505050565b600060208201905062003b1a6000830184620035bf565b92915050565b62003b2b816200374c565b82525050565b6003811062003b455762003b44620035d0565b5b50565b600081905062003b588262003b31565b919050565b600062003b6a8262003b48565b9050919050565b62003b7c8162003b5d565b82525050565b600060e082019050818103600083015262003b9e818a6200354a565b9050818103602083015262003bb481896200354a565b905062003bc56040830188620035bf565b62003bd46060830187620035bf565b62003be3608083018662003650565b62003bf260a083018562003b20565b62003c0160c083018462003b71565b98975050505050505050565b6000819050919050565b600062003c3862003c3262003c2c846200358b565b62003c0d565b6200358b565b9050919050565b600062003c4c8262003c17565b9050919050565b600062003c608262003c3f565b9050919050565b62003c728162003c53565b82525050565b600060208201905062003c8f600083018462003c67565b92915050565b600080600080600080600080610100898b03121562003cb95762003cb862003470565b5b600089013567ffffffffffffffff81111562003cda5762003cd962003475565b5b62003ce88b828c0162003926565b985050602089013567ffffffffffffffff81111562003d0c5762003d0b62003475565b5b62003d1a8b828c0162003926565b975050604089013567ffffffffffffffff81111562003d3e5762003d3d62003475565b5b62003d4c8b828c0162003926565b965050606089013567ffffffffffffffff81111562003d705762003d6f62003475565b5b62003d7e8b828c0162003926565b955050608089013567ffffffffffffffff81111562003da25762003da162003475565b5b62003db08b828c0162003926565b94505060a089013567ffffffffffffffff81111562003dd45762003dd362003475565b5b62003de28b828c0162003926565b93505060c062003df58b828c016200349e565b92505060e062003e088b828c016200349e565b9150509295985092959890939650565b6003811062003e2c5762003e2b620035d0565b5b50565b600081905062003e3f8262003e18565b919050565b600062003e518262003e2f565b9050919050565b62003e638162003e44565b82525050565b600060c082019050818103600083015262003e8581896200354a565b905062003e96602083018862003650565b62003ea5604083018762003650565b62003eb4606083018662003e58565b818103608083015262003ec881856200354a565b905081810360a083015262003ede81846200354a565b9050979650505050505050565b600060208201905062003f02600083018462003650565b92915050565b62003f1381620037ce565b811462003f1f57600080fd5b50565b60008135905062003f338162003f08565b92915050565b6000806040838503121562003f535762003f5262003470565b5b600062003f63858286016200349e565b925050602062003f768582860162003f22565b9150509250929050565b7f4e487b7100000000000000000000000000000000000000000000000000000000600052602260045260246000fd5b6000600282049050600182168062003fc857607f821691505b6020821081141562003fdf5762003fde62003f80565b5b50919050565b60008151905062003ff68162003484565b92915050565b60006020828403121562004015576200401462003470565b5b6000620040258482850162003fe5565b91505092915050565b7f496e73756666696369656e742044414f20746f6b656e73000000000000000000600082015250565b600062004066601783620034f2565b915062004073826200402e565b602082019050919050565b60006020820190508181036000830152620040998162004057565b9050919050565b6000606082019050620040b76000830186620035bf565b620040c66020830185620035bf565b620040d5604083018462003650565b949350505050565b600081519050620040ee8162003f08565b92915050565b6000602082840312156200410d576200410c62003470565b5b60006200411d84828501620040dd565b91505092915050565b7f4e487b7100000000000000000000000000000000000000000000000000000000600052601160045260246000fd5b600062004162826200347a565b91506200416f836200347a565b9250827fffffffffffffffffffffffffffffffffffffffffffffffffffffffffffffffff03821115620041a757620041a662004126565b5b828201905092915050565b6000604082019050620041c96000830185620035bf565b620041d8602083018462003b20565b9392505050565b7f4e487b7100000000000000000000000000000000000000000000000000000000600052603260045260246000fd5b600060408201905062004225600083018562003650565b620042346020830184620037da565b9392505050565b7f4e487b7100000000000000000000000000000000000000000000000000000000600052601260045260246000fd5b600062004277826200347a565b915062004284836200347a565b9250826200429757620042966200423b565b5b828204905092915050565b7f4e6f7420656e6f756768206d656d6265727368697020746f6b656e732061766160008201527f696c61626c650000000000000000000000000000000000000000000000000000602082015250565b600062004300602683620034f2565b91506200430d82620042a2565b604082019050919050565b600060208201905081810360008301526200433381620042f1565b9050919050565b600062004347826200347a565b915062004354836200347a565b9250828210156200436a576200436962004126565b5b828203905092915050565b60006040820190506200438c6000830185620035bf565b6200439b602083018462003650565b9392505050565b7f4f6e6c792034392d34392d322073747275637475726520697320616c6c6f776560008201527f642063757272656e746c79000000000000000000000000000000000000000000602082015250565b600062004400602b83620034f2565b91506200440d82620043a2565b604082019050919050565b600060208201905081810360008301526200443381620043f1565b9050919050565b6000620044516200444b8462003896565b62003877565b90508281526020810184848401111562004470576200446f6200380d565b5b6200447d84828562003503565b509392505050565b600082601f8301126200449d576200449c62003808565b5b8151620044af8482602086016200443a565b91505092915050565b600060208284031215620044d157620044d062003470565b5b600082015167ffffffffffffffff811115620044f257620044f162003475565b5b620045008482850162004485565b91505092915050565b600062004516826200374c565b915062004523836200374c565b9250817f7fffffffffffffffffffffffffffffffffffffffffffffffffffffffffffffff0383136000831215161562004561576200456062004126565b5b817f80000000000000000000000000000000000000000000000000000000000000000383126000831216156200459c576200459b62004126565b5b828201905092915050565b6000620045b4826200374c565b9150620045c1836200374c565b9250827f800000000000000000000000000000000000000000000000000000000000000001821260008412151615620045ff57620045fe62004126565b5b827f7fffffffffffffffffffffffffffffffffffffffffffffffffffffffffffffff0182136000841216156200463a576200463962004126565b5b828203905092915050565b600062004652826200347a565b91507fffffffffffffffffffffffffffffffffffffffffffffffffffffffffffffffff82141562004688576200468762004126565b5b600182019050919050565b6000620046a0826200374c565b91507f7fffffffffffffffffffffffffffffffffffffffffffffffffffffffffffffff821415620046d657620046d562004126565b5b600182019050919050565b6000819050919050565b60006200470c620047066200470084620046e1565b62003c0d565b6200347a565b9050919050565b6200471e81620046eb565b82525050565b60008190508160005260206000209050919050565b60008154620047488162003faf565b620047548186620034f2565b945060018216600081146200477257600181146200478557620047bc565b60ff1983168652602086019350620047bc565b620047908562004724565b60005b83811015620047b45781548189015260018201915060208101905062004793565b808801955050505b50505092915050565b600061010082019050620047dd600083018b620035bf565b620047ec602083018a620035bf565b620047fb604083018962003650565b6200480a606083018862003650565b62004819608083018762004713565b81810360a08301526200482d818662004739565b905081810360c083015262004843818562004739565b90506200485460e0830184620035bf565b9998505050505050505050565b600081519050620048728162003959565b92915050565b60006020828403121562004891576200489062003470565b5b6000620048a18482850162004861565b91505092915050565b6000620048b78262003c3f565b9050919050565b620048c981620048aa565b82525050565b6000604082019050620048e66000830185620048be565b620048f5602083018462003650565b939250505056fe60806040523480156200001157600080fd5b50604051620040b9380380620040b9833981810160405281019062000037919062000581565b336000806101000a81548173ffffffffffffffffffffffffffffffffffffffff021916908373ffffffffffffffffffffffffffffffffffffffff16021790555033600160006101000a81548173ffffffffffffffffffffffffffffffffffffffff021916908373ffffffffffffffffffffffffffffffffffffffff16021790555033600260006101000a81548173ffffffffffffffffffffffffffffffffffffffff021916908373ffffffffffffffffffffffffffffffffffffffff16021790555086600460006101000a81548173ffffffffffffffffffffffffffffffffffffffff021916908373ffffffffffffffffffffffffffffffffffffffff16021790555087600360006101000a81548173ffffffffffffffffffffffffffffffffffffffff021916908373ffffffffffffffffffffffffffffffffffffffff160217905550828260646040516200018d9062000336565b6200019b9392919062000732565b604051809103906000f080158015620001b8573d6000803e3d6000fd5b50600760006101000a81548173ffffffffffffffffffffffffffffffffffffffff021916908373ffffffffffffffffffffffffffffffffffffffff1602179055508560066000600260009054906101000a900473ffffffffffffffffffffffffffffffffffffffff1673ffffffffffffffffffffffffffffffffffffffff1673ffffffffffffffffffffffffffffffffffffffff1681526020019081526020016000208190555084600660008a73ffffffffffffffffffffffffffffffffffffffff1673ffffffffffffffffffffffffffffffffffffffff1681526020019081526020016000208190555083600660008973ffffffffffffffffffffffffffffffffffffffff1673ffffffffffffffffffffffffffffffffffffffff1681526020019081526020016000208190555080600560006101000a81548173ffffffffffffffffffffffffffffffffffffffff021916908373ffffffffffffffffffffffffffffffffffffffff16021790555050505050505050506200077d565b611d0680620023b383390190565b6000604051905090565b600080fd5b600080fd5b600073ffffffffffffffffffffffffffffffffffffffff82169050919050565b6000620003858262000358565b9050919050565b620003978162000378565b8114620003a357600080fd5b50565b600081519050620003b7816200038c565b92915050565b6000819050919050565b620003d281620003bd565b8114620003de57600080fd5b50565b600081519050620003f281620003c7565b92915050565b600080fd5b600080fd5b6000601f19601f8301169050919050565b7f4e487b7100000000000000000000000000000000000000000000000000000000600052604160045260246000fd5b6200044d8262000402565b810181811067ffffffffffffffff821117156200046f576200046e62000413565b5b80604052505050565b60006200048462000344565b905062000492828262000442565b919050565b600067ffffffffffffffff821115620004b557620004b462000413565b5b620004c08262000402565b9050602081019050919050565b60005b83811015620004ed578082015181840152602081019050620004d0565b83811115620004fd576000848401525b50505050565b60006200051a620005148462000497565b62000478565b905082815260208101848484011115620005395762000538620003fd565b5b62000546848285620004cd565b509392505050565b600082601f830112620005665762000565620003f8565b5b81516200057884826020860162000503565b91505092915050565b600080600080600080600080610100898b031215620005a557620005a46200034e565b5b6000620005b58b828c01620003a6565b9850506020620005c88b828c01620003a6565b9750506040620005db8b828c01620003e1565b9650506060620005ee8b828c01620003e1565b9550506080620006018b828c01620003e1565b94505060a089015167ffffffffffffffff81111562000625576200062462000353565b5b620006338b828c016200054e565b93505060c089015167ffffffffffffffff81111562000657576200065662000353565b5b620006658b828c016200054e565b92505060e0620006788b828c01620003a6565b9150509295985092959890939650565b600081519050919050565b600082825260208201905092915050565b6000620006b18262000688565b620006bd818562000693565b9350620006cf818560208601620004cd565b620006da8162000402565b840191505092915050565b6000819050919050565b6000819050919050565b60006200071a620007146200070e84620006e5565b620006ef565b620003bd565b9050919050565b6200072c81620006f9565b82525050565b600060608201905081810360008301526200074e8186620006a4565b90508181036020830152620007648185620006a4565b905062000775604083018462000721565b949350505050565b611c26806200078d6000396000f3fe6080604052600436106100555760003560e01c8063013cf08b1461005a57806310fe9ae81461009d5780636505e8e8146100c85780637cdc2eb7146100e4578063d3c697581461010d578063f073139f14610124575b600080fd5b34801561006657600080fd5b50610081600480360381019061007c91906112d7565b61014d565b604051610094979695949392919061147d565b60405180910390f35b3480156100a957600080fd5b506100b26102fc565b6040516100bf91906114fa565b60405180910390f35b6100e260048036038101906100dd919061154d565b610326565b005b3480156100f057600080fd5b5061010b600480360381019061010691906116ee565b6106a0565b005b34801561011957600080fd5b506101226109d0565b005b34801561013057600080fd5b5061014b600480360381019061014691906112d7565b610f60565b005b6008818154811061015d57600080fd5b9060005260206000209060070201600091509050806000018054610180906117bc565b80601f01602080910402602001604051908101604052809291908181526020018280546101ac906117bc565b80156101f95780601f106101ce576101008083540402835291602001916101f9565b820191906000526020600020905b8154815290600101906020018083116101dc57829003601f168201915b50505050509080600101805461020e906117bc565b80601f016020809104026020016040519081016040528092919081815260200182805461023a906117bc565b80156102875780601f1061025c57610100808354040283529160200191610287565b820191906000526020600020905b81548152906001019060200180831161026a57829003601f168201915b5050505050908060020160009054906101000a900473ffffffffffffffffffffffffffffffffffffffff16908060030160009054906101000a900473ffffffffffffffffffffffffffffffffffffffff16908060040154908060050154908060060160009054906101000a900460ff16905087565b6000600760009054906101000a900473ffffffffffffffffffffffffffffffffffffffff16905090565b6000600760009054906101000a900473ffffffffffffffffffffffffffffffffffffffff1673ffffffffffffffffffffffffffffffffffffffff166370a08231336040518263ffffffff1660e01b815260040161038391906114fa565b602060405180830381865afa1580156103a0573d6000803e3d6000fd5b505050506040513d601f19601f820116820180604052508101906103c49190611803565b116103ce57600080fd5b81600060028111156103e3576103e2611406565b5b600882815481106103f7576103f6611830565b5b906000526020600020906007020160060160009054906101000a900460ff16600281111561042857610427611406565b5b1461043257600080fd5b6000600760009054906101000a900473ffffffffffffffffffffffffffffffffffffffff1673ffffffffffffffffffffffffffffffffffffffff166370a08231336040518263ffffffff1660e01b815260040161048f91906114fa565b602060405180830381865afa1580156104ac573d6000803e3d6000fd5b505050506040513d601f19601f820116820180604052508101906104d09190611803565b116104da57600080fd5b6001151582151514156105c357600760009054906101000a900473ffffffffffffffffffffffffffffffffffffffff1673ffffffffffffffffffffffffffffffffffffffff166370a08231336040518263ffffffff1660e01b815260040161054291906114fa565b602060405180830381865afa15801561055f573d6000803e3d6000fd5b505050506040513d601f19601f820116820180604052508101906105839190611803565b6008848154811061059757610596611830565b5b906000526020600020906007020160050160008282546105b7919061188e565b9250508190555061069b565b600760009054906101000a900473ffffffffffffffffffffffffffffffffffffffff1673ffffffffffffffffffffffffffffffffffffffff166370a08231336040518263ffffffff1660e01b815260040161061e91906114fa565b602060405180830381865afa15801561063b573d6000803e3d6000fd5b505050506040513d601f19601f8201168201806040525081019061065f9190611803565b6008848154811061067357610672611830565b5b906000526020600020906007020160050160008282546106939190611922565b925050819055505b505050565b6000600760009054906101000a900473ffffffffffffffffffffffffffffffffffffffff1673ffffffffffffffffffffffffffffffffffffffff166370a08231336040518263ffffffff1660e01b81526004016106fd91906114fa565b602060405180830381865afa15801561071a573d6000803e3d6000fd5b505050506040513d601f19601f8201168201806040525081019061073e9190611803565b1161074857600080fd5b8047101561078b576040517f08c379a000000000000000000000000000000000000000000000000000000000815260040161078290611a02565b60405180910390fd5b60086040518060e001604052808681526020018581526020013373ffffffffffffffffffffffffffffffffffffffff1681526020018473ffffffffffffffffffffffffffffffffffffffff16815260200183815260200160008152602001600060028111156107fd576107fc611406565b5b815250908060018154018082558091505060019003906000526020600020906007020160009091909190915060008201518160000190805190602001906108459291906111ea565b5060208201518160010190805190602001906108629291906111ea565b5060408201518160020160006101000a81548173ffffffffffffffffffffffffffffffffffffffff021916908373ffffffffffffffffffffffffffffffffffffffff16021790555060608201518160030160006101000a81548173ffffffffffffffffffffffffffffffffffffffff021916908373ffffffffffffffffffffffffffffffffffffffff1602179055506080820151816004015560a0820151816005015560c08201518160060160006101000a81548160ff021916908360028111156109305761092f611406565b5b02179055505050600160009054906101000a900473ffffffffffffffffffffffffffffffffffffffff1673ffffffffffffffffffffffffffffffffffffffff16632ec58ee4858585856040518563ffffffff1660e01b81526004016109989493929190611a22565b600060405180830381600087803b1580156109b257600080fd5b505af11580156109c6573d6000803e3d6000fd5b5050505050505050565b60008054906101000a900473ffffffffffffffffffffffffffffffffffffffff1673ffffffffffffffffffffffffffffffffffffffff163373ffffffffffffffffffffffffffffffffffffffff1614610a2857600080fd5b60004711610a3557600080fd5b600060066000600460009054906101000a900473ffffffffffffffffffffffffffffffffffffffff1673ffffffffffffffffffffffffffffffffffffffff1673ffffffffffffffffffffffffffffffffffffffff1681526020019081526020016000205460066000600360009054906101000a900473ffffffffffffffffffffffffffffffffffffffff1673ffffffffffffffffffffffffffffffffffffffff1673ffffffffffffffffffffffffffffffffffffffff1681526020019081526020016000205460066000600260009054906101000a900473ffffffffffffffffffffffffffffffffffffffff1673ffffffffffffffffffffffffffffffffffffffff1673ffffffffffffffffffffffffffffffffffffffff16815260200190815260200160002054610b679190611a75565b610b719190611a75565b9050600760009054906101000a900473ffffffffffffffffffffffffffffffffffffffff1673ffffffffffffffffffffffffffffffffffffffff1663a9059cbb600260009054906101000a900473ffffffffffffffffffffffffffffffffffffffff16670de0b6b3a764000084606460066000600260009054906101000a900473ffffffffffffffffffffffffffffffffffffffff1673ffffffffffffffffffffffffffffffffffffffff1673ffffffffffffffffffffffffffffffffffffffff16815260200190815260200160002054610c4c9190611acb565b610c569190611b54565b610c609190611acb565b6040518363ffffffff1660e01b8152600401610c7d929190611b85565b6020604051808303816000875af1158015610c9c573d6000803e3d6000fd5b505050506040513d601f19601f82011682018060405250810190610cc09190611bc3565b50600760009054906101000a900473ffffffffffffffffffffffffffffffffffffffff1673ffffffffffffffffffffffffffffffffffffffff1663a9059cbb600260009054906101000a900473ffffffffffffffffffffffffffffffffffffffff16670de0b6b3a764000084606460066000600360009054906101000a900473ffffffffffffffffffffffffffffffffffffffff1673ffffffffffffffffffffffffffffffffffffffff1673ffffffffffffffffffffffffffffffffffffffff16815260200190815260200160002054610d9a9190611acb565b610da49190611b54565b610dae9190611acb565b6040518363ffffffff1660e01b8152600401610dcb929190611b85565b6020604051808303816000875af1158015610dea573d6000803e3d6000fd5b505050506040513d601f19601f82011682018060405250810190610e0e9190611bc3565b50600760009054906101000a900473ffffffffffffffffffffffffffffffffffffffff1673ffffffffffffffffffffffffffffffffffffffff1663a9059cbb600260009054906101000a900473ffffffffffffffffffffffffffffffffffffffff16670de0b6b3a764000084606460066000600460009054906101000a900473ffffffffffffffffffffffffffffffffffffffff1673ffffffffffffffffffffffffffffffffffffffff1673ffffffffffffffffffffffffffffffffffffffff16815260200190815260200160002054610ee89190611acb565b610ef29190611b54565b610efc9190611acb565b6040518363ffffffff1660e01b8152600401610f19929190611b85565b6020604051808303816000875af1158015610f38573d6000803e3d6000fd5b505050506040513d601f19601f82011682018060405250810190610f5c9190611bc3565b5050565b8060006002811115610f7557610f74611406565b5b60088281548110610f8957610f88611830565b5b906000526020600020906007020160060160009054906101000a900460ff166002811115610fba57610fb9611406565b5b14610fc457600080fd5b60088281548110610fd857610fd7611830565b5b906000526020600020906007020160020160009054906101000a900473ffffffffffffffffffffffffffffffffffffffff1673ffffffffffffffffffffffffffffffffffffffff163373ffffffffffffffffffffffffffffffffffffffff161461104157600080fd5b60006008838154811061105757611056611830565b5b90600052602060002090600702016005015413156110c75760016008838154811061108557611084611830565b5b906000526020600020906007020160060160006101000a81548160ff021916908360028111156110b8576110b7611406565b5b02179055506110c6826110cb565b5b5050565b80600160028111156110e0576110df611406565b5b600882815481106110f4576110f3611830565b5b906000526020600020906007020160060160009054906101000a900460ff16600281111561112557611124611406565b5b1461112f57600080fd5b60006008838154811061114557611144611830565b5b906000526020600020906007020160030160009054906101000a900473ffffffffffffffffffffffffffffffffffffffff1690508073ffffffffffffffffffffffffffffffffffffffff166108fc600885815481106111a7576111a6611830565b5b9060005260206000209060070201600401549081150290604051600060405180830381858888f193505050501580156111e4573d6000803e3d6000fd5b50505050565b8280546111f6906117bc565b90600052602060002090601f016020900481019282611218576000855561125f565b82601f1061123157805160ff191683800117855561125f565b8280016001018555821561125f579182015b8281111561125e578251825591602001919060010190611243565b5b50905061126c9190611270565b5090565b5b80821115611289576000816000905550600101611271565b5090565b6000604051905090565b600080fd5b600080fd5b6000819050919050565b6112b4816112a1565b81146112bf57600080fd5b50565b6000813590506112d1816112ab565b92915050565b6000602082840312156112ed576112ec611297565b5b60006112fb848285016112c2565b91505092915050565b600081519050919050565b600082825260208201905092915050565b60005b8381101561133e578082015181840152602081019050611323565b8381111561134d576000848401525b50505050565b6000601f19601f8301169050919050565b600061136f82611304565b611379818561130f565b9350611389818560208601611320565b61139281611353565b840191505092915050565b600073ffffffffffffffffffffffffffffffffffffffff82169050919050565b60006113c88261139d565b9050919050565b6113d8816113bd565b82525050565b6113e7816112a1565b82525050565b6000819050919050565b611400816113ed565b82525050565b7f4e487b7100000000000000000000000000000000000000000000000000000000600052602160045260246000fd5b6003811061144657611445611406565b5b50565b600081905061145782611435565b919050565b600061146782611449565b9050919050565b6114778161145c565b82525050565b600060e0820190508181036000830152611497818a611364565b905081810360208301526114ab8189611364565b90506114ba60408301886113cf565b6114c760608301876113cf565b6114d460808301866113de565b6114e160a08301856113f7565b6114ee60c083018461146e565b98975050505050505050565b600060208201905061150f60008301846113cf565b92915050565b60008115159050919050565b61152a81611515565b811461153557600080fd5b50565b60008135905061154781611521565b92915050565b6000806040838503121561156457611563611297565b5b6000611572858286016112c2565b925050602061158385828601611538565b9150509250929050565b600080fd5b600080fd5b7f4e487b7100000000000000000000000000000000000000000000000000000000600052604160045260246000fd5b6115cf82611353565b810181811067ffffffffffffffff821117156115ee576115ed611597565b5b80604052505050565b600061160161128d565b905061160d82826115c6565b919050565b600067ffffffffffffffff82111561162d5761162c611597565b5b61163682611353565b9050602081019050919050565b82818337600083830152505050565b600061166561166084611612565b6115f7565b90508281526020810184848401111561168157611680611592565b5b61168c848285611643565b509392505050565b600082601f8301126116a9576116a861158d565b5b81356116b9848260208601611652565b91505092915050565b6116cb816113bd565b81146116d657600080fd5b50565b6000813590506116e8816116c2565b92915050565b6000806000806080858703121561170857611707611297565b5b600085013567ffffffffffffffff8111156117265761172561129c565b5b61173287828801611694565b945050602085013567ffffffffffffffff8111156117535761175261129c565b5b61175f87828801611694565b9350506040611770878288016116d9565b9250506060611781878288016112c2565b91505092959194509250565b7f4e487b7100000000000000000000000000000000000000000000000000000000600052602260045260246000fd5b600060028204905060018216806117d457607f821691505b602082108114156117e8576117e761178d565b5b50919050565b6000815190506117fd816112ab565b92915050565b60006020828403121561181957611818611297565b5b6000611827848285016117ee565b91505092915050565b7f4e487b7100000000000000000000000000000000000000000000000000000000600052603260045260246000fd5b7f4e487b7100000000000000000000000000000000000000000000000000000000600052601160045260246000fd5b6000611899826113ed565b91506118a4836113ed565b9250817f7fffffffffffffffffffffffffffffffffffffffffffffffffffffffffffffff038313600083121516156118df576118de61185f565b5b817f80000000000000000000000000000000000000000000000000000000000000000383126000831216156119175761191661185f565b5b828201905092915050565b600061192d826113ed565b9150611938836113ed565b9250827f8000000000000000000000000000000000000000000000000000000000000000018212600084121516156119735761197261185f565b5b827f7fffffffffffffffffffffffffffffffffffffffffffffffffffffffffffffff0182136000841216156119ab576119aa61185f565b5b828203905092915050565b7f4e6f7420656e6f7567682062616c616e63650000000000000000000000000000600082015250565b60006119ec60128361130f565b91506119f7826119b6565b602082019050919050565b60006020820190508181036000830152611a1b816119df565b9050919050565b60006080820190508181036000830152611a3c8187611364565b90508181036020830152611a508186611364565b9050611a5f60408301856113cf565b611a6c60608301846113de565b95945050505050565b6000611a80826112a1565b9150611a8b836112a1565b9250827fffffffffffffffffffffffffffffffffffffffffffffffffffffffffffffffff03821115611ac057611abf61185f565b5b828201905092915050565b6000611ad6826112a1565b9150611ae1836112a1565b9250817fffffffffffffffffffffffffffffffffffffffffffffffffffffffffffffffff0483118215151615611b1a57611b1961185f565b5b828202905092915050565b7f4e487b7100000000000000000000000000000000000000000000000000000000600052601260045260246000fd5b6000611b5f826112a1565b9150611b6a836112a1565b925082611b7a57611b79611b25565b5b828204905092915050565b6000604082019050611b9a60008301856113cf565b611ba760208301846113de565b9392505050565b600081519050611bbd81611521565b92915050565b600060208284031215611bd957611bd8611297565b5b6000611be784828501611bae565b9150509291505056fea264697066735822122097200df18037923beb680cf83691e7041b63a38df70d403bf3ca018e30269e3f64736f6c634300080a003360806040523480156200001157600080fd5b5060405162001d0638038062001d0683398181016040528101906200003791906200050a565b828281600390805190602001906200005192919062000282565b5080600490805190602001906200006a92919062000282565b505050620000ac3362000082620000f660201b60201c565b60ff16600a62000093919062000727565b83620000a0919062000778565b620000ff60201b60201c565b33600560006101000a81548173ffffffffffffffffffffffffffffffffffffffff021916908373ffffffffffffffffffffffffffffffffffffffff1602179055505050506200094c565b60006012905090565b600073ffffffffffffffffffffffffffffffffffffffff168273ffffffffffffffffffffffffffffffffffffffff16141562000172576040517f08c379a000000000000000000000000000000000000000000000000000000000815260040162000169906200083a565b60405180910390fd5b62000186600083836200027860201b60201c565b80600260008282546200019a91906200085c565b92505081905550806000808473ffffffffffffffffffffffffffffffffffffffff1673ffffffffffffffffffffffffffffffffffffffff1681526020019081526020016000206000828254620001f191906200085c565b925050819055508173ffffffffffffffffffffffffffffffffffffffff16600073ffffffffffffffffffffffffffffffffffffffff167fddf252ad1be2c89b69c2b068fc378daa952ba7f163c4a11628f55a4df523b3ef83604051620002589190620008ca565b60405180910390a362000274600083836200027d60201b60201c565b5050565b505050565b505050565b828054620002909062000916565b90600052602060002090601f016020900481019282620002b4576000855562000300565b82601f10620002cf57805160ff191683800117855562000300565b8280016001018555821562000300579182015b82811115620002ff578251825591602001919060010190620002e2565b5b5090506200030f919062000313565b5090565b5b808211156200032e57600081600090555060010162000314565b5090565b6000604051905090565b600080fd5b600080fd5b600080fd5b600080fd5b6000601f19601f8301169050919050565b7f4e487b7100000000000000000000000000000000000000000000000000000000600052604160045260246000fd5b6200039b8262000350565b810181811067ffffffffffffffff82111715620003bd57620003bc62000361565b5b80604052505050565b6000620003d262000332565b9050620003e0828262000390565b919050565b600067ffffffffffffffff82111562000403576200040262000361565b5b6200040e8262000350565b9050602081019050919050565b60005b838110156200043b5780820151818401526020810190506200041e565b838111156200044b576000848401525b50505050565b6000620004686200046284620003e5565b620003c6565b9050828152602081018484840111156200048757620004866200034b565b5b620004948482856200041b565b509392505050565b600082601f830112620004b457620004b362000346565b5b8151620004c684826020860162000451565b91505092915050565b6000819050919050565b620004e481620004cf565b8114620004f057600080fd5b50565b6000815190506200050481620004d9565b92915050565b6000806000606084860312156200052657620005256200033c565b5b600084015167ffffffffffffffff81111562000547576200054662000341565b5b62000555868287016200049c565b935050602084015167ffffffffffffffff81111562000579576200057862000341565b5b62000587868287016200049c565b92505060406200059a86828701620004f3565b9150509250925092565b7f4e487b7100000000000000000000000000000000000000000000000000000000600052601160045260246000fd5b60008160011c9050919050565b6000808291508390505b600185111562000632578086048111156200060a5762000609620005a4565b5b60018516156200061a5780820291505b80810290506200062a85620005d3565b9450620005ea565b94509492505050565b6000826200064d576001905062000720565b816200065d576000905062000720565b81600181146200067657600281146200068157620006b7565b600191505062000720565b60ff841115620006965762000695620005a4565b5b8360020a915084821115620006b057620006af620005a4565b5b5062000720565b5060208310610133831016604e8410600b8410161715620006f15782820a905083811115620006eb57620006ea620005a4565b5b62000720565b620007008484846001620005e0565b925090508184048111156200071a5762000719620005a4565b5b81810290505b9392505050565b60006200073482620004cf565b91506200074183620004cf565b9250620007707fffffffffffffffffffffffffffffffffffffffffffffffffffffffffffffffff84846200063b565b905092915050565b60006200078582620004cf565b91506200079283620004cf565b9250817fffffffffffffffffffffffffffffffffffffffffffffffffffffffffffffffff0483118215151615620007ce57620007cd620005a4565b5b828202905092915050565b600082825260208201905092915050565b7f45524332303a206d696e7420746f20746865207a65726f206164647265737300600082015250565b600062000822601f83620007d9565b91506200082f82620007ea565b602082019050919050565b60006020820190508181036000830152620008558162000813565b9050919050565b60006200086982620004cf565b91506200087683620004cf565b9250827fffffffffffffffffffffffffffffffffffffffffffffffffffffffffffffffff03821115620008ae57620008ad620005a4565b5b828201905092915050565b620008c481620004cf565b82525050565b6000602082019050620008e16000830184620008b9565b92915050565b7f4e487b7100000000000000000000000000000000000000000000000000000000600052602260045260246000fd5b600060028204905060018216806200092f57607f821691505b60208210811415620009465762000945620008e7565b5b50919050565b6113aa806200095c6000396000f3fe608060405234801561001057600080fd5b50600436106100a95760003560e01c80633950935111610071578063395093511461016857806370a082311461019857806395d89b41146101c8578063a457c2d7146101e6578063a9059cbb14610216578063dd62ed3e14610246576100a9565b806306fdde03146100ae578063095ea7b3146100cc57806318160ddd146100fc57806323b872dd1461011a578063313ce5671461014a575b600080fd5b6100b6610276565b6040516100c39190610c3e565b60405180910390f35b6100e660048036038101906100e19190610cf9565b610308565b6040516100f39190610d54565b60405180910390f35b610104610326565b6040516101119190610d7e565b60405180910390f35b610134600480360381019061012f9190610d99565b610330565b6040516101419190610d54565b60405180910390f35b610152610428565b60405161015f9190610e08565b60405180910390f35b610182600480360381019061017d9190610cf9565b610431565b60405161018f9190610d54565b60405180910390f35b6101b260048036038101906101ad9190610e23565b6104dd565b6040516101bf9190610d7e565b60405180910390f35b6101d0610525565b6040516101dd9190610c3e565b60405180910390f35b61020060048036038101906101fb9190610cf9565b6105b7565b60405161020d9190610d54565b60405180910390f35b610230600480360381019061022b9190610cf9565b6106a2565b60405161023d9190610d54565b60405180910390f35b610260600480360381019061025b9190610e50565b6106c0565b60405161026d9190610d7e565b60405180910390f35b60606003805461028590610ebf565b80601f01602080910402602001604051908101604052809291908181526020018280546102b190610ebf565b80156102fe5780601f106102d3576101008083540402835291602001916102fe565b820191906000526020600020905b8154815290600101906020018083116102e157829003601f168201915b5050505050905090565b600061031c610315610747565b848461074f565b6001905092915050565b6000600254905090565b600061033d84848461091a565b6000600160008673ffffffffffffffffffffffffffffffffffffffff1673ffffffffffffffffffffffffffffffffffffffff1681526020019081526020016000206000610388610747565b73ffffffffffffffffffffffffffffffffffffffff1673ffffffffffffffffffffffffffffffffffffffff16815260200190815260200160002054905082811015610408576040517f08c379a00000000000000000000000000000000000000000000000000000000081526004016103ff90610f63565b60405180910390fd5b61041c85610414610747565b85840361074f565b60019150509392505050565b60006012905090565b60006104d361043e610747565b84846001600061044c610747565b73ffffffffffffffffffffffffffffffffffffffff1673ffffffffffffffffffffffffffffffffffffffff16815260200190815260200160002060008873ffffffffffffffffffffffffffffffffffffffff1673ffffffffffffffffffffffffffffffffffffffff168152602001908152602001600020546104ce9190610fb2565b61074f565b6001905092915050565b60008060008373ffffffffffffffffffffffffffffffffffffffff1673ffffffffffffffffffffffffffffffffffffffff168152602001908152602001600020549050919050565b60606004805461053490610ebf565b80601f016020809104026020016040519081016040528092919081815260200182805461056090610ebf565b80156105ad5780601f10610582576101008083540402835291602001916105ad565b820191906000526020600020905b81548152906001019060200180831161059057829003601f168201915b5050505050905090565b600080600160006105c6610747565b73ffffffffffffffffffffffffffffffffffffffff1673ffffffffffffffffffffffffffffffffffffffff16815260200190815260200160002060008573ffffffffffffffffffffffffffffffffffffffff1673ffffffffffffffffffffffffffffffffffffffff16815260200190815260200160002054905082811015610683576040517f08c379a000000000000000000000000000000000000000000000000000000000815260040161067a9061107a565b60405180910390fd5b61069761068e610747565b8585840361074f565b600191505092915050565b60006106b66106af610747565b848461091a565b6001905092915050565b6000600160008473ffffffffffffffffffffffffffffffffffffffff1673ffffffffffffffffffffffffffffffffffffffff16815260200190815260200160002060008373ffffffffffffffffffffffffffffffffffffffff1673ffffffffffffffffffffffffffffffffffffffff16815260200190815260200160002054905092915050565b600033905090565b600073ffffffffffffffffffffffffffffffffffffffff168373ffffffffffffffffffffffffffffffffffffffff1614156107bf576040517f08c379a00000000000000000000000000000000000000000000000000000000081526004016107b69061110c565b60405180910390fd5b600073ffffffffffffffffffffffffffffffffffffffff168273ffffffffffffffffffffffffffffffffffffffff16141561082f576040517f08c379a00000000000000000000000000000000000000000000000000000000081526004016108269061119e565b60405180910390fd5b80600160008573ffffffffffffffffffffffffffffffffffffffff1673ffffffffffffffffffffffffffffffffffffffff16815260200190815260200160002060008473ffffffffffffffffffffffffffffffffffffffff1673ffffffffffffffffffffffffffffffffffffffff168152602001908152602001600020819055508173ffffffffffffffffffffffffffffffffffffffff168373ffffffffffffffffffffffffffffffffffffffff167f8c5be1e5ebec7d5bd14f71427d1e84f3dd0314c0f7b2291e5b200ac8c7c3b9258360405161090d9190610d7e565b60405180910390a3505050565b600073ffffffffffffffffffffffffffffffffffffffff168373ffffffffffffffffffffffffffffffffffffffff16141561098a576040517f08c379a000000000000000000000000000000000000000000000000000000000815260040161098190611230565b60405180910390fd5b600073ffffffffffffffffffffffffffffffffffffffff168273ffffffffffffffffffffffffffffffffffffffff1614156109fa576040517f08c379a00000000000000000000000000000000000000000000000000000000081526004016109f1906112c2565b60405180910390fd5b610a05838383610b9b565b60008060008573ffffffffffffffffffffffffffffffffffffffff1673ffffffffffffffffffffffffffffffffffffffff16815260200190815260200160002054905081811015610a8b576040517f08c379a0000000000000000000000000000000000000000000000000000000008152600401610a8290611354565b60405180910390fd5b8181036000808673ffffffffffffffffffffffffffffffffffffffff1673ffffffffffffffffffffffffffffffffffffffff16815260200190815260200160002081905550816000808573ffffffffffffffffffffffffffffffffffffffff1673ffffffffffffffffffffffffffffffffffffffff1681526020019081526020016000206000828254610b1e9190610fb2565b925050819055508273ffffffffffffffffffffffffffffffffffffffff168473ffffffffffffffffffffffffffffffffffffffff167fddf252ad1be2c89b69c2b068fc378daa952ba7f163c4a11628f55a4df523b3ef84604051610b829190610d7e565b60405180910390a3610b95848484610ba0565b50505050565b505050565b505050565b600081519050919050565b600082825260208201905092915050565b60005b83811015610bdf578082015181840152602081019050610bc4565b83811115610bee576000848401525b50505050565b6000601f19601f8301169050919050565b6000610c1082610ba5565b610c1a8185610bb0565b9350610c2a818560208601610bc1565b610c3381610bf4565b840191505092915050565b60006020820190508181036000830152610c588184610c05565b905092915050565b600080fd5b600073ffffffffffffffffffffffffffffffffffffffff82169050919050565b6000610c9082610c65565b9050919050565b610ca081610c85565b8114610cab57600080fd5b50565b600081359050610cbd81610c97565b92915050565b6000819050919050565b610cd681610cc3565b8114610ce157600080fd5b50565b600081359050610cf381610ccd565b92915050565b60008060408385031215610d1057610d0f610c60565b5b6000610d1e85828601610cae565b9250506020610d2f85828601610ce4565b9150509250929050565b60008115159050919050565b610d4e81610d39565b82525050565b6000602082019050610d696000830184610d45565b92915050565b610d7881610cc3565b82525050565b6000602082019050610d936000830184610d6f565b92915050565b600080600060608486031215610db257610db1610c60565b5b6000610dc086828701610cae565b9350506020610dd186828701610cae565b9250506040610de286828701610ce4565b9150509250925092565b600060ff82169050919050565b610e0281610dec565b82525050565b6000602082019050610e1d6000830184610df9565b92915050565b600060208284031215610e3957610e38610c60565b5b6000610e4784828501610cae565b91505092915050565b60008060408385031215610e6757610e66610c60565b5b6000610e7585828601610cae565b9250506020610e8685828601610cae565b9150509250929050565b7f4e487b7100000000000000000000000000000000000000000000000000000000600052602260045260246000fd5b60006002820490506001821680610ed757607f821691505b60208210811415610eeb57610eea610e90565b5b50919050565b7f45524332303a207472616e7366657220616d6f756e742065786365656473206160008201527f6c6c6f77616e6365000000000000000000000000000000000000000000000000602082015250565b6000610f4d602883610bb0565b9150610f5882610ef1565b604082019050919050565b60006020820190508181036000830152610f7c81610f40565b9050919050565b7f4e487b7100000000000000000000000000000000000000000000000000000000600052601160045260246000fd5b6000610fbd82610cc3565b9150610fc883610cc3565b9250827fffffffffffffffffffffffffffffffffffffffffffffffffffffffffffffffff03821115610ffd57610ffc610f83565b5b828201905092915050565b7f45524332303a2064656372656173656420616c6c6f77616e63652062656c6f7760008201527f207a65726f000000000000000000000000000000000000000000000000000000602082015250565b6000611064602583610bb0565b915061106f82611008565b604082019050919050565b6000602082019050818103600083015261109381611057565b9050919050565b7f45524332303a20617070726f76652066726f6d20746865207a65726f2061646460008201527f7265737300000000000000000000000000000000000000000000000000000000602082015250565b60006110f6602483610bb0565b91506111018261109a565b604082019050919050565b60006020820190508181036000830152611125816110e9565b9050919050565b7f45524332303a20617070726f766520746f20746865207a65726f20616464726560008201527f7373000000000000000000000000000000000000000000000000000000000000602082015250565b6000611188602283610bb0565b91506111938261112c565b604082019050919050565b600060208201905081810360008301526111b78161117b565b9050919050565b7f45524332303a207472616e736665722066726f6d20746865207a65726f20616460008201527f6472657373000000000000000000000000000000000000000000000000000000602082015250565b600061121a602583610bb0565b9150611225826111be565b604082019050919050565b600060208201905081810360008301526112498161120d565b9050919050565b7f45524332303a207472616e7366657220746f20746865207a65726f206164647260008201527f6573730000000000000000000000000000000000000000000000000000000000602082015250565b60006112ac602383610bb0565b91506112b782611250565b604082019050919050565b600060208201905081810360008301526112db8161129f565b9050919050565b7f45524332303a207472616e7366657220616d6f756e742065786365656473206260008201527f616c616e63650000000000000000000000000000000000000000000000000000602082015250565b600061133e602683610bb0565b9150611349826112e2565b604082019050919050565b6000602082019050818103600083015261136d81611331565b905091905056fea2646970667358221220b6fe0c2344ce3899a7280d4dc3fad2f097139603c4e15ac31bf0ede9d83efbd564736f6c634300080a0033a2646970667358221220cdceaae21430e3a7858fdafa9fd6c295cbafbec9fb590661f103cc945aca135664736f6c634300080a003360806040523480156200001157600080fd5b5060405162001d0638038062001d0683398181016040528101906200003791906200050a565b828281600390805190602001906200005192919062000282565b5080600490805190602001906200006a92919062000282565b505050620000ac3362000082620000f660201b60201c565b60ff16600a62000093919062000727565b83620000a0919062000778565b620000ff60201b60201c565b33600560006101000a81548173ffffffffffffffffffffffffffffffffffffffff021916908373ffffffffffffffffffffffffffffffffffffffff1602179055505050506200094c565b60006012905090565b600073ffffffffffffffffffffffffffffffffffffffff168273ffffffffffffffffffffffffffffffffffffffff16141562000172576040517f08c379a000000000000000000000000000000000000000000000000000000000815260040162000169906200083a565b60405180910390fd5b62000186600083836200027860201b60201c565b80600260008282546200019a91906200085c565b92505081905550806000808473ffffffffffffffffffffffffffffffffffffffff1673ffffffffffffffffffffffffffffffffffffffff1681526020019081526020016000206000828254620001f191906200085c565b925050819055508173ffffffffffffffffffffffffffffffffffffffff16600073ffffffffffffffffffffffffffffffffffffffff167fddf252ad1be2c89b69c2b068fc378daa952ba7f163c4a11628f55a4df523b3ef83604051620002589190620008ca565b60405180910390a362000274600083836200027d60201b60201c565b5050565b505050565b505050565b828054620002909062000916565b90600052602060002090601f016020900481019282620002b4576000855562000300565b82601f10620002cf57805160ff191683800117855562000300565b8280016001018555821562000300579182015b82811115620002ff578251825591602001919060010190620002e2565b5b5090506200030f919062000313565b5090565b5b808211156200032e57600081600090555060010162000314565b5090565b6000604051905090565b600080fd5b600080fd5b600080fd5b600080fd5b6000601f19601f8301169050919050565b7f4e487b7100000000000000000000000000000000000000000000000000000000600052604160045260246000fd5b6200039b8262000350565b810181811067ffffffffffffffff82111715620003bd57620003bc62000361565b5b80604052505050565b6000620003d262000332565b9050620003e0828262000390565b919050565b600067ffffffffffffffff82111562000403576200040262000361565b5b6200040e8262000350565b9050602081019050919050565b60005b838110156200043b5780820151818401526020810190506200041e565b838111156200044b576000848401525b50505050565b6000620004686200046284620003e5565b620003c6565b9050828152602081018484840111156200048757620004866200034b565b5b620004948482856200041b565b509392505050565b600082601f830112620004b457620004b362000346565b5b8151620004c684826020860162000451565b91505092915050565b6000819050919050565b620004e481620004cf565b8114620004f057600080fd5b50565b6000815190506200050481620004d9565b92915050565b6000806000606084860312156200052657620005256200033c565b5b600084015167ffffffffffffffff81111562000547576200054662000341565b5b62000555868287016200049c565b935050602084015167ffffffffffffffff81111562000579576200057862000341565b5b62000587868287016200049c565b92505060406200059a86828701620004f3565b9150509250925092565b7f4e487b7100000000000000000000000000000000000000000000000000000000600052601160045260246000fd5b60008160011c9050919050565b6000808291508390505b600185111562000632578086048111156200060a5762000609620005a4565b5b60018516156200061a5780820291505b80810290506200062a85620005d3565b9450620005ea565b94509492505050565b6000826200064d576001905062000720565b816200065d576000905062000720565b81600181146200067657600281146200068157620006b7565b600191505062000720565b60ff841115620006965762000695620005a4565b5b8360020a915084821115620006b057620006af620005a4565b5b5062000720565b5060208310610133831016604e8410600b8410161715620006f15782820a905083811115620006eb57620006ea620005a4565b5b62000720565b620007008484846001620005e0565b925090508184048111156200071a5762000719620005a4565b5b81810290505b9392505050565b60006200073482620004cf565b91506200074183620004cf565b9250620007707fffffffffffffffffffffffffffffffffffffffffffffffffffffffffffffffff84846200063b565b905092915050565b60006200078582620004cf565b91506200079283620004cf565b9250817fffffffffffffffffffffffffffffffffffffffffffffffffffffffffffffffff0483118215151615620007ce57620007cd620005a4565b5b828202905092915050565b600082825260208201905092915050565b7f45524332303a206d696e7420746f20746865207a65726f206164647265737300600082015250565b600062000822601f83620007d9565b91506200082f82620007ea565b602082019050919050565b60006020820190508181036000830152620008558162000813565b9050919050565b60006200086982620004cf565b91506200087683620004cf565b9250827fffffffffffffffffffffffffffffffffffffffffffffffffffffffffffffffff03821115620008ae57620008ad620005a4565b5b828201905092915050565b620008c481620004cf565b82525050565b6000602082019050620008e16000830184620008b9565b92915050565b7f4e487b7100000000000000000000000000000000000000000000000000000000600052602260045260246000fd5b600060028204905060018216806200092f57607f821691505b60208210811415620009465762000945620008e7565b5b50919050565b6113aa806200095c6000396000f3fe608060405234801561001057600080fd5b50600436106100a95760003560e01c80633950935111610071578063395093511461016857806370a082311461019857806395d89b41146101c8578063a457c2d7146101e6578063a9059cbb14610216578063dd62ed3e14610246576100a9565b806306fdde03146100ae578063095ea7b3146100cc57806318160ddd146100fc57806323b872dd1461011a578063313ce5671461014a575b600080fd5b6100b6610276565b6040516100c39190610c3e565b60405180910390f35b6100e660048036038101906100e19190610cf9565b610308565b6040516100f39190610d54565b60405180910390f35b610104610326565b6040516101119190610d7e565b60405180910390f35b610134600480360381019061012f9190610d99565b610330565b6040516101419190610d54565b60405180910390f35b610152610428565b60405161015f9190610e08565b60405180910390f35b610182600480360381019061017d9190610cf9565b610431565b60405161018f9190610d54565b60405180910390f35b6101b260048036038101906101ad9190610e23565b6104dd565b6040516101bf9190610d7e565b60405180910390f35b6101d0610525565b6040516101dd9190610c3e565b60405180910390f35b61020060048036038101906101fb9190610cf9565b6105b7565b60405161020d9190610d54565b60405180910390f35b610230600480360381019061022b9190610cf9565b6106a2565b60405161023d9190610d54565b60405180910390f35b610260600480360381019061025b9190610e50565b6106c0565b60405161026d9190610d7e565b60405180910390f35b60606003805461028590610ebf565b80601f01602080910402602001604051908101604052809291908181526020018280546102b190610ebf565b80156102fe5780601f106102d3576101008083540402835291602001916102fe565b820191906000526020600020905b8154815290600101906020018083116102e157829003601f168201915b5050505050905090565b600061031c610315610747565b848461074f565b6001905092915050565b6000600254905090565b600061033d84848461091a565b6000600160008673ffffffffffffffffffffffffffffffffffffffff1673ffffffffffffffffffffffffffffffffffffffff1681526020019081526020016000206000610388610747565b73ffffffffffffffffffffffffffffffffffffffff1673ffffffffffffffffffffffffffffffffffffffff16815260200190815260200160002054905082811015610408576040517f08c379a00000000000000000000000000000000000000000000000000000000081526004016103ff90610f63565b60405180910390fd5b61041c85610414610747565b85840361074f565b60019150509392505050565b60006012905090565b60006104d361043e610747565b84846001600061044c610747565b73ffffffffffffffffffffffffffffffffffffffff1673ffffffffffffffffffffffffffffffffffffffff16815260200190815260200160002060008873ffffffffffffffffffffffffffffffffffffffff1673ffffffffffffffffffffffffffffffffffffffff168152602001908152602001600020546104ce9190610fb2565b61074f565b6001905092915050565b60008060008373ffffffffffffffffffffffffffffffffffffffff1673ffffffffffffffffffffffffffffffffffffffff168152602001908152602001600020549050919050565b60606004805461053490610ebf565b80601f016020809104026020016040519081016040528092919081815260200182805461056090610ebf565b80156105ad5780601f10610582576101008083540402835291602001916105ad565b820191906000526020600020905b81548152906001019060200180831161059057829003601f168201915b5050505050905090565b600080600160006105c6610747565b73ffffffffffffffffffffffffffffffffffffffff1673ffffffffffffffffffffffffffffffffffffffff16815260200190815260200160002060008573ffffffffffffffffffffffffffffffffffffffff1673ffffffffffffffffffffffffffffffffffffffff16815260200190815260200160002054905082811015610683576040517f08c379a000000000000000000000000000000000000000000000000000000000815260040161067a9061107a565b60405180910390fd5b61069761068e610747565b8585840361074f565b600191505092915050565b60006106b66106af610747565b848461091a565b6001905092915050565b6000600160008473ffffffffffffffffffffffffffffffffffffffff1673ffffffffffffffffffffffffffffffffffffffff16815260200190815260200160002060008373ffffffffffffffffffffffffffffffffffffffff1673ffffffffffffffffffffffffffffffffffffffff16815260200190815260200160002054905092915050565b600033905090565b600073ffffffffffffffffffffffffffffffffffffffff168373ffffffffffffffffffffffffffffffffffffffff1614156107bf576040517f08c379a00000000000000000000000000000000000000000000000000000000081526004016107b69061110c565b60405180910390fd5b600073ffffffffffffffffffffffffffffffffffffffff168273ffffffffffffffffffffffffffffffffffffffff16141561082f576040517f08c379a00000000000000000000000000000000000000000000000000000000081526004016108269061119e565b60405180910390fd5b80600160008573ffffffffffffffffffffffffffffffffffffffff1673ffffffffffffffffffffffffffffffffffffffff16815260200190815260200160002060008473ffffffffffffffffffffffffffffffffffffffff1673ffffffffffffffffffffffffffffffffffffffff168152602001908152602001600020819055508173ffffffffffffffffffffffffffffffffffffffff168373ffffffffffffffffffffffffffffffffffffffff167f8c5be1e5ebec7d5bd14f71427d1e84f3dd0314c0f7b2291e5b200ac8c7c3b9258360405161090d9190610d7e565b60405180910390a3505050565b600073ffffffffffffffffffffffffffffffffffffffff168373ffffffffffffffffffffffffffffffffffffffff16141561098a576040517f08c379a000000000000000000000000000000000000000000000000000000000815260040161098190611230565b60405180910390fd5b600073ffffffffffffffffffffffffffffffffffffffff168273ffffffffffffffffffffffffffffffffffffffff1614156109fa576040517f08c379a00000000000000000000000000000000000000000000000000000000081526004016109f1906112c2565b60405180910390fd5b610a05838383610b9b565b60008060008573ffffffffffffffffffffffffffffffffffffffff1673ffffffffffffffffffffffffffffffffffffffff16815260200190815260200160002054905081811015610a8b576040517f08c379a0000000000000000000000000000000000000000000000000000000008152600401610a8290611354565b60405180910390fd5b8181036000808673ffffffffffffffffffffffffffffffffffffffff1673ffffffffffffffffffffffffffffffffffffffff16815260200190815260200160002081905550816000808573ffffffffffffffffffffffffffffffffffffffff1673ffffffffffffffffffffffffffffffffffffffff1681526020019081526020016000206000828254610b1e9190610fb2565b925050819055508273ffffffffffffffffffffffffffffffffffffffff168473ffffffffffffffffffffffffffffffffffffffff167fddf252ad1be2c89b69c2b068fc378daa952ba7f163c4a11628f55a4df523b3ef84604051610b829190610d7e565b60405180910390a3610b95848484610ba0565b50505050565b505050565b505050565b600081519050919050565b600082825260208201905092915050565b60005b83811015610bdf578082015181840152602081019050610bc4565b83811115610bee576000848401525b50505050565b6000601f19601f8301169050919050565b6000610c1082610ba5565b610c1a8185610bb0565b9350610c2a818560208601610bc1565b610c3381610bf4565b840191505092915050565b60006020820190508181036000830152610c588184610c05565b905092915050565b600080fd5b600073ffffffffffffffffffffffffffffffffffffffff82169050919050565b6000610c9082610c65565b9050919050565b610ca081610c85565b8114610cab57600080fd5b50565b600081359050610cbd81610c97565b92915050565b6000819050919050565b610cd681610cc3565b8114610ce157600080fd5b50565b600081359050610cf381610ccd565b92915050565b60008060408385031215610d1057610d0f610c60565b5b6000610d1e85828601610cae565b9250506020610d2f85828601610ce4565b9150509250929050565b60008115159050919050565b610d4e81610d39565b82525050565b6000602082019050610d696000830184610d45565b92915050565b610d7881610cc3565b82525050565b6000602082019050610d936000830184610d6f565b92915050565b600080600060608486031215610db257610db1610c60565b5b6000610dc086828701610cae565b9350506020610dd186828701610cae565b9250506040610de286828701610ce4565b9150509250925092565b600060ff82169050919050565b610e0281610dec565b82525050565b6000602082019050610e1d6000830184610df9565b92915050565b600060208284031215610e3957610e38610c60565b5b6000610e4784828501610cae565b91505092915050565b60008060408385031215610e6757610e66610c60565b5b6000610e7585828601610cae565b9250506020610e8685828601610cae565b9150509250929050565b7f4e487b7100000000000000000000000000000000000000000000000000000000600052602260045260246000fd5b60006002820490506001821680610ed757607f821691505b60208210811415610eeb57610eea610e90565b5b50919050565b7f45524332303a207472616e7366657220616d6f756e742065786365656473206160008201527f6c6c6f77616e6365000000000000000000000000000000000000000000000000602082015250565b6000610f4d602883610bb0565b9150610f5882610ef1565b604082019050919050565b60006020820190508181036000830152610f7c81610f40565b9050919050565b7f4e487b7100000000000000000000000000000000000000000000000000000000600052601160045260246000fd5b6000610fbd82610cc3565b9150610fc883610cc3565b9250827fffffffffffffffffffffffffffffffffffffffffffffffffffffffffffffffff03821115610ffd57610ffc610f83565b5b828201905092915050565b7f45524332303a2064656372656173656420616c6c6f77616e63652062656c6f7760008201527f207a65726f000000000000000000000000000000000000000000000000000000602082015250565b6000611064602583610bb0565b915061106f82611008565b604082019050919050565b6000602082019050818103600083015261109381611057565b9050919050565b7f45524332303a20617070726f76652066726f6d20746865207a65726f2061646460008201527f7265737300000000000000000000000000000000000000000000000000000000602082015250565b60006110f6602483610bb0565b91506111018261109a565b604082019050919050565b60006020820190508181036000830152611125816110e9565b9050919050565b7f45524332303a20617070726f766520746f20746865207a65726f20616464726560008201527f7373000000000000000000000000000000000000000000000000000000000000602082015250565b6000611188602283610bb0565b91506111938261112c565b604082019050919050565b600060208201905081810360008301526111b78161117b565b9050919050565b7f45524332303a207472616e736665722066726f6d20746865207a65726f20616460008201527f6472657373000000000000000000000000000000000000000000000000000000602082015250565b600061121a602583610bb0565b9150611225826111be565b604082019050919050565b600060208201905081810360008301526112498161120d565b9050919050565b7f45524332303a207472616e7366657220746f20746865207a65726f206164647260008201527f6573730000000000000000000000000000000000000000000000000000000000602082015250565b60006112ac602383610bb0565b91506112b782611250565b604082019050919050565b600060208201905081810360008301526112db8161129f565b9050919050565b7f45524332303a207472616e7366657220616d6f756e742065786365656473206260008201527f616c616e63650000000000000000000000000000000000000000000000000000602082015250565b600061133e602683610bb0565b9150611349826112e2565b604082019050919050565b6000602082019050818103600083015261136d81611331565b905091905056fea2646970667358221220b6fe0c2344ce3899a7280d4dc3fad2f097139603c4e15ac31bf0ede9d83efbd564736f6c634300080a0033a264697066735822122031dec574ed71eeff46d19628a19a242d320885b53c4d866bb535871805a4fd7c64736f6c634300080a003360806040523480156200001157600080fd5b5060405162001d0638038062001d0683398181016040528101906200003791906200050a565b828281600390805190602001906200005192919062000282565b5080600490805190602001906200006a92919062000282565b505050620000ac3362000082620000f660201b60201c565b60ff16600a62000093919062000727565b83620000a0919062000778565b620000ff60201b60201c565b33600560006101000a81548173ffffffffffffffffffffffffffffffffffffffff021916908373ffffffffffffffffffffffffffffffffffffffff1602179055505050506200094c565b60006012905090565b600073ffffffffffffffffffffffffffffffffffffffff168273ffffffffffffffffffffffffffffffffffffffff16141562000172576040517f08c379a000000000000000000000000000000000000000000000000000000000815260040162000169906200083a565b60405180910390fd5b62000186600083836200027860201b60201c565b80600260008282546200019a91906200085c565b92505081905550806000808473ffffffffffffffffffffffffffffffffffffffff1673ffffffffffffffffffffffffffffffffffffffff1681526020019081526020016000206000828254620001f191906200085c565b925050819055508173ffffffffffffffffffffffffffffffffffffffff16600073ffffffffffffffffffffffffffffffffffffffff167fddf252ad1be2c89b69c2b068fc378daa952ba7f163c4a11628f55a4df523b3ef83604051620002589190620008ca565b60405180910390a362000274600083836200027d60201b60201c565b5050565b505050565b505050565b828054620002909062000916565b90600052602060002090601f016020900481019282620002b4576000855562000300565b82601f10620002cf57805160ff191683800117855562000300565b8280016001018555821562000300579182015b82811115620002ff578251825591602001919060010190620002e2565b5b5090506200030f919062000313565b5090565b5b808211156200032e57600081600090555060010162000314565b5090565b6000604051905090565b600080fd5b600080fd5b600080fd5b600080fd5b6000601f19601f8301169050919050565b7f4e487b7100000000000000000000000000000000000000000000000000000000600052604160045260246000fd5b6200039b8262000350565b810181811067ffffffffffffffff82111715620003bd57620003bc62000361565b5b80604052505050565b6000620003d262000332565b9050620003e0828262000390565b919050565b600067ffffffffffffffff82111562000403576200040262000361565b5b6200040e8262000350565b9050602081019050919050565b60005b838110156200043b5780820151818401526020810190506200041e565b838111156200044b576000848401525b50505050565b6000620004686200046284620003e5565b620003c6565b9050828152602081018484840111156200048757620004866200034b565b5b620004948482856200041b565b509392505050565b600082601f830112620004b457620004b362000346565b5b8151620004c684826020860162000451565b91505092915050565b6000819050919050565b620004e481620004cf565b8114620004f057600080fd5b50565b6000815190506200050481620004d9565b92915050565b6000806000606084860312156200052657620005256200033c565b5b600084015167ffffffffffffffff81111562000547576200054662000341565b5b62000555868287016200049c565b935050602084015167ffffffffffffffff81111562000579576200057862000341565b5b62000587868287016200049c565b92505060406200059a86828701620004f3565b9150509250925092565b7f4e487b7100000000000000000000000000000000000000000000000000000000600052601160045260246000fd5b60008160011c9050919050565b6000808291508390505b600185111562000632578086048111156200060a5762000609620005a4565b5b60018516156200061a5780820291505b80810290506200062a85620005d3565b9450620005ea565b94509492505050565b6000826200064d576001905062000720565b816200065d576000905062000720565b81600181146200067657600281146200068157620006b7565b600191505062000720565b60ff841115620006965762000695620005a4565b5b8360020a915084821115620006b057620006af620005a4565b5b5062000720565b5060208310610133831016604e8410600b8410161715620006f15782820a905083811115620006eb57620006ea620005a4565b5b62000720565b620007008484846001620005e0565b925090508184048111156200071a5762000719620005a4565b5b81810290505b9392505050565b60006200073482620004cf565b91506200074183620004cf565b9250620007707fffffffffffffffffffffffffffffffffffffffffffffffffffffffffffffffff84846200063b565b905092915050565b60006200078582620004cf565b91506200079283620004cf565b9250817fffffffffffffffffffffffffffffffffffffffffffffffffffffffffffffffff0483118215151615620007ce57620007cd620005a4565b5b828202905092915050565b600082825260208201905092915050565b7f45524332303a206d696e7420746f20746865207a65726f206164647265737300600082015250565b600062000822601f83620007d9565b91506200082f82620007ea565b602082019050919050565b60006020820190508181036000830152620008558162000813565b9050919050565b60006200086982620004cf565b91506200087683620004cf565b9250827fffffffffffffffffffffffffffffffffffffffffffffffffffffffffffffffff03821115620008ae57620008ad620005a4565b5b828201905092915050565b620008c481620004cf565b82525050565b6000602082019050620008e16000830184620008b9565b92915050565b7f4e487b7100000000000000000000000000000000000000000000000000000000600052602260045260246000fd5b600060028204905060018216806200092f57607f821691505b60208210811415620009465762000945620008e7565b5b50919050565b6113aa806200095c6000396000f3fe608060405234801561001057600080fd5b50600436106100a95760003560e01c80633950935111610071578063395093511461016857806370a082311461019857806395d89b41146101c8578063a457c2d7146101e6578063a9059cbb14610216578063dd62ed3e14610246576100a9565b806306fdde03146100ae578063095ea7b3146100cc57806318160ddd146100fc57806323b872dd1461011a578063313ce5671461014a575b600080fd5b6100b6610276565b6040516100c39190610c3e565b60405180910390f35b6100e660048036038101906100e19190610cf9565b610308565b6040516100f39190610d54565b60405180910390f35b610104610326565b6040516101119190610d7e565b60405180910390f35b610134600480360381019061012f9190610d99565b610330565b6040516101419190610d54565b60405180910390f35b610152610428565b60405161015f9190610e08565b60405180910390f35b610182600480360381019061017d9190610cf9565b610431565b60405161018f9190610d54565b60405180910390f35b6101b260048036038101906101ad9190610e23565b6104dd565b6040516101bf9190610d7e565b60405180910390f35b6101d0610525565b6040516101dd9190610c3e565b60405180910390f35b61020060048036038101906101fb9190610cf9565b6105b7565b60405161020d9190610d54565b60405180910390f35b610230600480360381019061022b9190610cf9565b6106a2565b60405161023d9190610d54565b60405180910390f35b610260600480360381019061025b9190610e50565b6106c0565b60405161026d9190610d7e565b60405180910390f35b60606003805461028590610ebf565b80601f01602080910402602001604051908101604052809291908181526020018280546102b190610ebf565b80156102fe5780601f106102d3576101008083540402835291602001916102fe565b820191906000526020600020905b8154815290600101906020018083116102e157829003601f168201915b5050505050905090565b600061031c610315610747565b848461074f565b6001905092915050565b6000600254905090565b600061033d84848461091a565b6000600160008673ffffffffffffffffffffffffffffffffffffffff1673ffffffffffffffffffffffffffffffffffffffff1681526020019081526020016000206000610388610747565b73ffffffffffffffffffffffffffffffffffffffff1673ffffffffffffffffffffffffffffffffffffffff16815260200190815260200160002054905082811015610408576040517f08c379a00000000000000000000000000000000000000000000000000000000081526004016103ff90610f63565b60405180910390fd5b61041c85610414610747565b85840361074f565b60019150509392505050565b60006012905090565b60006104d361043e610747565b84846001600061044c610747565b73ffffffffffffffffffffffffffffffffffffffff1673ffffffffffffffffffffffffffffffffffffffff16815260200190815260200160002060008873ffffffffffffffffffffffffffffffffffffffff1673ffffffffffffffffffffffffffffffffffffffff168152602001908152602001600020546104ce9190610fb2565b61074f565b6001905092915050565b60008060008373ffffffffffffffffffffffffffffffffffffffff1673ffffffffffffffffffffffffffffffffffffffff168152602001908152602001600020549050919050565b60606004805461053490610ebf565b80601f016020809104026020016040519081016040528092919081815260200182805461056090610ebf565b80156105ad5780601f10610582576101008083540402835291602001916105ad565b820191906000526020600020905b81548152906001019060200180831161059057829003601f168201915b5050505050905090565b600080600160006105c6610747565b73ffffffffffffffffffffffffffffffffffffffff1673ffffffffffffffffffffffffffffffffffffffff16815260200190815260200160002060008573ffffffffffffffffffffffffffffffffffffffff1673ffffffffffffffffffffffffffffffffffffffff16815260200190815260200160002054905082811015610683576040517f08c379a000000000000000000000000000000000000000000000000000000000815260040161067a9061107a565b60405180910390fd5b61069761068e610747565b8585840361074f565b600191505092915050565b60006106b66106af610747565b848461091a565b6001905092915050565b6000600160008473ffffffffffffffffffffffffffffffffffffffff1673ffffffffffffffffffffffffffffffffffffffff16815260200190815260200160002060008373ffffffffffffffffffffffffffffffffffffffff1673ffffffffffffffffffffffffffffffffffffffff16815260200190815260200160002054905092915050565b600033905090565b600073ffffffffffffffffffffffffffffffffffffffff168373ffffffffffffffffffffffffffffffffffffffff1614156107bf576040517f08c379a00000000000000000000000000000000000000000000000000000000081526004016107b69061110c565b60405180910390fd5b600073ffffffffffffffffffffffffffffffffffffffff168273ffffffffffffffffffffffffffffffffffffffff16141561082f576040517f08c379a00000000000000000000000000000000000000000000000000000000081526004016108269061119e565b60405180910390fd5b80600160008573ffffffffffffffffffffffffffffffffffffffff1673ffffffffffffffffffffffffffffffffffffffff16815260200190815260200160002060008473ffffffffffffffffffffffffffffffffffffffff1673ffffffffffffffffffffffffffffffffffffffff168152602001908152602001600020819055508173ffffffffffffffffffffffffffffffffffffffff168373ffffffffffffffffffffffffffffffffffffffff167f8c5be1e5ebec7d5bd14f71427d1e84f3dd0314c0f7b2291e5b200ac8c7c3b9258360405161090d9190610d7e565b60405180910390a3505050565b600073ffffffffffffffffffffffffffffffffffffffff168373ffffffffffffffffffffffffffffffffffffffff16141561098a576040517f08c379a000000000000000000000000000000000000000000000000000000000815260040161098190611230565b60405180910390fd5b600073ffffffffffffffffffffffffffffffffffffffff168273ffffffffffffffffffffffffffffffffffffffff1614156109fa576040517f08c379a00000000000000000000000000000000000000000000000000000000081526004016109f1906112c2565b60405180910390fd5b610a05838383610b9b565b60008060008573ffffffffffffffffffffffffffffffffffffffff1673ffffffffffffffffffffffffffffffffffffffff16815260200190815260200160002054905081811015610a8b576040517f08c379a0000000000000000000000000000000000000000000000000000000008152600401610a8290611354565b60405180910390fd5b8181036000808673ffffffffffffffffffffffffffffffffffffffff1673ffffffffffffffffffffffffffffffffffffffff16815260200190815260200160002081905550816000808573ffffffffffffffffffffffffffffffffffffffff1673ffffffffffffffffffffffffffffffffffffffff1681526020019081526020016000206000828254610b1e9190610fb2565b925050819055508273ffffffffffffffffffffffffffffffffffffffff168473ffffffffffffffffffffffffffffffffffffffff167fddf252ad1be2c89b69c2b068fc378daa952ba7f163c4a11628f55a4df523b3ef84604051610b829190610d7e565b60405180910390a3610b95848484610ba0565b50505050565b505050565b505050565b600081519050919050565b600082825260208201905092915050565b60005b83811015610bdf578082015181840152602081019050610bc4565b83811115610bee576000848401525b50505050565b6000601f19601f8301169050919050565b6000610c1082610ba5565b610c1a8185610bb0565b9350610c2a818560208601610bc1565b610c3381610bf4565b840191505092915050565b60006020820190508181036000830152610c588184610c05565b905092915050565b600080fd5b600073ffffffffffffffffffffffffffffffffffffffff82169050919050565b6000610c9082610c65565b9050919050565b610ca081610c85565b8114610cab57600080fd5b50565b600081359050610cbd81610c97565b92915050565b6000819050919050565b610cd681610cc3565b8114610ce157600080fd5b50565b600081359050610cf381610ccd565b92915050565b60008060408385031215610d1057610d0f610c60565b5b6000610d1e85828601610cae565b9250506020610d2f85828601610ce4565b9150509250929050565b60008115159050919050565b610d4e81610d39565b82525050565b6000602082019050610d696000830184610d45565b92915050565b610d7881610cc3565b82525050565b6000602082019050610d936000830184610d6f565b92915050565b600080600060608486031215610db257610db1610c60565b5b6000610dc086828701610cae565b9350506020610dd186828701610cae565b9250506040610de286828701610ce4565b9150509250925092565b600060ff82169050919050565b610e0281610dec565b82525050565b6000602082019050610e1d6000830184610df9565b92915050565b600060208284031215610e3957610e38610c60565b5b6000610e4784828501610cae565b91505092915050565b60008060408385031215610e6757610e66610c60565b5b6000610e7585828601610cae565b9250506020610e8685828601610cae565b9150509250929050565b7f4e487b7100000000000000000000000000000000000000000000000000000000600052602260045260246000fd5b60006002820490506001821680610ed757607f821691505b60208210811415610eeb57610eea610e90565b5b50919050565b7f45524332303a207472616e7366657220616d6f756e742065786365656473206160008201527f6c6c6f77616e6365000000000000000000000000000000000000000000000000602082015250565b6000610f4d602883610bb0565b9150610f5882610ef1565b604082019050919050565b60006020820190508181036000830152610f7c81610f40565b9050919050565b7f4e487b7100000000000000000000000000000000000000000000000000000000600052601160045260246000fd5b6000610fbd82610cc3565b9150610fc883610cc3565b9250827fffffffffffffffffffffffffffffffffffffffffffffffffffffffffffffffff03821115610ffd57610ffc610f83565b5b828201905092915050565b7f45524332303a2064656372656173656420616c6c6f77616e63652062656c6f7760008201527f207a65726f000000000000000000000000000000000000000000000000000000602082015250565b6000611064602583610bb0565b915061106f82611008565b604082019050919050565b6000602082019050818103600083015261109381611057565b9050919050565b7f45524332303a20617070726f76652066726f6d20746865207a65726f2061646460008201527f7265737300000000000000000000000000000000000000000000000000000000602082015250565b60006110f6602483610bb0565b91506111018261109a565b604082019050919050565b60006020820190508181036000830152611125816110e9565b9050919050565b7f45524332303a20617070726f766520746f20746865207a65726f20616464726560008201527f7373000000000000000000000000000000000000000000000000000000000000602082015250565b6000611188602283610bb0565b91506111938261112c565b604082019050919050565b600060208201905081810360008301526111b78161117b565b9050919050565b7f45524332303a207472616e736665722066726f6d20746865207a65726f20616460008201527f6472657373000000000000000000000000000000000000000000000000000000602082015250565b600061121a602583610bb0565b9150611225826111be565b604082019050919050565b600060208201905081810360008301526112498161120d565b9050919050565b7f45524332303a207472616e7366657220746f20746865207a65726f206164647260008201527f6573730000000000000000000000000000000000000000000000000000000000602082015250565b60006112ac602383610bb0565b91506112b782611250565b604082019050919050565b600060208201905081810360008301526112db8161129f565b9050919050565b7f45524332303a207472616e7366657220616d6f756e742065786365656473206260008201527f616c616e63650000000000000000000000000000000000000000000000000000602082015250565b600061133e602683610bb0565b9150611349826112e2565b604082019050919050565b6000602082019050818103600083015261136d81611331565b905091905056fea2646970667358221220b6fe0c2344ce3899a7280d4dc3fad2f097139603c4e15ac31bf0ede9d83efbd564736f6c634300080a0033",
  "immutableReferences": {},
  "source": "// SPDX-License-Identifier: MIT\r\npragma solidity >=0.4.22 <0.9.0;\r\n\r\nimport \"./Token.sol\";\r\nimport \"./RaiseDao.sol\";\r\n\r\ncontract InvesDao {\r\n  address _owner;\r\n  uint constant maxSupply = (10 ** 10) * (1 ether);\r\n  uint supplyRemaining = (10 ** 10) * (1 ether);\r\n  Token iDAO;\r\n  uint timeOfCreation;\r\n  \r\n  constructor()  {\r\n    timeOfCreation = block.timestamp;\r\n    iDAO = new Token(\"InvesDao\", \"iDAO\", maxSupply);\r\n    iDAO.transfer(msg.sender, 100 ether);\r\n    _owner = (msg.sender);\r\n  }\r\n\r\n  event TokenSwapped(address, uint);\r\n  event campaignCreated(address);\r\n\r\n  modifier membershipAvailable() {\r\n    require(supplyRemaining > 0);\r\n    _;\r\n  }\r\n\r\n  modifier isMember () {\r\n    require(iDAO.balanceOf(msg.sender) > 1 ether);\r\n    _;\r\n  }\r\n\r\n  modifier onlyOwner() {\r\n    require(msg.sender == _owner);\r\n    _;\r\n  }\r\n\r\n  function applyForMembership() payable public membershipAvailable {\r\n    require(msg.value <= supplyRemaining, \"Not enough tokens available\");\r\n    supplyRemaining -= msg.value;\r\n    iDAO.transfer(msg.sender, msg.value); \r\n    emit TokenSwapped(msg.sender, msg.value);\r\n  }\r\n\r\n  function createRaiseCampaign(string memory _themeName, string memory _tokenName, string memory _tokenSymbol, uint _raiseGoal) public membershipAvailable {\r\n    emit campaignCreated(address(new RaiseDao(_themeName, _tokenName, _tokenSymbol, _raiseGoal)));\r\n  }\r\n}\r\n",
  "sourcePath": "C:\\Users\\shrey\\Downloads\\InvesDAO\\contracts\\contracts\\InvesDao.sol",
  "compiler": {
    "name": "solc",
    "version": "0.8.10+commit.fc410830.Emscripten.clang"
  },
  "schemaVersion": "3.4.3",
  "updatedAt": "2021-12-14T17:29:21.310Z",
  "devdoc": {
    "kind": "dev",
    "methods": {},
    "version": 1
  },
  "userdoc": {
    "kind": "user",
    "methods": {},
    "version": 1
  }
}