{
  "contractName": "BoardDao",
  "abi": [
    {
      "inputs": [
        {
          "internalType": "address",
          "name": "_creator",
          "type": "address"
        },
        {
          "internalType": "address",
          "name": "_invesDao",
          "type": "address"
        },
        {
          "internalType": "uint256",
          "name": "_daoOwnership",
          "type": "uint256"
        },
        {
          "internalType": "uint256",
          "name": "_creatorOwnership",
          "type": "uint256"
        },
        {
          "internalType": "uint256",
          "name": "_invesDaoOwnership",
          "type": "uint256"
        },
        {
          "internalType": "string",
          "name": "_tokenName",
          "type": "string"
        },
        {
          "internalType": "string",
          "name": "_tokenSymbol",
          "type": "string"
        },
        {
          "internalType": "address",
          "name": "_raiseDaoToken",
          "type": "address"
        }
      ],
      "stateMutability": "nonpayable",
      "type": "constructor"
    },
    {
      "inputs": [
        {
          "internalType": "uint256",
          "name": "",
          "type": "uint256"
        }
      ],
      "name": "proposals",
      "outputs": [
        {
          "internalType": "string",
          "name": "title",
          "type": "string"
        },
        {
          "internalType": "string",
          "name": "purpose",
          "type": "string"
        },
        {
          "internalType": "address",
          "name": "creator",
          "type": "address"
        },
        {
          "internalType": "address",
          "name": "recipient",
          "type": "address"
        },
        {
          "internalType": "uint256",
          "name": "amountRequired",
          "type": "uint256"
        },
        {
          "internalType": "int256",
          "name": "support",
          "type": "int256"
        },
        {
          "internalType": "enum BoardDao.BoardProposalStatus",
          "name": "status",
          "type": "uint8"
        }
      ],
      "stateMutability": "view",
      "type": "function"
    },
    {
      "inputs": [],
      "name": "mintBoardVotes",
      "outputs": [],
      "stateMutability": "nonpayable",
      "type": "function"
    },
    {
      "inputs": [
        {
          "internalType": "string",
          "name": "_title",
          "type": "string"
        },
        {
          "internalType": "string",
          "name": "_purpose",
          "type": "string"
        },
        {
          "internalType": "address",
          "name": "_recipient",
          "type": "address"
        },
        {
          "internalType": "uint256",
          "name": "_amountRequired",
          "type": "uint256"
        }
      ],
      "name": "createProposal",
      "outputs": [],
      "stateMutability": "nonpayable",
      "type": "function"
    },
    {
      "inputs": [
        {
          "internalType": "uint256",
          "name": "_proposalId",
          "type": "uint256"
        },
        {
          "internalType": "bool",
          "name": "isInFavour",
          "type": "bool"
        }
      ],
      "name": "voteForProposal",
      "outputs": [],
      "stateMutability": "payable",
      "type": "function"
    },
    {
      "inputs": [
        {
          "internalType": "uint256",
          "name": "_proposalId",
          "type": "uint256"
        }
      ],
      "name": "decideOnProposal",
      "outputs": [],
      "stateMutability": "nonpayable",
      "type": "function"
    },
    {
      "inputs": [],
      "name": "getTokenAddress",
      "outputs": [
        {
          "internalType": "address",
          "name": "",
          "type": "address"
        }
      ],
      "stateMutability": "view",
      "type": "function"
    }
  ],
  "bytecode": "0x60806040523480156200001157600080fd5b506040516200424138038062004241833981810160405281019062000037919062000581565b336000806101000a81548173ffffffffffffffffffffffffffffffffffffffff021916908373ffffffffffffffffffffffffffffffffffffffff16021790555033600160006101000a81548173ffffffffffffffffffffffffffffffffffffffff021916908373ffffffffffffffffffffffffffffffffffffffff16021790555033600260006101000a81548173ffffffffffffffffffffffffffffffffffffffff021916908373ffffffffffffffffffffffffffffffffffffffff16021790555086600460006101000a81548173ffffffffffffffffffffffffffffffffffffffff021916908373ffffffffffffffffffffffffffffffffffffffff16021790555087600360006101000a81548173ffffffffffffffffffffffffffffffffffffffff021916908373ffffffffffffffffffffffffffffffffffffffff160217905550828260646040516200018d9062000336565b6200019b9392919062000732565b604051809103906000f080158015620001b8573d6000803e3d6000fd5b50600760006101000a81548173ffffffffffffffffffffffffffffffffffffffff021916908373ffffffffffffffffffffffffffffffffffffffff1602179055508560066000600260009054906101000a900473ffffffffffffffffffffffffffffffffffffffff1673ffffffffffffffffffffffffffffffffffffffff1673ffffffffffffffffffffffffffffffffffffffff1681526020019081526020016000208190555084600660008a73ffffffffffffffffffffffffffffffffffffffff1673ffffffffffffffffffffffffffffffffffffffff1681526020019081526020016000208190555083600660008973ffffffffffffffffffffffffffffffffffffffff1673ffffffffffffffffffffffffffffffffffffffff1681526020019081526020016000208190555080600560006101000a81548173ffffffffffffffffffffffffffffffffffffffff021916908373ffffffffffffffffffffffffffffffffffffffff16021790555050505050505050506200077d565b611d4780620024fa83390190565b6000604051905090565b600080fd5b600080fd5b600073ffffffffffffffffffffffffffffffffffffffff82169050919050565b6000620003858262000358565b9050919050565b620003978162000378565b8114620003a357600080fd5b50565b600081519050620003b7816200038c565b92915050565b6000819050919050565b620003d281620003bd565b8114620003de57600080fd5b50565b600081519050620003f281620003c7565b92915050565b600080fd5b600080fd5b6000601f19601f8301169050919050565b7f4e487b7100000000000000000000000000000000000000000000000000000000600052604160045260246000fd5b6200044d8262000402565b810181811067ffffffffffffffff821117156200046f576200046e62000413565b5b80604052505050565b60006200048462000344565b905062000492828262000442565b919050565b600067ffffffffffffffff821115620004b557620004b462000413565b5b620004c08262000402565b9050602081019050919050565b60005b83811015620004ed578082015181840152602081019050620004d0565b83811115620004fd576000848401525b50505050565b60006200051a620005148462000497565b62000478565b905082815260208101848484011115620005395762000538620003fd565b5b62000546848285620004cd565b509392505050565b600082601f830112620005665762000565620003f8565b5b81516200057884826020860162000503565b91505092915050565b600080600080600080600080610100898b031215620005a557620005a46200034e565b5b6000620005b58b828c01620003a6565b9850506020620005c88b828c01620003a6565b9750506040620005db8b828c01620003e1565b9650506060620005ee8b828c01620003e1565b9550506080620006018b828c01620003e1565b94505060a089015167ffffffffffffffff81111562000625576200062462000353565b5b620006338b828c016200054e565b93505060c089015167ffffffffffffffff81111562000657576200065662000353565b5b620006658b828c016200054e565b92505060e0620006788b828c01620003a6565b9150509295985092959890939650565b600081519050919050565b600082825260208201905092915050565b6000620006b18262000688565b620006bd818562000693565b9350620006cf818560208601620004cd565b620006da8162000402565b840191505092915050565b6000819050919050565b6000819050919050565b60006200071a620007146200070e84620006e5565b620006ef565b620003bd565b9050919050565b6200072c81620006f9565b82525050565b600060608201905081810360008301526200074e8186620006a4565b90508181036020830152620007648185620006a4565b905062000775604083018462000721565b949350505050565b611d6d806200078d6000396000f3fe608060405260043610610072576000357c010000000000000000000000000000000000000000000000000000000090048063013cf08b1461007757806310fe9ae8146100ba5780636505e8e8146100e55780637cdc2eb714610101578063d3c697581461012a578063f073139f14610141575b600080fd5b34801561008357600080fd5b5061009e6004803603810190610099919061141e565b61016a565b6040516100b197969594939291906115c4565b60405180910390f35b3480156100c657600080fd5b506100cf610319565b6040516100dc9190611641565b60405180910390f35b6100ff60048036038101906100fa9190611694565b610343565b005b34801561010d57600080fd5b5061012860048036038101906101239190611835565b61072d565b005b34801561013657600080fd5b5061013f610aac565b005b34801561014d57600080fd5b506101686004803603810190610163919061141e565b6110a7565b005b6008818154811061017a57600080fd5b906000526020600020906007020160009150905080600001805461019d90611903565b80601f01602080910402602001604051908101604052809291908181526020018280546101c990611903565b80156102165780601f106101eb57610100808354040283529160200191610216565b820191906000526020600020905b8154815290600101906020018083116101f957829003601f168201915b50505050509080600101805461022b90611903565b80601f016020809104026020016040519081016040528092919081815260200182805461025790611903565b80156102a45780601f10610279576101008083540402835291602001916102a4565b820191906000526020600020905b81548152906001019060200180831161028757829003601f168201915b5050505050908060020160009054906101000a900473ffffffffffffffffffffffffffffffffffffffff16908060030160009054906101000a900473ffffffffffffffffffffffffffffffffffffffff16908060040154908060050154908060060160009054906101000a900460ff16905087565b6000600760009054906101000a900473ffffffffffffffffffffffffffffffffffffffff16905090565b6000600760009054906101000a900473ffffffffffffffffffffffffffffffffffffffff1673ffffffffffffffffffffffffffffffffffffffff166370a08231336040518263ffffffff167c01000000000000000000000000000000000000000000000000000000000281526004016103bc9190611641565b602060405180830381865afa1580156103d9573d6000803e3d6000fd5b505050506040513d601f19601f820116820180604052508101906103fd919061194a565b1161040757600080fd5b816000600281111561041c5761041b61154d565b5b600882815481106104305761042f611977565b5b906000526020600020906007020160060160009054906101000a900460ff1660028111156104615761046061154d565b5b1461046b57600080fd5b6000600760009054906101000a900473ffffffffffffffffffffffffffffffffffffffff1673ffffffffffffffffffffffffffffffffffffffff166370a08231336040518263ffffffff167c01000000000000000000000000000000000000000000000000000000000281526004016104e49190611641565b602060405180830381865afa158015610501573d6000803e3d6000fd5b505050506040513d601f19601f82011682018060405250810190610525919061194a565b1161052f57600080fd5b60011515821515141561063457600760009054906101000a900473ffffffffffffffffffffffffffffffffffffffff1673ffffffffffffffffffffffffffffffffffffffff166370a08231336040518263ffffffff167c01000000000000000000000000000000000000000000000000000000000281526004016105b39190611641565b602060405180830381865afa1580156105d0573d6000803e3d6000fd5b505050506040513d601f19601f820116820180604052508101906105f4919061194a565b6008848154811061060857610607611977565b5b9060005260206000209060070201600501600082825461062891906119d5565b92505081905550610728565b600760009054906101000a900473ffffffffffffffffffffffffffffffffffffffff1673ffffffffffffffffffffffffffffffffffffffff166370a08231336040518263ffffffff167c01000000000000000000000000000000000000000000000000000000000281526004016106ab9190611641565b602060405180830381865afa1580156106c8573d6000803e3d6000fd5b505050506040513d601f19601f820116820180604052508101906106ec919061194a565b60088481548110610700576106ff611977565b5b906000526020600020906007020160050160008282546107209190611a69565b925050819055505b505050565b6000600760009054906101000a900473ffffffffffffffffffffffffffffffffffffffff1673ffffffffffffffffffffffffffffffffffffffff166370a08231336040518263ffffffff167c01000000000000000000000000000000000000000000000000000000000281526004016107a69190611641565b602060405180830381865afa1580156107c3573d6000803e3d6000fd5b505050506040513d601f19601f820116820180604052508101906107e7919061194a565b116107f157600080fd5b803073ffffffffffffffffffffffffffffffffffffffff1631101561084b576040517f08c379a000000000000000000000000000000000000000000000000000000000815260040161084290611b49565b60405180910390fd5b60086040518060e001604052808681526020018581526020013373ffffffffffffffffffffffffffffffffffffffff1681526020018473ffffffffffffffffffffffffffffffffffffffff16815260200183815260200160008152602001600060028111156108bd576108bc61154d565b5b81525090806001815401808255809150506001900390600052602060002090600702016000909190919091506000820151816000019080519060200190610905929190611331565b506020820151816001019080519060200190610922929190611331565b5060408201518160020160006101000a81548173ffffffffffffffffffffffffffffffffffffffff021916908373ffffffffffffffffffffffffffffffffffffffff16021790555060608201518160030160006101000a81548173ffffffffffffffffffffffffffffffffffffffff021916908373ffffffffffffffffffffffffffffffffffffffff1602179055506080820151816004015560a0820151816005015560c08201518160060160006101000a81548160ff021916908360028111156109f0576109ef61154d565b5b02179055505050600160009054906101000a900473ffffffffffffffffffffffffffffffffffffffff1673ffffffffffffffffffffffffffffffffffffffff16632ec58ee4858585856040518563ffffffff167c0100000000000000000000000000000000000000000000000000000000028152600401610a749493929190611b69565b600060405180830381600087803b158015610a8e57600080fd5b505af1158015610aa2573d6000803e3d6000fd5b5050505050505050565b60008054906101000a900473ffffffffffffffffffffffffffffffffffffffff1673ffffffffffffffffffffffffffffffffffffffff163373ffffffffffffffffffffffffffffffffffffffff1614610b0457600080fd5b60003073ffffffffffffffffffffffffffffffffffffffff163111610b2857600080fd5b600060066000600460009054906101000a900473ffffffffffffffffffffffffffffffffffffffff1673ffffffffffffffffffffffffffffffffffffffff1673ffffffffffffffffffffffffffffffffffffffff1681526020019081526020016000205460066000600360009054906101000a900473ffffffffffffffffffffffffffffffffffffffff1673ffffffffffffffffffffffffffffffffffffffff1673ffffffffffffffffffffffffffffffffffffffff1681526020019081526020016000205460066000600260009054906101000a900473ffffffffffffffffffffffffffffffffffffffff1673ffffffffffffffffffffffffffffffffffffffff1673ffffffffffffffffffffffffffffffffffffffff16815260200190815260200160002054610c5a9190611bbc565b610c649190611bbc565b9050600760009054906101000a900473ffffffffffffffffffffffffffffffffffffffff1673ffffffffffffffffffffffffffffffffffffffff1663a9059cbb600260009054906101000a900473ffffffffffffffffffffffffffffffffffffffff16670de0b6b3a764000084606460066000600260009054906101000a900473ffffffffffffffffffffffffffffffffffffffff1673ffffffffffffffffffffffffffffffffffffffff1673ffffffffffffffffffffffffffffffffffffffff16815260200190815260200160002054610d3f9190611c12565b610d499190611c9b565b610d539190611c12565b6040518363ffffffff167c0100000000000000000000000000000000000000000000000000000000028152600401610d8c929190611ccc565b6020604051808303816000875af1158015610dab573d6000803e3d6000fd5b505050506040513d601f19601f82011682018060405250810190610dcf9190611d0a565b50600760009054906101000a900473ffffffffffffffffffffffffffffffffffffffff1673ffffffffffffffffffffffffffffffffffffffff1663a9059cbb600260009054906101000a900473ffffffffffffffffffffffffffffffffffffffff16670de0b6b3a764000084606460066000600360009054906101000a900473ffffffffffffffffffffffffffffffffffffffff1673ffffffffffffffffffffffffffffffffffffffff1673ffffffffffffffffffffffffffffffffffffffff16815260200190815260200160002054610ea99190611c12565b610eb39190611c9b565b610ebd9190611c12565b6040518363ffffffff167c0100000000000000000000000000000000000000000000000000000000028152600401610ef6929190611ccc565b6020604051808303816000875af1158015610f15573d6000803e3d6000fd5b505050506040513d601f19601f82011682018060405250810190610f399190611d0a565b50600760009054906101000a900473ffffffffffffffffffffffffffffffffffffffff1673ffffffffffffffffffffffffffffffffffffffff1663a9059cbb600260009054906101000a900473ffffffffffffffffffffffffffffffffffffffff16670de0b6b3a764000084606460066000600460009054906101000a900473ffffffffffffffffffffffffffffffffffffffff1673ffffffffffffffffffffffffffffffffffffffff1673ffffffffffffffffffffffffffffffffffffffff168152602001908152602001600020546110139190611c12565b61101d9190611c9b565b6110279190611c12565b6040518363ffffffff167c0100000000000000000000000000000000000000000000000000000000028152600401611060929190611ccc565b6020604051808303816000875af115801561107f573d6000803e3d6000fd5b505050506040513d601f19601f820116820180604052508101906110a39190611d0a565b5050565b80600060028111156110bc576110bb61154d565b5b600882815481106110d0576110cf611977565b5b906000526020600020906007020160060160009054906101000a900460ff1660028111156111015761110061154d565b5b1461110b57600080fd5b6008828154811061111f5761111e611977565b5b906000526020600020906007020160020160009054906101000a900473ffffffffffffffffffffffffffffffffffffffff1673ffffffffffffffffffffffffffffffffffffffff163373ffffffffffffffffffffffffffffffffffffffff161461118857600080fd5b60006008838154811061119e5761119d611977565b5b906000526020600020906007020160050154131561120e576001600883815481106111cc576111cb611977565b5b906000526020600020906007020160060160006101000a81548160ff021916908360028111156111ff576111fe61154d565b5b021790555061120d82611212565b5b5050565b80600160028111156112275761122661154d565b5b6008828154811061123b5761123a611977565b5b906000526020600020906007020160060160009054906101000a900460ff16600281111561126c5761126b61154d565b5b1461127657600080fd5b60006008838154811061128c5761128b611977565b5b906000526020600020906007020160030160009054906101000a900473ffffffffffffffffffffffffffffffffffffffff1690508073ffffffffffffffffffffffffffffffffffffffff166108fc600885815481106112ee576112ed611977565b5b9060005260206000209060070201600401549081150290604051600060405180830381858888f1935050505015801561132b573d6000803e3d6000fd5b50505050565b82805461133d90611903565b90600052602060002090601f01602090048101928261135f57600085556113a6565b82601f1061137857805160ff19168380011785556113a6565b828001600101855582156113a6579182015b828111156113a557825182559160200191906001019061138a565b5b5090506113b391906113b7565b5090565b5b808211156113d05760008160009055506001016113b8565b5090565b6000604051905090565b600080fd5b600080fd5b6000819050919050565b6113fb816113e8565b811461140657600080fd5b50565b600081359050611418816113f2565b92915050565b600060208284031215611434576114336113de565b5b600061144284828501611409565b91505092915050565b600081519050919050565b600082825260208201905092915050565b60005b8381101561148557808201518184015260208101905061146a565b83811115611494576000848401525b50505050565b6000601f19601f8301169050919050565b60006114b68261144b565b6114c08185611456565b93506114d0818560208601611467565b6114d98161149a565b840191505092915050565b600073ffffffffffffffffffffffffffffffffffffffff82169050919050565b600061150f826114e4565b9050919050565b61151f81611504565b82525050565b61152e816113e8565b82525050565b6000819050919050565b61154781611534565b82525050565b7f4e487b7100000000000000000000000000000000000000000000000000000000600052602160045260246000fd5b6003811061158d5761158c61154d565b5b50565b600081905061159e8261157c565b919050565b60006115ae82611590565b9050919050565b6115be816115a3565b82525050565b600060e08201905081810360008301526115de818a6114ab565b905081810360208301526115f281896114ab565b90506116016040830188611516565b61160e6060830187611516565b61161b6080830186611525565b61162860a083018561153e565b61163560c08301846115b5565b98975050505050505050565b60006020820190506116566000830184611516565b92915050565b60008115159050919050565b6116718161165c565b811461167c57600080fd5b50565b60008135905061168e81611668565b92915050565b600080604083850312156116ab576116aa6113de565b5b60006116b985828601611409565b92505060206116ca8582860161167f565b9150509250929050565b600080fd5b600080fd5b7f4e487b7100000000000000000000000000000000000000000000000000000000600052604160045260246000fd5b6117168261149a565b810181811067ffffffffffffffff82111715611735576117346116de565b5b80604052505050565b60006117486113d4565b9050611754828261170d565b919050565b600067ffffffffffffffff821115611774576117736116de565b5b61177d8261149a565b9050602081019050919050565b82818337600083830152505050565b60006117ac6117a784611759565b61173e565b9050828152602081018484840111156117c8576117c76116d9565b5b6117d384828561178a565b509392505050565b600082601f8301126117f0576117ef6116d4565b5b8135611800848260208601611799565b91505092915050565b61181281611504565b811461181d57600080fd5b50565b60008135905061182f81611809565b92915050565b6000806000806080858703121561184f5761184e6113de565b5b600085013567ffffffffffffffff81111561186d5761186c6113e3565b5b611879878288016117db565b945050602085013567ffffffffffffffff81111561189a576118996113e3565b5b6118a6878288016117db565b93505060406118b787828801611820565b92505060606118c887828801611409565b91505092959194509250565b7f4e487b7100000000000000000000000000000000000000000000000000000000600052602260045260246000fd5b6000600282049050600182168061191b57607f821691505b6020821081141561192f5761192e6118d4565b5b50919050565b600081519050611944816113f2565b92915050565b6000602082840312156119605761195f6113de565b5b600061196e84828501611935565b91505092915050565b7f4e487b7100000000000000000000000000000000000000000000000000000000600052603260045260246000fd5b7f4e487b7100000000000000000000000000000000000000000000000000000000600052601160045260246000fd5b60006119e082611534565b91506119eb83611534565b9250817f7fffffffffffffffffffffffffffffffffffffffffffffffffffffffffffffff03831360008312151615611a2657611a256119a6565b5b817f8000000000000000000000000000000000000000000000000000000000000000038312600083121615611a5e57611a5d6119a6565b5b828201905092915050565b6000611a7482611534565b9150611a7f83611534565b9250827f800000000000000000000000000000000000000000000000000000000000000001821260008412151615611aba57611ab96119a6565b5b827f7fffffffffffffffffffffffffffffffffffffffffffffffffffffffffffffff018213600084121615611af257611af16119a6565b5b828203905092915050565b7f4e6f7420656e6f7567682062616c616e63650000000000000000000000000000600082015250565b6000611b33601283611456565b9150611b3e82611afd565b602082019050919050565b60006020820190508181036000830152611b6281611b26565b9050919050565b60006080820190508181036000830152611b8381876114ab565b90508181036020830152611b9781866114ab565b9050611ba66040830185611516565b611bb36060830184611525565b95945050505050565b6000611bc7826113e8565b9150611bd2836113e8565b9250827fffffffffffffffffffffffffffffffffffffffffffffffffffffffffffffffff03821115611c0757611c066119a6565b5b828201905092915050565b6000611c1d826113e8565b9150611c28836113e8565b9250817fffffffffffffffffffffffffffffffffffffffffffffffffffffffffffffffff0483118215151615611c6157611c606119a6565b5b828202905092915050565b7f4e487b7100000000000000000000000000000000000000000000000000000000600052601260045260246000fd5b6000611ca6826113e8565b9150611cb1836113e8565b925082611cc157611cc0611c6c565b5b828204905092915050565b6000604082019050611ce16000830185611516565b611cee6020830184611525565b9392505050565b600081519050611d0481611668565b92915050565b600060208284031215611d2057611d1f6113de565b5b6000611d2e84828501611cf5565b9150509291505056fea2646970667358221220ca919290140f143f2bd56573b61cc15d5fb855d3d1ee509c4979c7ec7b91f9aa64736f6c634300080a003360806040523480156200001157600080fd5b5060405162001d4738038062001d4783398181016040528101906200003791906200052e565b8282816003908051906020019062000051929190620002a6565b5080600490805190602001906200006a929190620002a6565b505050620000be336200008b62000108640100000000026401000000009004565b60ff16600a6200009c91906200074b565b83620000a991906200079c565b62000111640100000000026401000000009004565b33600560006101000a81548173ffffffffffffffffffffffffffffffffffffffff021916908373ffffffffffffffffffffffffffffffffffffffff16021790555050505062000970565b60006012905090565b600073ffffffffffffffffffffffffffffffffffffffff168273ffffffffffffffffffffffffffffffffffffffff16141562000184576040517f08c379a00000000000000000000000000000000000000000000000000000000081526004016200017b906200085e565b60405180910390fd5b620001a1600083836200029c640100000000026401000000009004565b8060026000828254620001b5919062000880565b92505081905550806000808473ffffffffffffffffffffffffffffffffffffffff1673ffffffffffffffffffffffffffffffffffffffff16815260200190815260200160002060008282546200020c919062000880565b925050819055508173ffffffffffffffffffffffffffffffffffffffff16600073ffffffffffffffffffffffffffffffffffffffff167fddf252ad1be2c89b69c2b068fc378daa952ba7f163c4a11628f55a4df523b3ef83604051620002739190620008ee565b60405180910390a36200029860008383620002a1640100000000026401000000009004565b5050565b505050565b505050565b828054620002b4906200093a565b90600052602060002090601f016020900481019282620002d8576000855562000324565b82601f10620002f357805160ff191683800117855562000324565b8280016001018555821562000324579182015b828111156200032357825182559160200191906001019062000306565b5b50905062000333919062000337565b5090565b5b808211156200035257600081600090555060010162000338565b5090565b6000604051905090565b600080fd5b600080fd5b600080fd5b600080fd5b6000601f19601f8301169050919050565b7f4e487b7100000000000000000000000000000000000000000000000000000000600052604160045260246000fd5b620003bf8262000374565b810181811067ffffffffffffffff82111715620003e157620003e062000385565b5b80604052505050565b6000620003f662000356565b9050620004048282620003b4565b919050565b600067ffffffffffffffff82111562000427576200042662000385565b5b620004328262000374565b9050602081019050919050565b60005b838110156200045f57808201518184015260208101905062000442565b838111156200046f576000848401525b50505050565b60006200048c620004868462000409565b620003ea565b905082815260208101848484011115620004ab57620004aa6200036f565b5b620004b88482856200043f565b509392505050565b600082601f830112620004d857620004d76200036a565b5b8151620004ea84826020860162000475565b91505092915050565b6000819050919050565b6200050881620004f3565b81146200051457600080fd5b50565b6000815190506200052881620004fd565b92915050565b6000806000606084860312156200054a576200054962000360565b5b600084015167ffffffffffffffff8111156200056b576200056a62000365565b5b6200057986828701620004c0565b935050602084015167ffffffffffffffff8111156200059d576200059c62000365565b5b620005ab86828701620004c0565b9250506040620005be8682870162000517565b9150509250925092565b7f4e487b7100000000000000000000000000000000000000000000000000000000600052601160045260246000fd5b6000600282049050919050565b6000808291508390505b600185111562000656578086048111156200062e576200062d620005c8565b5b60018516156200063e5780820291505b80810290506200064e85620005f7565b94506200060e565b94509492505050565b60008262000671576001905062000744565b8162000681576000905062000744565b81600181146200069a5760028114620006a557620006db565b600191505062000744565b60ff841115620006ba57620006b9620005c8565b5b8360020a915084821115620006d457620006d3620005c8565b5b5062000744565b5060208310610133831016604e8410600b8410161715620007155782820a9050838111156200070f576200070e620005c8565b5b62000744565b62000724848484600162000604565b925090508184048111156200073e576200073d620005c8565b5b81810290505b9392505050565b60006200075882620004f3565b91506200076583620004f3565b9250620007947fffffffffffffffffffffffffffffffffffffffffffffffffffffffffffffffff84846200065f565b905092915050565b6000620007a982620004f3565b9150620007b683620004f3565b9250817fffffffffffffffffffffffffffffffffffffffffffffffffffffffffffffffff0483118215151615620007f257620007f1620005c8565b5b828202905092915050565b600082825260208201905092915050565b7f45524332303a206d696e7420746f20746865207a65726f206164647265737300600082015250565b600062000846601f83620007fd565b915062000853826200080e565b602082019050919050565b60006020820190508181036000830152620008798162000837565b9050919050565b60006200088d82620004f3565b91506200089a83620004f3565b9250827fffffffffffffffffffffffffffffffffffffffffffffffffffffffffffffffff03821115620008d257620008d1620005c8565b5b828201905092915050565b620008e881620004f3565b82525050565b6000602082019050620009056000830184620008dd565b92915050565b7f4e487b7100000000000000000000000000000000000000000000000000000000600052602260045260246000fd5b600060028204905060018216806200095357607f821691505b602082108114156200096a57620009696200090b565b5b50919050565b6113c780620009806000396000f3fe608060405234801561001057600080fd5b50600436106100c6576000357c010000000000000000000000000000000000000000000000000000000090048063395093511161008e578063395093511461018557806370a08231146101b557806395d89b41146101e5578063a457c2d714610203578063a9059cbb14610233578063dd62ed3e14610263576100c6565b806306fdde03146100cb578063095ea7b3146100e957806318160ddd1461011957806323b872dd14610137578063313ce56714610167575b600080fd5b6100d3610293565b6040516100e09190610c5b565b60405180910390f35b61010360048036038101906100fe9190610d16565b610325565b6040516101109190610d71565b60405180910390f35b610121610343565b60405161012e9190610d9b565b60405180910390f35b610151600480360381019061014c9190610db6565b61034d565b60405161015e9190610d71565b60405180910390f35b61016f610445565b60405161017c9190610e25565b60405180910390f35b61019f600480360381019061019a9190610d16565b61044e565b6040516101ac9190610d71565b60405180910390f35b6101cf60048036038101906101ca9190610e40565b6104fa565b6040516101dc9190610d9b565b60405180910390f35b6101ed610542565b6040516101fa9190610c5b565b60405180910390f35b61021d60048036038101906102189190610d16565b6105d4565b60405161022a9190610d71565b60405180910390f35b61024d60048036038101906102489190610d16565b6106bf565b60405161025a9190610d71565b60405180910390f35b61027d60048036038101906102789190610e6d565b6106dd565b60405161028a9190610d9b565b60405180910390f35b6060600380546102a290610edc565b80601f01602080910402602001604051908101604052809291908181526020018280546102ce90610edc565b801561031b5780601f106102f05761010080835404028352916020019161031b565b820191906000526020600020905b8154815290600101906020018083116102fe57829003601f168201915b5050505050905090565b6000610339610332610764565b848461076c565b6001905092915050565b6000600254905090565b600061035a848484610937565b6000600160008673ffffffffffffffffffffffffffffffffffffffff1673ffffffffffffffffffffffffffffffffffffffff16815260200190815260200160002060006103a5610764565b73ffffffffffffffffffffffffffffffffffffffff1673ffffffffffffffffffffffffffffffffffffffff16815260200190815260200160002054905082811015610425576040517f08c379a000000000000000000000000000000000000000000000000000000000815260040161041c90610f80565b60405180910390fd5b61043985610431610764565b85840361076c565b60019150509392505050565b60006012905090565b60006104f061045b610764565b848460016000610469610764565b73ffffffffffffffffffffffffffffffffffffffff1673ffffffffffffffffffffffffffffffffffffffff16815260200190815260200160002060008873ffffffffffffffffffffffffffffffffffffffff1673ffffffffffffffffffffffffffffffffffffffff168152602001908152602001600020546104eb9190610fcf565b61076c565b6001905092915050565b60008060008373ffffffffffffffffffffffffffffffffffffffff1673ffffffffffffffffffffffffffffffffffffffff168152602001908152602001600020549050919050565b60606004805461055190610edc565b80601f016020809104026020016040519081016040528092919081815260200182805461057d90610edc565b80156105ca5780601f1061059f576101008083540402835291602001916105ca565b820191906000526020600020905b8154815290600101906020018083116105ad57829003601f168201915b5050505050905090565b600080600160006105e3610764565b73ffffffffffffffffffffffffffffffffffffffff1673ffffffffffffffffffffffffffffffffffffffff16815260200190815260200160002060008573ffffffffffffffffffffffffffffffffffffffff1673ffffffffffffffffffffffffffffffffffffffff168152602001908152602001600020549050828110156106a0576040517f08c379a000000000000000000000000000000000000000000000000000000000815260040161069790611097565b60405180910390fd5b6106b46106ab610764565b8585840361076c565b600191505092915050565b60006106d36106cc610764565b8484610937565b6001905092915050565b6000600160008473ffffffffffffffffffffffffffffffffffffffff1673ffffffffffffffffffffffffffffffffffffffff16815260200190815260200160002060008373ffffffffffffffffffffffffffffffffffffffff1673ffffffffffffffffffffffffffffffffffffffff16815260200190815260200160002054905092915050565b600033905090565b600073ffffffffffffffffffffffffffffffffffffffff168373ffffffffffffffffffffffffffffffffffffffff1614156107dc576040517f08c379a00000000000000000000000000000000000000000000000000000000081526004016107d390611129565b60405180910390fd5b600073ffffffffffffffffffffffffffffffffffffffff168273ffffffffffffffffffffffffffffffffffffffff16141561084c576040517f08c379a0000000000000000000000000000000000000000000000000000000008152600401610843906111bb565b60405180910390fd5b80600160008573ffffffffffffffffffffffffffffffffffffffff1673ffffffffffffffffffffffffffffffffffffffff16815260200190815260200160002060008473ffffffffffffffffffffffffffffffffffffffff1673ffffffffffffffffffffffffffffffffffffffff168152602001908152602001600020819055508173ffffffffffffffffffffffffffffffffffffffff168373ffffffffffffffffffffffffffffffffffffffff167f8c5be1e5ebec7d5bd14f71427d1e84f3dd0314c0f7b2291e5b200ac8c7c3b9258360405161092a9190610d9b565b60405180910390a3505050565b600073ffffffffffffffffffffffffffffffffffffffff168373ffffffffffffffffffffffffffffffffffffffff1614156109a7576040517f08c379a000000000000000000000000000000000000000000000000000000000815260040161099e9061124d565b60405180910390fd5b600073ffffffffffffffffffffffffffffffffffffffff168273ffffffffffffffffffffffffffffffffffffffff161415610a17576040517f08c379a0000000000000000000000000000000000000000000000000000000008152600401610a0e906112df565b60405180910390fd5b610a22838383610bb8565b60008060008573ffffffffffffffffffffffffffffffffffffffff1673ffffffffffffffffffffffffffffffffffffffff16815260200190815260200160002054905081811015610aa8576040517f08c379a0000000000000000000000000000000000000000000000000000000008152600401610a9f90611371565b60405180910390fd5b8181036000808673ffffffffffffffffffffffffffffffffffffffff1673ffffffffffffffffffffffffffffffffffffffff16815260200190815260200160002081905550816000808573ffffffffffffffffffffffffffffffffffffffff1673ffffffffffffffffffffffffffffffffffffffff1681526020019081526020016000206000828254610b3b9190610fcf565b925050819055508273ffffffffffffffffffffffffffffffffffffffff168473ffffffffffffffffffffffffffffffffffffffff167fddf252ad1be2c89b69c2b068fc378daa952ba7f163c4a11628f55a4df523b3ef84604051610b9f9190610d9b565b60405180910390a3610bb2848484610bbd565b50505050565b505050565b505050565b600081519050919050565b600082825260208201905092915050565b60005b83811015610bfc578082015181840152602081019050610be1565b83811115610c0b576000848401525b50505050565b6000601f19601f8301169050919050565b6000610c2d82610bc2565b610c378185610bcd565b9350610c47818560208601610bde565b610c5081610c11565b840191505092915050565b60006020820190508181036000830152610c758184610c22565b905092915050565b600080fd5b600073ffffffffffffffffffffffffffffffffffffffff82169050919050565b6000610cad82610c82565b9050919050565b610cbd81610ca2565b8114610cc857600080fd5b50565b600081359050610cda81610cb4565b92915050565b6000819050919050565b610cf381610ce0565b8114610cfe57600080fd5b50565b600081359050610d1081610cea565b92915050565b60008060408385031215610d2d57610d2c610c7d565b5b6000610d3b85828601610ccb565b9250506020610d4c85828601610d01565b9150509250929050565b60008115159050919050565b610d6b81610d56565b82525050565b6000602082019050610d866000830184610d62565b92915050565b610d9581610ce0565b82525050565b6000602082019050610db06000830184610d8c565b92915050565b600080600060608486031215610dcf57610dce610c7d565b5b6000610ddd86828701610ccb565b9350506020610dee86828701610ccb565b9250506040610dff86828701610d01565b9150509250925092565b600060ff82169050919050565b610e1f81610e09565b82525050565b6000602082019050610e3a6000830184610e16565b92915050565b600060208284031215610e5657610e55610c7d565b5b6000610e6484828501610ccb565b91505092915050565b60008060408385031215610e8457610e83610c7d565b5b6000610e9285828601610ccb565b9250506020610ea385828601610ccb565b9150509250929050565b7f4e487b7100000000000000000000000000000000000000000000000000000000600052602260045260246000fd5b60006002820490506001821680610ef457607f821691505b60208210811415610f0857610f07610ead565b5b50919050565b7f45524332303a207472616e7366657220616d6f756e742065786365656473206160008201527f6c6c6f77616e6365000000000000000000000000000000000000000000000000602082015250565b6000610f6a602883610bcd565b9150610f7582610f0e565b604082019050919050565b60006020820190508181036000830152610f9981610f5d565b9050919050565b7f4e487b7100000000000000000000000000000000000000000000000000000000600052601160045260246000fd5b6000610fda82610ce0565b9150610fe583610ce0565b9250827fffffffffffffffffffffffffffffffffffffffffffffffffffffffffffffffff0382111561101a57611019610fa0565b5b828201905092915050565b7f45524332303a2064656372656173656420616c6c6f77616e63652062656c6f7760008201527f207a65726f000000000000000000000000000000000000000000000000000000602082015250565b6000611081602583610bcd565b915061108c82611025565b604082019050919050565b600060208201905081810360008301526110b081611074565b9050919050565b7f45524332303a20617070726f76652066726f6d20746865207a65726f2061646460008201527f7265737300000000000000000000000000000000000000000000000000000000602082015250565b6000611113602483610bcd565b915061111e826110b7565b604082019050919050565b6000602082019050818103600083015261114281611106565b9050919050565b7f45524332303a20617070726f766520746f20746865207a65726f20616464726560008201527f7373000000000000000000000000000000000000000000000000000000000000602082015250565b60006111a5602283610bcd565b91506111b082611149565b604082019050919050565b600060208201905081810360008301526111d481611198565b9050919050565b7f45524332303a207472616e736665722066726f6d20746865207a65726f20616460008201527f6472657373000000000000000000000000000000000000000000000000000000602082015250565b6000611237602583610bcd565b9150611242826111db565b604082019050919050565b600060208201905081810360008301526112668161122a565b9050919050565b7f45524332303a207472616e7366657220746f20746865207a65726f206164647260008201527f6573730000000000000000000000000000000000000000000000000000000000602082015250565b60006112c9602383610bcd565b91506112d48261126d565b604082019050919050565b600060208201905081810360008301526112f8816112bc565b9050919050565b7f45524332303a207472616e7366657220616d6f756e742065786365656473206260008201527f616c616e63650000000000000000000000000000000000000000000000000000602082015250565b600061135b602683610bcd565b9150611366826112ff565b604082019050919050565b6000602082019050818103600083015261138a8161134e565b905091905056fea2646970667358221220565b120251516bf38f420e7137514bd44f90e4f039b6bdc611da6ee017b71c4c64736f6c634300080a0033",
  "immutableReferences": {},
  "source": "// SPDX-License-Identifier: MIT\r\npragma solidity >=0.4.22 <0.9.0;\r\n\r\nimport \"./Token.sol\";\r\nimport \"./RaiseDao.sol\";\r\n\r\ncontract BoardDao {\r\n  address _owner;\r\n  RaiseDao daoContract;\r\n  address dao;\r\n  address creator;\r\n  address invesDao;\r\n\r\n  address raiseDaoToken;\r\n  \r\n  mapping (address => uint) voteBank;\r\n\r\n  Token boardToken;\r\n\r\n  uint256 constant boardSize = 100;\r\n  \r\n  enum BoardProposalStatus {VOTING, ACCEPTED, DECLINED}\r\n\r\n  struct BoardProposal {\r\n    string title;\r\n    string purpose;\r\n    address creator;\r\n    address recipient;\r\n    uint amountRequired;\r\n    int support;\r\n    BoardProposalStatus status;\r\n  }\r\n\r\n  BoardProposal[] public proposals;\r\n\r\n  constructor(\r\n    address _creator,\r\n    address _invesDao,\r\n    uint _daoOwnership,\r\n    uint _creatorOwnership,\r\n    uint _invesDaoOwnership,\r\n    string memory _tokenName,\r\n    string memory _tokenSymbol,\r\n    address _raiseDaoToken\r\n  ) {\r\n    _owner = msg.sender;\r\n    daoContract = RaiseDao(msg.sender);\r\n    dao = (msg.sender);\r\n    invesDao = _invesDao;\r\n    creator = _creator;\r\n    boardToken = new Token(_tokenName, _tokenSymbol, 100);\r\n    voteBank[dao] = _daoOwnership;\r\n    voteBank[_creator] = _creatorOwnership;\r\n    voteBank[_invesDao] = _invesDaoOwnership;\r\n    raiseDaoToken = _raiseDaoToken;\r\n  }\r\n\r\n  modifier onlyOwner() {\r\n    require(msg.sender == _owner);\r\n    _;  \r\n  }\r\n\r\n  modifier hasNativeToken() {\r\n    require(address(this).balance > 0);\r\n    _;\r\n  }\r\n\r\n  function mintBoardVotes() external onlyOwner hasNativeToken {\r\n    uint totalStake = voteBank[dao] + voteBank[creator] + voteBank[invesDao];\r\n    boardToken.transfer(dao, ((voteBank[dao] * 100) / totalStake) * (1 ether));\r\n    boardToken.transfer(dao, ((voteBank[creator] * 100) / totalStake) * (1 ether));\r\n    boardToken.transfer(dao, ((voteBank[invesDao] * 100) / totalStake) * (1 ether));\r\n  }\r\n\r\n  modifier isBoardMember() {\r\n    require(boardToken.balanceOf(msg.sender) > 0);\r\n    _;\r\n  }\r\n\r\n  modifier proposalUpForVoting (uint _proposalId) {\r\n    require(proposals[_proposalId].status == BoardProposalStatus.VOTING);\r\n    _;\r\n  }\r\n\r\n  modifier proposalAccepted (uint _proposalId) {\r\n    require(proposals[_proposalId].status == BoardProposalStatus.ACCEPTED);\r\n    _;\r\n  }\r\n\r\n  function createProposal(string memory _title, string memory _purpose, address _recipient, uint _amountRequired) public isBoardMember {\r\n    require(address(this).balance >= _amountRequired, \"Not enough balance\");\r\n    proposals.push(BoardProposal(_title, _purpose, msg.sender, _recipient, _amountRequired, 0, BoardProposalStatus.VOTING));\r\n    daoContract.createBoardProposal(_title, _purpose, _recipient, _amountRequired);\r\n    \r\n  }\r\n\r\n  function voteForProposal(uint _proposalId, bool isInFavour) external payable isBoardMember proposalUpForVoting(_proposalId) {\r\n    require(boardToken.balanceOf(msg.sender) > 0);\r\n    if (isInFavour == true) {\r\n      proposals[_proposalId].support += int(boardToken.balanceOf(msg.sender));\r\n    } else {\r\n      proposals[_proposalId].support -= int(boardToken.balanceOf(msg.sender));\r\n    }\r\n  }\r\n  \r\n  function decideOnProposal(uint _proposalId) external proposalUpForVoting(_proposalId) {\r\n    require(msg.sender == proposals[_proposalId].creator);\r\n    if (proposals[_proposalId].support > 0) {\r\n      proposals[_proposalId].status = BoardProposalStatus.ACCEPTED;\r\n      executeProposal(_proposalId);\r\n    }\r\n  }\r\n\r\n  function executeProposal(uint _proposalId) internal proposalAccepted(_proposalId) {\r\n    address payable recipient = payable(proposals[_proposalId].recipient);\r\n    recipient.transfer(proposals[_proposalId].amountRequired);\r\n  }\r\n\r\n  function getTokenAddress() public view returns(address) {\r\n    return address(boardToken);\r\n  }\r\n\r\n}",
  "sourcePath": "C:\\Users\\shrey\\Downloads\\InvesDAO\\contracts\\contracts\\BoardDao.sol",
  "compiler": {
    "name": "solc",
    "version": "0.8.10+commit.fc410830.Emscripten.clang"
  },
  "schemaVersion": "3.4.3",
  "updatedAt": "2021-12-14T07:04:38.735Z",
  "devdoc": {
    "kind": "dev",
    "methods": {},
    "version": 1
  },
  "userdoc": {
    "kind": "user",
    "methods": {},
    "version": 1
  }
}