{
  "contractName": "RaiseDao",
  "abi": [
    {
      "inputs": [
        {
          "internalType": "string",
          "name": "_daoThemeName",
          "type": "string"
        },
        {
          "internalType": "string",
          "name": "_daoTokenName",
          "type": "string"
        },
        {
          "internalType": "string",
          "name": "_daoTokenSymbol",
          "type": "string"
        },
        {
          "internalType": "uint256",
          "name": "_raiseGoal",
          "type": "uint256"
        }
      ],
      "stateMutability": "nonpayable",
      "type": "constructor"
    },
    {
      "anonymous": false,
      "inputs": [
        {
          "indexed": false,
          "internalType": "address",
          "name": "_from",
          "type": "address"
        },
        {
          "indexed": false,
          "internalType": "uint256",
          "name": "_amount",
          "type": "uint256"
        }
      ],
      "name": "TransferReceived",
      "type": "event"
    },
    {
      "anonymous": false,
      "inputs": [
        {
          "indexed": false,
          "internalType": "address",
          "name": "_from",
          "type": "address"
        },
        {
          "indexed": false,
          "internalType": "uint256",
          "name": "_proposalId",
          "type": "uint256"
        }
      ],
      "name": "proposalCreated",
      "type": "event"
    },
    {
      "inputs": [
        {
          "internalType": "uint256",
          "name": "",
          "type": "uint256"
        }
      ],
      "name": "boardProposals",
      "outputs": [
        {
          "internalType": "string",
          "name": "title",
          "type": "string"
        },
        {
          "internalType": "string",
          "name": "purpose",
          "type": "string"
        },
        {
          "internalType": "address",
          "name": "creator",
          "type": "address"
        },
        {
          "internalType": "address",
          "name": "recipient",
          "type": "address"
        },
        {
          "internalType": "uint256",
          "name": "amountRequired",
          "type": "uint256"
        },
        {
          "internalType": "int256",
          "name": "support",
          "type": "int256"
        },
        {
          "internalType": "enum RaiseDao.BoardProposalStatus",
          "name": "status",
          "type": "uint8"
        }
      ],
      "stateMutability": "view",
      "type": "function"
    },
    {
      "inputs": [],
      "name": "boardToken",
      "outputs": [
        {
          "internalType": "contract IERC20",
          "name": "",
          "type": "address"
        }
      ],
      "stateMutability": "view",
      "type": "function"
    },
    {
      "inputs": [
        {
          "internalType": "uint256",
          "name": "",
          "type": "uint256"
        }
      ],
      "name": "proposals",
      "outputs": [
        {
          "internalType": "string",
          "name": "title",
          "type": "string"
        },
        {
          "internalType": "string",
          "name": "idea",
          "type": "string"
        },
        {
          "internalType": "string",
          "name": "ipfs",
          "type": "string"
        },
        {
          "internalType": "string",
          "name": "tokenName",
          "type": "string"
        },
        {
          "internalType": "string",
          "name": "tokenSymbol",
          "type": "string"
        },
        {
          "internalType": "string",
          "name": "socialThread",
          "type": "string"
        },
        {
          "internalType": "address",
          "name": "creator",
          "type": "address"
        },
        {
          "internalType": "enum RaiseDao.proposalStatus",
          "name": "status",
          "type": "uint8"
        },
        {
          "internalType": "address",
          "name": "disputor",
          "type": "address"
        },
        {
          "internalType": "uint256",
          "name": "daoOwnership",
          "type": "uint256"
        },
        {
          "internalType": "uint256",
          "name": "creatorOwnership",
          "type": "uint256"
        }
      ],
      "stateMutability": "view",
      "type": "function"
    },
    {
      "inputs": [],
      "name": "applyForMembership",
      "outputs": [],
      "stateMutability": "payable",
      "type": "function"
    },
    {
      "inputs": [
        {
          "internalType": "string",
          "name": "_title",
          "type": "string"
        },
        {
          "internalType": "string",
          "name": "_idea",
          "type": "string"
        },
        {
          "internalType": "string",
          "name": "_ipfs",
          "type": "string"
        },
        {
          "internalType": "string",
          "name": "_tokenName",
          "type": "string"
        },
        {
          "internalType": "string",
          "name": "_tokenSymbol",
          "type": "string"
        },
        {
          "internalType": "string",
          "name": "_socialThread",
          "type": "string"
        },
        {
          "internalType": "uint256",
          "name": "_daoOwnership",
          "type": "uint256"
        },
        {
          "internalType": "uint256",
          "name": "_creatorOwnership",
          "type": "uint256"
        }
      ],
      "name": "createProposal",
      "outputs": [
        {
          "internalType": "bool",
          "name": "",
          "type": "bool"
        }
      ],
      "stateMutability": "nonpayable",
      "type": "function"
    },
    {
      "inputs": [],
      "name": "getNumOfProposals",
      "outputs": [
        {
          "internalType": "uint256",
          "name": "",
          "type": "uint256"
        }
      ],
      "stateMutability": "view",
      "type": "function"
    },
    {
      "inputs": [
        {
          "internalType": "uint256",
          "name": "_proposalId",
          "type": "uint256"
        }
      ],
      "name": "getProposalDetails",
      "outputs": [
        {
          "internalType": "string",
          "name": "",
          "type": "string"
        },
        {
          "internalType": "string",
          "name": "",
          "type": "string"
        },
        {
          "internalType": "string",
          "name": "",
          "type": "string"
        },
        {
          "internalType": "string",
          "name": "",
          "type": "string"
        },
        {
          "internalType": "address",
          "name": "",
          "type": "address"
        },
        {
          "internalType": "enum RaiseDao.proposalStatus",
          "name": "",
          "type": "uint8"
        },
        {
          "internalType": "address",
          "name": "",
          "type": "address"
        }
      ],
      "stateMutability": "view",
      "type": "function"
    },
    {
      "inputs": [
        {
          "internalType": "int256",
          "name": "_proposalId",
          "type": "int256"
        },
        {
          "internalType": "uint256",
          "name": "_lockTokens",
          "type": "uint256"
        }
      ],
      "name": "voteForProposal",
      "outputs": [
        {
          "internalType": "bool",
          "name": "",
          "type": "bool"
        }
      ],
      "stateMutability": "nonpayable",
      "type": "function"
    },
    {
      "inputs": [
        {
          "internalType": "uint256",
          "name": "_proposalId",
          "type": "uint256"
        }
      ],
      "name": "disputeProposal",
      "outputs": [
        {
          "internalType": "bool",
          "name": "",
          "type": "bool"
        }
      ],
      "stateMutability": "payable",
      "type": "function"
    },
    {
      "inputs": [],
      "name": "makeOrBreak",
      "outputs": [
        {
          "internalType": "bool",
          "name": "",
          "type": "bool"
        }
      ],
      "stateMutability": "nonpayable",
      "type": "function"
    },
    {
      "inputs": [
        {
          "internalType": "string",
          "name": "_title",
          "type": "string"
        },
        {
          "internalType": "string",
          "name": "_purpose",
          "type": "string"
        },
        {
          "internalType": "address",
          "name": "_recipient",
          "type": "address"
        },
        {
          "internalType": "uint256",
          "name": "_amountRequired",
          "type": "uint256"
        }
      ],
      "name": "createBoardProposal",
      "outputs": [],
      "stateMutability": "nonpayable",
      "type": "function"
    },
    {
      "inputs": [
        {
          "internalType": "uint256",
          "name": "_proposalId",
          "type": "uint256"
        },
        {
          "internalType": "bool",
          "name": "isInFavour",
          "type": "bool"
        }
      ],
      "name": "voteForBoardProposal",
      "outputs": [
        {
          "internalType": "bool",
          "name": "",
          "type": "bool"
        }
      ],
      "stateMutability": "payable",
      "type": "function"
    },
    {
      "inputs": [
        {
          "internalType": "uint256",
          "name": "_proposalId",
          "type": "uint256"
        }
      ],
      "name": "executeBoardProposal",
      "outputs": [],
      "stateMutability": "nonpayable",
      "type": "function"
    },
    {
      "inputs": [],
      "name": "getRaiseDaoTokenAddress",
      "outputs": [
        {
          "internalType": "address",
          "name": "",
          "type": "address"
        }
      ],
      "stateMutability": "view",
      "type": "function"
    },
    {
      "inputs": [],
      "name": "getBoardDaoTokenAddress",
      "outputs": [
        {
          "internalType": "address",
          "name": "",
          "type": "address"
        }
      ],
      "stateMutability": "view",
      "type": "function"
    }
  ],
  "bytecode": "0x60806040523480156200001157600080fd5b506040516200abf23803806200abf283398181016040528101906200003791906200045c565b83600090805190602001906200004f929190620001c6565b5033600160006101000a81548173ffffffffffffffffffffffffffffffffffffffff021916908373ffffffffffffffffffffffffffffffffffffffff1602179055504260078190555033600260006101000a81548173ffffffffffffffffffffffffffffffffffffffff021916908373ffffffffffffffffffffffffffffffffffffffff160217905550828282604051620000ea9062000257565b620000f89392919062000599565b604051809103906000f08015801562000115573d6000803e3d6000fd5b50600360006101000a81548173ffffffffffffffffffffffffffffffffffffffff021916908373ffffffffffffffffffffffffffffffffffffffff160217905550670de0b6b3a7640000816200016c919062000613565b600481905550670de0b6b3a76400008162000188919062000613565b6005819055506000600660006101000a81548160ff02191690836002811115620001b757620001b662000674565b5b02179055505050505062000708565b828054620001d490620006d2565b90600052602060002090601f016020900481019282620001f8576000855562000244565b82601f106200021357805160ff191683800117855562000244565b8280016001018555821562000244579182015b828111156200024357825182559160200191906001019062000226565b5b50905062000253919062000265565b5090565b611d478062008eab83390190565b5b808211156200028057600081600090555060010162000266565b5090565b6000604051905090565b600080fd5b600080fd5b600080fd5b600080fd5b6000601f19601f8301169050919050565b7f4e487b7100000000000000000000000000000000000000000000000000000000600052604160045260246000fd5b620002ed82620002a2565b810181811067ffffffffffffffff821117156200030f576200030e620002b3565b5b80604052505050565b60006200032462000284565b9050620003328282620002e2565b919050565b600067ffffffffffffffff821115620003555762000354620002b3565b5b6200036082620002a2565b9050602081019050919050565b60005b838110156200038d57808201518184015260208101905062000370565b838111156200039d576000848401525b50505050565b6000620003ba620003b48462000337565b62000318565b905082815260208101848484011115620003d957620003d86200029d565b5b620003e68482856200036d565b509392505050565b600082601f83011262000406576200040562000298565b5b815162000418848260208601620003a3565b91505092915050565b6000819050919050565b620004368162000421565b81146200044257600080fd5b50565b60008151905062000456816200042b565b92915050565b600080600080608085870312156200047957620004786200028e565b5b600085015167ffffffffffffffff8111156200049a576200049962000293565b5b620004a887828801620003ee565b945050602085015167ffffffffffffffff811115620004cc57620004cb62000293565b5b620004da87828801620003ee565b935050604085015167ffffffffffffffff811115620004fe57620004fd62000293565b5b6200050c87828801620003ee565b92505060606200051f8782880162000445565b91505092959194509250565b600081519050919050565b600082825260208201905092915050565b600062000554826200052b565b62000560818562000536565b9350620005728185602086016200036d565b6200057d81620002a2565b840191505092915050565b620005938162000421565b82525050565b60006060820190508181036000830152620005b5818662000547565b90508181036020830152620005cb818562000547565b9050620005dc604083018462000588565b949350505050565b7f4e487b7100000000000000000000000000000000000000000000000000000000600052601160045260246000fd5b6000620006208262000421565b91506200062d8362000421565b9250817fffffffffffffffffffffffffffffffffffffffffffffffffffffffffffffffff0483118215151615620006695762000668620005e4565b5b828202905092915050565b7f4e487b7100000000000000000000000000000000000000000000000000000000600052602160045260246000fd5b7f4e487b7100000000000000000000000000000000000000000000000000000000600052602260045260246000fd5b60006002820490506001821680620006eb57607f821691505b60208210811415620007025762000701620006a3565b5b50919050565b61879380620007186000396000f3fe6080604052600436106200011b576000357c0100000000000000000000000000000000000000000000000000000000900480635e1ee52a11620000b4578063bb932ced116200007e578063bb932ced1462000374578063ca089df514620003b8578063d328e84d14620003e8578063dc7faacb1462000418576200011b565b80635e1ee52a14620002b85780636af3f74114620002c45780637e673cda14620002fa578063a66f2b891462000344576200011b565b80632ec58ee411620000f65780632ec58ee414620001e05780633b4d01a7146200020e57806345badb1b14620002585780634c86de551462000288576200011b565b8063013cf08b146200012057806317fff9c1146200016e57806328ce7c9714620001b2575b600080fd5b3480156200012d57600080fd5b506200014c6004803603810190620001469190620032d4565b6200044e565b604051620001659b9a9998979695949392919062003480565b60405180910390f35b3480156200017b57600080fd5b506200019a6004803603810190620001949190620035a6565b62000866565b604051620001a991906200360a565b60405180910390f35b348015620001bf57600080fd5b50620001de6004803603810190620001d89190620032d4565b62000c2f565b005b348015620001ed57600080fd5b506200020c6004803603810190620002069190620037a9565b62000f84565b005b3480156200021b57600080fd5b506200023a6004803603810190620002349190620032d4565b620011e2565b6040516200024f979695949392919062003859565b60405180910390f35b3480156200026557600080fd5b5062000270620016fc565b6040516200027f9190620038f2565b60405180910390f35b3480156200029557600080fd5b50620002a0620017b4565b604051620002af91906200360a565b60405180910390f35b620002c2620018e6565b005b620002e26004803603810190620002dc9190620032d4565b62001b46565b604051620002f191906200360a565b60405180910390f35b3480156200030757600080fd5b50620003266004803603810190620003209190620032d4565b62001cbc565b6040516200033b979695949392919062003971565b60405180910390f35b3480156200035157600080fd5b506200035c62001e7c565b6040516200036b919062003a67565b60405180910390f35b3480156200038157600080fd5b50620003a060048036038101906200039a919062003a84565b62001ea2565b604051620003af91906200360a565b60405180910390f35b348015620003c557600080fd5b50620003d06200229e565b604051620003df9190620038f2565b60405180910390f35b348015620003f557600080fd5b50620004006200230f565b6040516200040f919062003c07565b60405180910390f35b62000436600480360381019062000430919062003c55565b6200231c565b6040516200044591906200360a565b60405180910390f35b600a81815481106200045f57600080fd5b90600052602060002090600a0201600091509050806000018054620004849062003ccb565b80601f0160208091040260200160405190810160405280929190818152602001828054620004b29062003ccb565b8015620005035780601f10620004d75761010080835404028352916020019162000503565b820191906000526020600020905b815481529060010190602001808311620004e557829003601f168201915b5050505050908060010180546200051a9062003ccb565b80601f0160208091040260200160405190810160405280929190818152602001828054620005489062003ccb565b8015620005995780601f106200056d5761010080835404028352916020019162000599565b820191906000526020600020905b8154815290600101906020018083116200057b57829003601f168201915b505050505090806002018054620005b09062003ccb565b80601f0160208091040260200160405190810160405280929190818152602001828054620005de9062003ccb565b80156200062f5780601f1062000603576101008083540402835291602001916200062f565b820191906000526020600020905b8154815290600101906020018083116200061157829003601f168201915b505050505090806003018054620006469062003ccb565b80601f0160208091040260200160405190810160405280929190818152602001828054620006749062003ccb565b8015620006c55780601f106200069957610100808354040283529160200191620006c5565b820191906000526020600020905b815481529060010190602001808311620006a757829003601f168201915b505050505090806004018054620006dc9062003ccb565b80601f01602080910402602001604051908101604052809291908181526020018280546200070a9062003ccb565b80156200075b5780601f106200072f576101008083540402835291602001916200075b565b820191906000526020600020905b8154815290600101906020018083116200073d57829003601f168201915b505050505090806005018054620007729062003ccb565b80601f0160208091040260200160405190810160405280929190818152602001828054620007a09062003ccb565b8015620007f15780601f10620007c557610100808354040283529160200191620007f1565b820191906000526020600020905b815481529060010190602001808311620007d357829003601f168201915b5050505050908060060160009054906101000a900473ffffffffffffffffffffffffffffffffffffffff16908060060160149054906101000a900460ff16908060070160009054906101000a900473ffffffffffffffffffffffffffffffffffffffff1690806008015490806009015490508b565b600080600360009054906101000a900473ffffffffffffffffffffffffffffffffffffffff1673ffffffffffffffffffffffffffffffffffffffff166370a08231336040518263ffffffff167c0100000000000000000000000000000000000000000000000000000000028152600401620008e29190620038f2565b602060405180830381865afa15801562000900573d6000803e3d6000fd5b505050506040513d601f19601f8201168201806040525081019062000926919062003d18565b116200093157600080fd5b60006002811115620009485762000947620033ef565b5b600660009054906101000a900460ff1660028111156200096d576200096c620033ef565b5b146200097857600080fd5b81600360009054906101000a900473ffffffffffffffffffffffffffffffffffffffff1673ffffffffffffffffffffffffffffffffffffffff166370a08231336040518263ffffffff167c0100000000000000000000000000000000000000000000000000000000028152600401620009f29190620038f2565b602060405180830381865afa15801562000a10573d6000803e3d6000fd5b505050506040513d601f19601f8201168201806040525081019062000a36919062003d18565b101562000a7a576040517f08c379a000000000000000000000000000000000000000000000000000000000815260040162000a719062003d9a565b60405180910390fd5b600360009054906101000a900473ffffffffffffffffffffffffffffffffffffffff1673ffffffffffffffffffffffffffffffffffffffff166323b872dd3330856040518463ffffffff167c010000000000000000000000000000000000000000000000000000000002815260040162000af79392919062003dbc565b6020604051808303816000875af115801562000b17573d6000803e3d6000fd5b505050506040513d601f19601f8201168201806040525081019062000b3d919062003e10565b5081600b60003373ffffffffffffffffffffffffffffffffffffffff1673ffffffffffffffffffffffffffffffffffffffff168152602001908152602001600020600082825462000b8f919062003e71565b92505081905550600c339080600181540180825580915050600190039060005260206000200160009091909190916101000a81548173ffffffffffffffffffffffffffffffffffffffff021916908373ffffffffffffffffffffffffffffffffffffffff16021790555081600e6000858152602001908152602001600020600082825462000c1e919062003e71565b925050819055506001905092915050565b600160009054906101000a900473ffffffffffffffffffffffffffffffffffffffff1673ffffffffffffffffffffffffffffffffffffffff163373ffffffffffffffffffffffffffffffffffffffff161462000c8a57600080fd5b6001600281111562000ca15762000ca0620033ef565b5b600660009054906101000a900460ff16600281111562000cc65762000cc5620033ef565b5b1462000cd157600080fd5b806000600281111562000ce95762000ce8620033ef565b5b6011828154811062000d005762000cff62003ece565b5b906000526020600020906007020160060160009054906101000a900460ff16600281111562000d345762000d33620033ef565b5b1462000d3f57600080fd5b60006011838154811062000d585762000d5762003ece565b5b906000526020600020906007020160050154131562000e7b5760016011838154811062000d8a5762000d8962003ece565b5b906000526020600020906007020160060160006101000a81548160ff0219169083600281111562000dc05762000dbf620033ef565b5b0217905550601260009054906101000a900473ffffffffffffffffffffffffffffffffffffffff1673ffffffffffffffffffffffffffffffffffffffff16636505e8e88360016040518363ffffffff167c010000000000000000000000000000000000000000000000000000000002815260040162000e4192919062003efd565b600060405180830381600087803b15801562000e5c57600080fd5b505af115801562000e71573d6000803e3d6000fd5b5050505062000f80565b60026011838154811062000e945762000e9362003ece565b5b906000526020600020906007020160060160006101000a81548160ff0219169083600281111562000eca5762000ec9620033ef565b5b0217905550601260009054906101000a900473ffffffffffffffffffffffffffffffffffffffff1673ffffffffffffffffffffffffffffffffffffffff16636505e8e88360006040518363ffffffff167c010000000000000000000000000000000000000000000000000000000002815260040162000f4b92919062003efd565b600060405180830381600087803b15801562000f6657600080fd5b505af115801562000f7b573d6000803e3d6000fd5b505050505b5050565b601260009054906101000a900473ffffffffffffffffffffffffffffffffffffffff1673ffffffffffffffffffffffffffffffffffffffff163373ffffffffffffffffffffffffffffffffffffffff161462000fdf57600080fd5b6001600281111562000ff65762000ff5620033ef565b5b600660009054906101000a900460ff1660028111156200101b576200101a620033ef565b5b146200102657600080fd5b60116040518060e001604052808681526020018581526020013373ffffffffffffffffffffffffffffffffffffffff1681526020018473ffffffffffffffffffffffffffffffffffffffff16815260200183815260200160008152602001600060028111156200109b576200109a620033ef565b5b81525090806001815401808255809150506001900390600052602060002090600702016000909190919091506000820151816000019080519060200190620010e5929190620031a4565b50602082015181600101908051906020019062001104929190620031a4565b5060408201518160020160006101000a81548173ffffffffffffffffffffffffffffffffffffffff021916908373ffffffffffffffffffffffffffffffffffffffff16021790555060608201518160030160006101000a81548173ffffffffffffffffffffffffffffffffffffffff021916908373ffffffffffffffffffffffffffffffffffffffff1602179055506080820151816004015560a0820151816005015560c08201518160060160006101000a81548160ff02191690836002811115620011d557620011d4620033ef565b5b0217905550505050505050565b606080606080600080600080600a898154811062001205576200120462003ece565b5b90600052602060002090600a020160405180610160016040529081600082018054620012319062003ccb565b80601f01602080910402602001604051908101604052809291908181526020018280546200125f9062003ccb565b8015620012b05780601f106200128457610100808354040283529160200191620012b0565b820191906000526020600020905b8154815290600101906020018083116200129257829003601f168201915b50505050508152602001600182018054620012cb9062003ccb565b80601f0160208091040260200160405190810160405280929190818152602001828054620012f99062003ccb565b80156200134a5780601f106200131e576101008083540402835291602001916200134a565b820191906000526020600020905b8154815290600101906020018083116200132c57829003601f168201915b50505050508152602001600282018054620013659062003ccb565b80601f0160208091040260200160405190810160405280929190818152602001828054620013939062003ccb565b8015620013e45780601f10620013b857610100808354040283529160200191620013e4565b820191906000526020600020905b815481529060010190602001808311620013c657829003601f168201915b50505050508152602001600382018054620013ff9062003ccb565b80601f01602080910402602001604051908101604052809291908181526020018280546200142d9062003ccb565b80156200147e5780601f1062001452576101008083540402835291602001916200147e565b820191906000526020600020905b8154815290600101906020018083116200146057829003601f168201915b50505050508152602001600482018054620014999062003ccb565b80601f0160208091040260200160405190810160405280929190818152602001828054620014c79062003ccb565b8015620015185780601f10620014ec5761010080835404028352916020019162001518565b820191906000526020600020905b815481529060010190602001808311620014fa57829003601f168201915b50505050508152602001600582018054620015339062003ccb565b80601f0160208091040260200160405190810160405280929190818152602001828054620015619062003ccb565b8015620015b25780601f106200158657610100808354040283529160200191620015b2565b820191906000526020600020905b8154815290600101906020018083116200159457829003601f168201915b505050505081526020016006820160009054906101000a900473ffffffffffffffffffffffffffffffffffffffff1673ffffffffffffffffffffffffffffffffffffffff1673ffffffffffffffffffffffffffffffffffffffff1681526020016006820160149054906101000a900460ff166002811115620016395762001638620033ef565b5b60028111156200164e576200164d620033ef565b5b81526020016007820160009054906101000a900473ffffffffffffffffffffffffffffffffffffffff1673ffffffffffffffffffffffffffffffffffffffff1673ffffffffffffffffffffffffffffffffffffffff1681526020016008820154815260200160098201548152505090508060000151816020015182604001518360a001518460c001518560e00151866101000151975097509750975097509750975050919395979092949650565b6000600280811115620017145762001713620033ef565b5b600660009054906101000a900460ff166002811115620017395762001738620033ef565b5b14156200174557600080fd5b600160028111156200175c576200175b620033ef565b5b600660009054906101000a900460ff166002811115620017815762001780620033ef565b5b146200178c57600080fd5b600f60009054906101000a900473ffffffffffffffffffffffffffffffffffffffff16905090565b6000600160009054906101000a900473ffffffffffffffffffffffffffffffffffffffff1673ffffffffffffffffffffffffffffffffffffffff163373ffffffffffffffffffffffffffffffffffffffff16146200181157600080fd5b60006002811115620018285762001827620033ef565b5b600660009054906101000a900460ff1660028111156200184d576200184c620033ef565b5b146200185857600080fd5b6004805462001868919062003f59565b600d54101562001886576200187c620025f9565b60009050620018e3565b600062001892620028cc565b90507fffffffffffffffffffffffffffffffffffffffffffffffffffffffffffffffff811415620018d257620018c7620025f9565b6000915050620018e3565b620018dd8162002a9f565b60019150505b90565b600060055411620018f657600080fd5b600060028111156200190d576200190c620033ef565b5b600660009054906101000a900460ff166002811115620019325762001931620033ef565b5b146200193d57600080fd5b60055434111562001985576040517f08c379a00000000000000000000000000000000000000000000000000000000081526004016200197c9062004007565b60405180910390fd5b346005600082825462001999919062004029565b9250508190555034600860003373ffffffffffffffffffffffffffffffffffffffff1673ffffffffffffffffffffffffffffffffffffffff168152602001908152602001600020819055506009339080600181540180825580915050600190039060005260206000200160009091909190916101000a81548173ffffffffffffffffffffffffffffffffffffffff021916908373ffffffffffffffffffffffffffffffffffffffff160217905550600360009054906101000a900473ffffffffffffffffffffffffffffffffffffffff1673ffffffffffffffffffffffffffffffffffffffff1663a9059cbb33346040518363ffffffff167c010000000000000000000000000000000000000000000000000000000002815260040162001ac292919062004064565b6020604051808303816000875af115801562001ae2573d6000803e3d6000fd5b505050506040513d601f19601f8201168201806040525081019062001b08919062003e10565b507ff1b03f708b9c39f453fe3f0cef84164c7d6f7df836df0796e1e9c2bce6ee397e333460405162001b3c92919062004064565b60405180910390a1565b600080600281111562001b5e5762001b5d620033ef565b5b600660009054906101000a900460ff16600281111562001b835762001b82620033ef565b5b1462001b8e57600080fd5b6000600281111562001ba55762001ba4620033ef565b5b600a838154811062001bbc5762001bbb62003ece565b5b90600052602060002090600a020160060160149054906101000a900460ff16600281111562001bf05762001bef620033ef565b5b1462001bfb57600080fd5b670de0b6b3a764000034101562001c1157600080fd5b6001600a838154811062001c2a5762001c2962003ece565b5b90600052602060002090600a020160060160146101000a81548160ff0219169083600281111562001c605762001c5f620033ef565b5b021790555060003390508073ffffffffffffffffffffffffffffffffffffffff166108fc349081150290604051600060405180830381858888f1935050505015801562001cb1573d6000803e3d6000fd5b506001915050919050565b6011818154811062001ccd57600080fd5b906000526020600020906007020160009150905080600001805462001cf29062003ccb565b80601f016020809104026020016040519081016040528092919081815260200182805462001d209062003ccb565b801562001d715780601f1062001d455761010080835404028352916020019162001d71565b820191906000526020600020905b81548152906001019060200180831162001d5357829003601f168201915b50505050509080600101805462001d889062003ccb565b80601f016020809104026020016040519081016040528092919081815260200182805462001db69062003ccb565b801562001e075780601f1062001ddb5761010080835404028352916020019162001e07565b820191906000526020600020905b81548152906001019060200180831162001de957829003601f168201915b5050505050908060020160009054906101000a900473ffffffffffffffffffffffffffffffffffffffff16908060030160009054906101000a900473ffffffffffffffffffffffffffffffffffffffff16908060040154908060050154908060060160009054906101000a900460ff16905087565b601060009054906101000a900473ffffffffffffffffffffffffffffffffffffffff1681565b600080600360009054906101000a900473ffffffffffffffffffffffffffffffffffffffff1673ffffffffffffffffffffffffffffffffffffffff166370a08231336040518263ffffffff167c010000000000000000000000000000000000000000000000000000000002815260040162001f1e9190620038f2565b602060405180830381865afa15801562001f3c573d6000803e3d6000fd5b505050506040513d601f19601f8201168201806040525081019062001f62919062003d18565b1162001f6d57600080fd5b6000600281111562001f845762001f83620033ef565b5b600660009054906101000a900460ff16600281111562001fa95762001fa8620033ef565b5b1462001fb457600080fd5b6031831462001ffa576040517f08c379a000000000000000000000000000000000000000000000000000000000815260040162001ff19062004107565b60405180910390fd5b6031821462002040576040517f08c379a0000000000000000000000000000000000000000000000000000000008152600401620020379062004107565b60405180910390fd5b600a6040518061016001604052808b81526020018a81526020018981526020018881526020018781526020018681526020013373ffffffffffffffffffffffffffffffffffffffff16815260200160006002811115620020a557620020a4620033ef565b5b8152602001600073ffffffffffffffffffffffffffffffffffffffff1681526020018581526020018481525090806001815401808255809150506001900390600052602060002090600a0201600090919091909150600082015181600001908051906020019062002118929190620031a4565b50602082015181600101908051906020019062002137929190620031a4565b50604082015181600201908051906020019062002156929190620031a4565b50606082015181600301908051906020019062002175929190620031a4565b50608082015181600401908051906020019062002194929190620031a4565b5060a0820151816005019080519060200190620021b3929190620031a4565b5060c08201518160060160006101000a81548173ffffffffffffffffffffffffffffffffffffffff021916908373ffffffffffffffffffffffffffffffffffffffff16021790555060e08201518160060160146101000a81548160ff02191690836002811115620022295762002228620033ef565b5b02179055506101008201518160070160006101000a81548173ffffffffffffffffffffffffffffffffffffffff021916908373ffffffffffffffffffffffffffffffffffffffff1602179055506101208201518160080155610140820151816009015550506001905098975050505050505050565b6000600280811115620022b657620022b5620033ef565b5b600660009054906101000a900460ff166002811115620022db57620022da620033ef565b5b1415620022e757600080fd5b600360009054906101000a900473ffffffffffffffffffffffffffffffffffffffff16905090565b6000600a80549050905090565b600080600360009054906101000a900473ffffffffffffffffffffffffffffffffffffffff1673ffffffffffffffffffffffffffffffffffffffff166370a08231336040518263ffffffff167c0100000000000000000000000000000000000000000000000000000000028152600401620023989190620038f2565b602060405180830381865afa158015620023b6573d6000803e3d6000fd5b505050506040513d601f19601f82011682018060405250810190620023dc919062003d18565b11620023e757600080fd5b60016002811115620023fe57620023fd620033ef565b5b600660009054906101000a900460ff166002811115620024235762002422620033ef565b5b146200242e57600080fd5b8260006002811115620024465762002445620033ef565b5b601182815481106200245d576200245c62003ece565b5b906000526020600020906007020160060160009054906101000a900460ff166002811115620024915762002490620033ef565b5b146200249c57600080fd5b34600b60003373ffffffffffffffffffffffffffffffffffffffff1673ffffffffffffffffffffffffffffffffffffffff1681526020019081526020016000206000828254620024ed919062003e71565b92505081905550600c339080600181540180825580915050600190039060005260206000200160009091909190916101000a81548173ffffffffffffffffffffffffffffffffffffffff021916908373ffffffffffffffffffffffffffffffffffffffff160217905550600115158315151415620025ac5734601185815481106200257d576200257c62003ece565b5b906000526020600020906007020160050160008282546200259f919062004129565b92505081905550620025ee565b3460118581548110620025c457620025c362003ece565b5b90600052602060002090600702016005016000828254620025e69190620041c7565b925050819055505b600191505092915050565b600160009054906101000a900473ffffffffffffffffffffffffffffffffffffffff1673ffffffffffffffffffffffffffffffffffffffff163373ffffffffffffffffffffffffffffffffffffffff16146200265457600080fd5b600060028111156200266b576200266a620033ef565b5b600660009054906101000a900460ff16600281111562002690576200268f620033ef565b5b146200269b57600080fd5b6000805b60098054905081101562002753576008600060098381548110620026c857620026c762003ece565b5b9060005260206000200160009054906101000a900473ffffffffffffffffffffffffffffffffffffffff1673ffffffffffffffffffffffffffffffffffffffff1673ffffffffffffffffffffffffffffffffffffffff16815260200190815260200160002054826200273b919062003e71565b915080806200274a9062004265565b9150506200269f565b50600080600090505b60098054905081101562002899576009818154811062002781576200278062003ece565b5b9060005260206000200160009054906101000a900473ffffffffffffffffffffffffffffffffffffffff1691508173ffffffffffffffffffffffffffffffffffffffff166108fc846008600060098681548110620027e457620027e362003ece565b5b9060005260206000200160009054906101000a900473ffffffffffffffffffffffffffffffffffffffff1673ffffffffffffffffffffffffffffffffffffffff1673ffffffffffffffffffffffffffffffffffffffff1681526020019081526020016000205462002856919062003f59565b9081150290604051600060405180830381858888f1935050505015801562002882573d6000803e3d6000fd5b508080620028909062004265565b9150506200275c565b506002600660006101000a81548160ff02191690836002811115620028c357620028c2620033ef565b5b02179055505050565b6000600160009054906101000a900473ffffffffffffffffffffffffffffffffffffffff1673ffffffffffffffffffffffffffffffffffffffff163373ffffffffffffffffffffffffffffffffffffffff16146200292957600080fd5b6000600281111562002940576200293f620033ef565b5b600660009054906101000a900460ff166002811115620029655762002964620033ef565b5b146200297057600080fd5b60007fffffffffffffffffffffffffffffffffffffffffffffffffffffffffffffffff90506000600e60007fffffffffffffffffffffffffffffffffffffffffffffffffffffffffffffffff815260200190815260200160002054905060005b600a8054905081121562002a965781600e60008381526020019081526020016000205413801562002a6057506000600281111562002a135762002a12620033ef565b5b600a828154811062002a2a5762002a2962003ece565b5b90600052602060002090600a020160060160149054906101000a900460ff16600281111562002a5e5762002a5d620033ef565b5b145b1562002a8057600e60008281526020019081526020016000205491508092505b808062002a8d90620042b3565b915050620029d0565b50819250505090565b600160009054906101000a900473ffffffffffffffffffffffffffffffffffffffff1673ffffffffffffffffffffffffffffffffffffffff163373ffffffffffffffffffffffffffffffffffffffff161462002afa57600080fd5b6000600281111562002b115762002b10620033ef565b5b600660009054906101000a900460ff16600281111562002b365762002b35620033ef565b5b1462002b4157600080fd5b6002600a828154811062002b5a5762002b5962003ece565b5b90600052602060002090600a020160060160146101000a81548160ff0219169083600281111562002b905762002b8f620033ef565b5b0217905550600a818154811062002bac5762002bab62003ece565b5b90600052602060002090600a020160060160009054906101000a900473ffffffffffffffffffffffffffffffffffffffff16600260009054906101000a900473ffffffffffffffffffffffffffffffffffffffff16600a838154811062002c185762002c1762003ece565b5b90600052602060002090600a020160080154600a848154811062002c415762002c4062003ece565b5b90600052602060002090600a0201600901546002600a868154811062002c6c5762002c6b62003ece565b5b90600052602060002090600a0201600301600a878154811062002c945762002c9362003ece565b5b90600052602060002090600a0201600401600360009054906101000a900473ffffffffffffffffffffffffffffffffffffffff1660405162002cd69062003235565b62002ce9989796959493929190620043e5565b604051809103906000f08015801562002d06573d6000803e3d6000fd5b50601260006101000a81548173ffffffffffffffffffffffffffffffffffffffff021916908373ffffffffffffffffffffffffffffffffffffffff160217905550601260009054906101000a900473ffffffffffffffffffffffffffffffffffffffff1673ffffffffffffffffffffffffffffffffffffffff166310fe9ae86040518163ffffffff167c0100000000000000000000000000000000000000000000000000000000028152600401602060405180830381865afa15801562002dd1573d6000803e3d6000fd5b505050506040513d601f19601f8201168201806040525081019062002df7919062004498565b600f60006101000a81548173ffffffffffffffffffffffffffffffffffffffff021916908373ffffffffffffffffffffffffffffffffffffffff160217905550600f60009054906101000a900473ffffffffffffffffffffffffffffffffffffffff16601060006101000a81548173ffffffffffffffffffffffffffffffffffffffff021916908373ffffffffffffffffffffffffffffffffffffffff1602179055506001600660006101000a81548160ff0219169083600281111562002ec35762002ec2620033ef565b5b021790555062002ed262002ed5565b50565b600160009054906101000a900473ffffffffffffffffffffffffffffffffffffffff1673ffffffffffffffffffffffffffffffffffffffff163373ffffffffffffffffffffffffffffffffffffffff161462002f3057600080fd5b600080600090505b600c80549050811015620030e257600c818154811062002f5d5762002f5c62003ece565b5b9060005260206000200160009054906101000a900473ffffffffffffffffffffffffffffffffffffffff169150600360009054906101000a900473ffffffffffffffffffffffffffffffffffffffff1673ffffffffffffffffffffffffffffffffffffffff1663a9059cbb83600860006009868154811062002fe45762002fe362003ece565b5b9060005260206000200160009054906101000a900473ffffffffffffffffffffffffffffffffffffffff1673ffffffffffffffffffffffffffffffffffffffff1673ffffffffffffffffffffffffffffffffffffffff168152602001908152602001600020546040518363ffffffff167c010000000000000000000000000000000000000000000000000000000002815260040162003085929190620044ef565b6020604051808303816000875af1158015620030a5573d6000803e3d6000fd5b505050506040513d601f19601f82011682018060405250810190620030cb919062003e10565b508080620030d99062004265565b91505062002f38565b5060005b600c8054905081101562003190576000600b6000600c848154811062003111576200311062003ece565b5b9060005260206000200160009054906101000a900473ffffffffffffffffffffffffffffffffffffffff1673ffffffffffffffffffffffffffffffffffffffff1673ffffffffffffffffffffffffffffffffffffffff168152602001908152602001600020819055508080620031879062004265565b915050620030e6565b50600c6000620031a1919062003243565b50565b828054620031b29062003ccb565b90600052602060002090601f016020900481019282620031d6576000855562003222565b82601f10620031f157805160ff191683800117855562003222565b8280016001018555821562003222579182015b828111156200322157825182559160200191906001019062003204565b5b50905062003231919062003266565b5090565b614241806200451d83390190565b508054600082559060005260206000209081019062003263919062003266565b50565b5b808211156200328157600081600090555060010162003267565b5090565b6000604051905090565b600080fd5b600080fd5b6000819050919050565b620032ae8162003299565b8114620032ba57600080fd5b50565b600081359050620032ce81620032a3565b92915050565b600060208284031215620032ed57620032ec6200328f565b5b6000620032fd84828501620032bd565b91505092915050565b600081519050919050565b600082825260208201905092915050565b60005b838110156200334257808201518184015260208101905062003325565b8381111562003352576000848401525b50505050565b6000601f19601f8301169050919050565b6000620033768262003306565b62003382818562003311565b93506200339481856020860162003322565b6200339f8162003358565b840191505092915050565b600073ffffffffffffffffffffffffffffffffffffffff82169050919050565b6000620033d782620033aa565b9050919050565b620033e981620033ca565b82525050565b7f4e487b7100000000000000000000000000000000000000000000000000000000600052602160045260246000fd5b60038110620034325762003431620033ef565b5b50565b600081905062003445826200341e565b919050565b6000620034578262003435565b9050919050565b62003469816200344a565b82525050565b6200347a8162003299565b82525050565b60006101608201905081810360008301526200349d818e62003369565b90508181036020830152620034b3818d62003369565b90508181036040830152620034c9818c62003369565b90508181036060830152620034df818b62003369565b90508181036080830152620034f5818a62003369565b905081810360a08301526200350b818962003369565b90506200351c60c0830188620033de565b6200352b60e08301876200345e565b6200353b610100830186620033de565b6200354b6101208301856200346f565b6200355b6101408301846200346f565b9c9b505050505050505050505050565b6000819050919050565b62003580816200356b565b81146200358c57600080fd5b50565b600081359050620035a08162003575565b92915050565b60008060408385031215620035c057620035bf6200328f565b5b6000620035d0858286016200358f565b9250506020620035e385828601620032bd565b9150509250929050565b60008115159050919050565b6200360481620035ed565b82525050565b6000602082019050620036216000830184620035f9565b92915050565b600080fd5b600080fd5b7f4e487b7100000000000000000000000000000000000000000000000000000000600052604160045260246000fd5b6200366b8262003358565b810181811067ffffffffffffffff821117156200368d576200368c62003631565b5b80604052505050565b6000620036a262003285565b9050620036b0828262003660565b919050565b600067ffffffffffffffff821115620036d357620036d262003631565b5b620036de8262003358565b9050602081019050919050565b82818337600083830152505050565b6000620037116200370b84620036b5565b62003696565b90508281526020810184848401111562003730576200372f6200362c565b5b6200373d848285620036eb565b509392505050565b600082601f8301126200375d576200375c62003627565b5b81356200376f848260208601620036fa565b91505092915050565b6200378381620033ca565b81146200378f57600080fd5b50565b600081359050620037a38162003778565b92915050565b60008060008060808587031215620037c657620037c56200328f565b5b600085013567ffffffffffffffff811115620037e757620037e662003294565b5b620037f58782880162003745565b945050602085013567ffffffffffffffff81111562003819576200381862003294565b5b620038278782880162003745565b93505060406200383a8782880162003792565b92505060606200384d87828801620032bd565b91505092959194509250565b600060e082019050818103600083015262003875818a62003369565b905081810360208301526200388b818962003369565b90508181036040830152620038a1818862003369565b90508181036060830152620038b7818762003369565b9050620038c86080830186620033de565b620038d760a08301856200345e565b620038e660c0830184620033de565b98975050505050505050565b6000602082019050620039096000830184620033de565b92915050565b6200391a816200356b565b82525050565b60038110620039345762003933620033ef565b5b50565b6000819050620039478262003920565b919050565b6000620039598262003937565b9050919050565b6200396b816200394c565b82525050565b600060e08201905081810360008301526200398d818a62003369565b90508181036020830152620039a3818962003369565b9050620039b46040830188620033de565b620039c36060830187620033de565b620039d260808301866200346f565b620039e160a08301856200390f565b620039f060c083018462003960565b98975050505050505050565b6000819050919050565b600062003a2762003a2162003a1b84620033aa565b620039fc565b620033aa565b9050919050565b600062003a3b8262003a06565b9050919050565b600062003a4f8262003a2e565b9050919050565b62003a618162003a42565b82525050565b600060208201905062003a7e600083018462003a56565b92915050565b600080600080600080600080610100898b03121562003aa85762003aa76200328f565b5b600089013567ffffffffffffffff81111562003ac95762003ac862003294565b5b62003ad78b828c0162003745565b985050602089013567ffffffffffffffff81111562003afb5762003afa62003294565b5b62003b098b828c0162003745565b975050604089013567ffffffffffffffff81111562003b2d5762003b2c62003294565b5b62003b3b8b828c0162003745565b965050606089013567ffffffffffffffff81111562003b5f5762003b5e62003294565b5b62003b6d8b828c0162003745565b955050608089013567ffffffffffffffff81111562003b915762003b9062003294565b5b62003b9f8b828c0162003745565b94505060a089013567ffffffffffffffff81111562003bc35762003bc262003294565b5b62003bd18b828c0162003745565b93505060c062003be48b828c01620032bd565b92505060e062003bf78b828c01620032bd565b9150509295985092959890939650565b600060208201905062003c1e60008301846200346f565b92915050565b62003c2f81620035ed565b811462003c3b57600080fd5b50565b60008135905062003c4f8162003c24565b92915050565b6000806040838503121562003c6f5762003c6e6200328f565b5b600062003c7f85828601620032bd565b925050602062003c928582860162003c3e565b9150509250929050565b7f4e487b7100000000000000000000000000000000000000000000000000000000600052602260045260246000fd5b6000600282049050600182168062003ce457607f821691505b6020821081141562003cfb5762003cfa62003c9c565b5b50919050565b60008151905062003d1281620032a3565b92915050565b60006020828403121562003d315762003d306200328f565b5b600062003d418482850162003d01565b91505092915050565b7f496e73756666696369656e742044414f20746f6b656e73000000000000000000600082015250565b600062003d8260178362003311565b915062003d8f8262003d4a565b602082019050919050565b6000602082019050818103600083015262003db58162003d73565b9050919050565b600060608201905062003dd36000830186620033de565b62003de26020830185620033de565b62003df160408301846200346f565b949350505050565b60008151905062003e0a8162003c24565b92915050565b60006020828403121562003e295762003e286200328f565b5b600062003e398482850162003df9565b91505092915050565b7f4e487b7100000000000000000000000000000000000000000000000000000000600052601160045260246000fd5b600062003e7e8262003299565b915062003e8b8362003299565b9250827fffffffffffffffffffffffffffffffffffffffffffffffffffffffffffffffff0382111562003ec35762003ec262003e42565b5b828201905092915050565b7f4e487b7100000000000000000000000000000000000000000000000000000000600052603260045260246000fd5b600060408201905062003f1460008301856200346f565b62003f236020830184620035f9565b9392505050565b7f4e487b7100000000000000000000000000000000000000000000000000000000600052601260045260246000fd5b600062003f668262003299565b915062003f738362003299565b92508262003f865762003f8562003f2a565b5b828204905092915050565b7f4e6f7420656e6f756768206d656d6265727368697020746f6b656e732061766160008201527f696c61626c650000000000000000000000000000000000000000000000000000602082015250565b600062003fef60268362003311565b915062003ffc8262003f91565b604082019050919050565b60006020820190508181036000830152620040228162003fe0565b9050919050565b6000620040368262003299565b9150620040438362003299565b92508282101562004059576200405862003e42565b5b828203905092915050565b60006040820190506200407b6000830185620033de565b6200408a60208301846200346f565b9392505050565b7f4f6e6c792034392d34392d322073747275637475726520697320616c6c6f776560008201527f642063757272656e746c79000000000000000000000000000000000000000000602082015250565b6000620040ef602b8362003311565b9150620040fc8262004091565b604082019050919050565b600060208201905081810360008301526200412281620040e0565b9050919050565b600062004136826200356b565b915062004143836200356b565b9250817f7fffffffffffffffffffffffffffffffffffffffffffffffffffffffffffffff0383136000831215161562004181576200418062003e42565b5b817f8000000000000000000000000000000000000000000000000000000000000000038312600083121615620041bc57620041bb62003e42565b5b828201905092915050565b6000620041d4826200356b565b9150620041e1836200356b565b9250827f8000000000000000000000000000000000000000000000000000000000000000018212600084121516156200421f576200421e62003e42565b5b827f7fffffffffffffffffffffffffffffffffffffffffffffffffffffffffffffff0182136000841216156200425a576200425962003e42565b5b828203905092915050565b6000620042728262003299565b91507fffffffffffffffffffffffffffffffffffffffffffffffffffffffffffffffff821415620042a857620042a762003e42565b5b600182019050919050565b6000620042c0826200356b565b91507f7fffffffffffffffffffffffffffffffffffffffffffffffffffffffffffffff821415620042f657620042f562003e42565b5b600182019050919050565b6000819050919050565b60006200432c62004326620043208462004301565b620039fc565b62003299565b9050919050565b6200433e816200430b565b82525050565b60008190508160005260206000209050919050565b60008154620043688162003ccb565b62004374818662003311565b94506001821660008114620043925760018114620043a557620043dc565b60ff1983168652602086019350620043dc565b620043b08562004344565b60005b83811015620043d457815481890152600182019150602081019050620043b3565b808801955050505b50505092915050565b600061010082019050620043fd600083018b620033de565b6200440c602083018a620033de565b6200441b60408301896200346f565b6200442a60608301886200346f565b62004439608083018762004333565b81810360a08301526200444d818662004359565b905081810360c083015262004463818562004359565b90506200447460e0830184620033de565b9998505050505050505050565b600081519050620044928162003778565b92915050565b600060208284031215620044b157620044b06200328f565b5b6000620044c18482850162004481565b91505092915050565b6000620044d78262003a2e565b9050919050565b620044e981620044ca565b82525050565b6000604082019050620045066000830185620044de565b6200451560208301846200346f565b939250505056fe60806040523480156200001157600080fd5b506040516200424138038062004241833981810160405281019062000037919062000581565b336000806101000a81548173ffffffffffffffffffffffffffffffffffffffff021916908373ffffffffffffffffffffffffffffffffffffffff16021790555033600160006101000a81548173ffffffffffffffffffffffffffffffffffffffff021916908373ffffffffffffffffffffffffffffffffffffffff16021790555033600260006101000a81548173ffffffffffffffffffffffffffffffffffffffff021916908373ffffffffffffffffffffffffffffffffffffffff16021790555086600460006101000a81548173ffffffffffffffffffffffffffffffffffffffff021916908373ffffffffffffffffffffffffffffffffffffffff16021790555087600360006101000a81548173ffffffffffffffffffffffffffffffffffffffff021916908373ffffffffffffffffffffffffffffffffffffffff160217905550828260646040516200018d9062000336565b6200019b9392919062000732565b604051809103906000f080158015620001b8573d6000803e3d6000fd5b50600760006101000a81548173ffffffffffffffffffffffffffffffffffffffff021916908373ffffffffffffffffffffffffffffffffffffffff1602179055508560066000600260009054906101000a900473ffffffffffffffffffffffffffffffffffffffff1673ffffffffffffffffffffffffffffffffffffffff1673ffffffffffffffffffffffffffffffffffffffff1681526020019081526020016000208190555084600660008a73ffffffffffffffffffffffffffffffffffffffff1673ffffffffffffffffffffffffffffffffffffffff1681526020019081526020016000208190555083600660008973ffffffffffffffffffffffffffffffffffffffff1673ffffffffffffffffffffffffffffffffffffffff1681526020019081526020016000208190555080600560006101000a81548173ffffffffffffffffffffffffffffffffffffffff021916908373ffffffffffffffffffffffffffffffffffffffff16021790555050505050505050506200077d565b611d4780620024fa83390190565b6000604051905090565b600080fd5b600080fd5b600073ffffffffffffffffffffffffffffffffffffffff82169050919050565b6000620003858262000358565b9050919050565b620003978162000378565b8114620003a357600080fd5b50565b600081519050620003b7816200038c565b92915050565b6000819050919050565b620003d281620003bd565b8114620003de57600080fd5b50565b600081519050620003f281620003c7565b92915050565b600080fd5b600080fd5b6000601f19601f8301169050919050565b7f4e487b7100000000000000000000000000000000000000000000000000000000600052604160045260246000fd5b6200044d8262000402565b810181811067ffffffffffffffff821117156200046f576200046e62000413565b5b80604052505050565b60006200048462000344565b905062000492828262000442565b919050565b600067ffffffffffffffff821115620004b557620004b462000413565b5b620004c08262000402565b9050602081019050919050565b60005b83811015620004ed578082015181840152602081019050620004d0565b83811115620004fd576000848401525b50505050565b60006200051a620005148462000497565b62000478565b905082815260208101848484011115620005395762000538620003fd565b5b62000546848285620004cd565b509392505050565b600082601f830112620005665762000565620003f8565b5b81516200057884826020860162000503565b91505092915050565b600080600080600080600080610100898b031215620005a557620005a46200034e565b5b6000620005b58b828c01620003a6565b9850506020620005c88b828c01620003a6565b9750506040620005db8b828c01620003e1565b9650506060620005ee8b828c01620003e1565b9550506080620006018b828c01620003e1565b94505060a089015167ffffffffffffffff81111562000625576200062462000353565b5b620006338b828c016200054e565b93505060c089015167ffffffffffffffff81111562000657576200065662000353565b5b620006658b828c016200054e565b92505060e0620006788b828c01620003a6565b9150509295985092959890939650565b600081519050919050565b600082825260208201905092915050565b6000620006b18262000688565b620006bd818562000693565b9350620006cf818560208601620004cd565b620006da8162000402565b840191505092915050565b6000819050919050565b6000819050919050565b60006200071a620007146200070e84620006e5565b620006ef565b620003bd565b9050919050565b6200072c81620006f9565b82525050565b600060608201905081810360008301526200074e8186620006a4565b90508181036020830152620007648185620006a4565b905062000775604083018462000721565b949350505050565b611d6d806200078d6000396000f3fe608060405260043610610072576000357c010000000000000000000000000000000000000000000000000000000090048063013cf08b1461007757806310fe9ae8146100ba5780636505e8e8146100e55780637cdc2eb714610101578063d3c697581461012a578063f073139f14610141575b600080fd5b34801561008357600080fd5b5061009e6004803603810190610099919061141e565b61016a565b6040516100b197969594939291906115c4565b60405180910390f35b3480156100c657600080fd5b506100cf610319565b6040516100dc9190611641565b60405180910390f35b6100ff60048036038101906100fa9190611694565b610343565b005b34801561010d57600080fd5b5061012860048036038101906101239190611835565b61072d565b005b34801561013657600080fd5b5061013f610aac565b005b34801561014d57600080fd5b506101686004803603810190610163919061141e565b6110a7565b005b6008818154811061017a57600080fd5b906000526020600020906007020160009150905080600001805461019d90611903565b80601f01602080910402602001604051908101604052809291908181526020018280546101c990611903565b80156102165780601f106101eb57610100808354040283529160200191610216565b820191906000526020600020905b8154815290600101906020018083116101f957829003601f168201915b50505050509080600101805461022b90611903565b80601f016020809104026020016040519081016040528092919081815260200182805461025790611903565b80156102a45780601f10610279576101008083540402835291602001916102a4565b820191906000526020600020905b81548152906001019060200180831161028757829003601f168201915b5050505050908060020160009054906101000a900473ffffffffffffffffffffffffffffffffffffffff16908060030160009054906101000a900473ffffffffffffffffffffffffffffffffffffffff16908060040154908060050154908060060160009054906101000a900460ff16905087565b6000600760009054906101000a900473ffffffffffffffffffffffffffffffffffffffff16905090565b6000600760009054906101000a900473ffffffffffffffffffffffffffffffffffffffff1673ffffffffffffffffffffffffffffffffffffffff166370a08231336040518263ffffffff167c01000000000000000000000000000000000000000000000000000000000281526004016103bc9190611641565b602060405180830381865afa1580156103d9573d6000803e3d6000fd5b505050506040513d601f19601f820116820180604052508101906103fd919061194a565b1161040757600080fd5b816000600281111561041c5761041b61154d565b5b600882815481106104305761042f611977565b5b906000526020600020906007020160060160009054906101000a900460ff1660028111156104615761046061154d565b5b1461046b57600080fd5b6000600760009054906101000a900473ffffffffffffffffffffffffffffffffffffffff1673ffffffffffffffffffffffffffffffffffffffff166370a08231336040518263ffffffff167c01000000000000000000000000000000000000000000000000000000000281526004016104e49190611641565b602060405180830381865afa158015610501573d6000803e3d6000fd5b505050506040513d601f19601f82011682018060405250810190610525919061194a565b1161052f57600080fd5b60011515821515141561063457600760009054906101000a900473ffffffffffffffffffffffffffffffffffffffff1673ffffffffffffffffffffffffffffffffffffffff166370a08231336040518263ffffffff167c01000000000000000000000000000000000000000000000000000000000281526004016105b39190611641565b602060405180830381865afa1580156105d0573d6000803e3d6000fd5b505050506040513d601f19601f820116820180604052508101906105f4919061194a565b6008848154811061060857610607611977565b5b9060005260206000209060070201600501600082825461062891906119d5565b92505081905550610728565b600760009054906101000a900473ffffffffffffffffffffffffffffffffffffffff1673ffffffffffffffffffffffffffffffffffffffff166370a08231336040518263ffffffff167c01000000000000000000000000000000000000000000000000000000000281526004016106ab9190611641565b602060405180830381865afa1580156106c8573d6000803e3d6000fd5b505050506040513d601f19601f820116820180604052508101906106ec919061194a565b60088481548110610700576106ff611977565b5b906000526020600020906007020160050160008282546107209190611a69565b925050819055505b505050565b6000600760009054906101000a900473ffffffffffffffffffffffffffffffffffffffff1673ffffffffffffffffffffffffffffffffffffffff166370a08231336040518263ffffffff167c01000000000000000000000000000000000000000000000000000000000281526004016107a69190611641565b602060405180830381865afa1580156107c3573d6000803e3d6000fd5b505050506040513d601f19601f820116820180604052508101906107e7919061194a565b116107f157600080fd5b803073ffffffffffffffffffffffffffffffffffffffff1631101561084b576040517f08c379a000000000000000000000000000000000000000000000000000000000815260040161084290611b49565b60405180910390fd5b60086040518060e001604052808681526020018581526020013373ffffffffffffffffffffffffffffffffffffffff1681526020018473ffffffffffffffffffffffffffffffffffffffff16815260200183815260200160008152602001600060028111156108bd576108bc61154d565b5b81525090806001815401808255809150506001900390600052602060002090600702016000909190919091506000820151816000019080519060200190610905929190611331565b506020820151816001019080519060200190610922929190611331565b5060408201518160020160006101000a81548173ffffffffffffffffffffffffffffffffffffffff021916908373ffffffffffffffffffffffffffffffffffffffff16021790555060608201518160030160006101000a81548173ffffffffffffffffffffffffffffffffffffffff021916908373ffffffffffffffffffffffffffffffffffffffff1602179055506080820151816004015560a0820151816005015560c08201518160060160006101000a81548160ff021916908360028111156109f0576109ef61154d565b5b02179055505050600160009054906101000a900473ffffffffffffffffffffffffffffffffffffffff1673ffffffffffffffffffffffffffffffffffffffff16632ec58ee4858585856040518563ffffffff167c0100000000000000000000000000000000000000000000000000000000028152600401610a749493929190611b69565b600060405180830381600087803b158015610a8e57600080fd5b505af1158015610aa2573d6000803e3d6000fd5b5050505050505050565b60008054906101000a900473ffffffffffffffffffffffffffffffffffffffff1673ffffffffffffffffffffffffffffffffffffffff163373ffffffffffffffffffffffffffffffffffffffff1614610b0457600080fd5b60003073ffffffffffffffffffffffffffffffffffffffff163111610b2857600080fd5b600060066000600460009054906101000a900473ffffffffffffffffffffffffffffffffffffffff1673ffffffffffffffffffffffffffffffffffffffff1673ffffffffffffffffffffffffffffffffffffffff1681526020019081526020016000205460066000600360009054906101000a900473ffffffffffffffffffffffffffffffffffffffff1673ffffffffffffffffffffffffffffffffffffffff1673ffffffffffffffffffffffffffffffffffffffff1681526020019081526020016000205460066000600260009054906101000a900473ffffffffffffffffffffffffffffffffffffffff1673ffffffffffffffffffffffffffffffffffffffff1673ffffffffffffffffffffffffffffffffffffffff16815260200190815260200160002054610c5a9190611bbc565b610c649190611bbc565b9050600760009054906101000a900473ffffffffffffffffffffffffffffffffffffffff1673ffffffffffffffffffffffffffffffffffffffff1663a9059cbb600260009054906101000a900473ffffffffffffffffffffffffffffffffffffffff16670de0b6b3a764000084606460066000600260009054906101000a900473ffffffffffffffffffffffffffffffffffffffff1673ffffffffffffffffffffffffffffffffffffffff1673ffffffffffffffffffffffffffffffffffffffff16815260200190815260200160002054610d3f9190611c12565b610d499190611c9b565b610d539190611c12565b6040518363ffffffff167c0100000000000000000000000000000000000000000000000000000000028152600401610d8c929190611ccc565b6020604051808303816000875af1158015610dab573d6000803e3d6000fd5b505050506040513d601f19601f82011682018060405250810190610dcf9190611d0a565b50600760009054906101000a900473ffffffffffffffffffffffffffffffffffffffff1673ffffffffffffffffffffffffffffffffffffffff1663a9059cbb600260009054906101000a900473ffffffffffffffffffffffffffffffffffffffff16670de0b6b3a764000084606460066000600360009054906101000a900473ffffffffffffffffffffffffffffffffffffffff1673ffffffffffffffffffffffffffffffffffffffff1673ffffffffffffffffffffffffffffffffffffffff16815260200190815260200160002054610ea99190611c12565b610eb39190611c9b565b610ebd9190611c12565b6040518363ffffffff167c0100000000000000000000000000000000000000000000000000000000028152600401610ef6929190611ccc565b6020604051808303816000875af1158015610f15573d6000803e3d6000fd5b505050506040513d601f19601f82011682018060405250810190610f399190611d0a565b50600760009054906101000a900473ffffffffffffffffffffffffffffffffffffffff1673ffffffffffffffffffffffffffffffffffffffff1663a9059cbb600260009054906101000a900473ffffffffffffffffffffffffffffffffffffffff16670de0b6b3a764000084606460066000600460009054906101000a900473ffffffffffffffffffffffffffffffffffffffff1673ffffffffffffffffffffffffffffffffffffffff1673ffffffffffffffffffffffffffffffffffffffff168152602001908152602001600020546110139190611c12565b61101d9190611c9b565b6110279190611c12565b6040518363ffffffff167c0100000000000000000000000000000000000000000000000000000000028152600401611060929190611ccc565b6020604051808303816000875af115801561107f573d6000803e3d6000fd5b505050506040513d601f19601f820116820180604052508101906110a39190611d0a565b5050565b80600060028111156110bc576110bb61154d565b5b600882815481106110d0576110cf611977565b5b906000526020600020906007020160060160009054906101000a900460ff1660028111156111015761110061154d565b5b1461110b57600080fd5b6008828154811061111f5761111e611977565b5b906000526020600020906007020160020160009054906101000a900473ffffffffffffffffffffffffffffffffffffffff1673ffffffffffffffffffffffffffffffffffffffff163373ffffffffffffffffffffffffffffffffffffffff161461118857600080fd5b60006008838154811061119e5761119d611977565b5b906000526020600020906007020160050154131561120e576001600883815481106111cc576111cb611977565b5b906000526020600020906007020160060160006101000a81548160ff021916908360028111156111ff576111fe61154d565b5b021790555061120d82611212565b5b5050565b80600160028111156112275761122661154d565b5b6008828154811061123b5761123a611977565b5b906000526020600020906007020160060160009054906101000a900460ff16600281111561126c5761126b61154d565b5b1461127657600080fd5b60006008838154811061128c5761128b611977565b5b906000526020600020906007020160030160009054906101000a900473ffffffffffffffffffffffffffffffffffffffff1690508073ffffffffffffffffffffffffffffffffffffffff166108fc600885815481106112ee576112ed611977565b5b9060005260206000209060070201600401549081150290604051600060405180830381858888f1935050505015801561132b573d6000803e3d6000fd5b50505050565b82805461133d90611903565b90600052602060002090601f01602090048101928261135f57600085556113a6565b82601f1061137857805160ff19168380011785556113a6565b828001600101855582156113a6579182015b828111156113a557825182559160200191906001019061138a565b5b5090506113b391906113b7565b5090565b5b808211156113d05760008160009055506001016113b8565b5090565b6000604051905090565b600080fd5b600080fd5b6000819050919050565b6113fb816113e8565b811461140657600080fd5b50565b600081359050611418816113f2565b92915050565b600060208284031215611434576114336113de565b5b600061144284828501611409565b91505092915050565b600081519050919050565b600082825260208201905092915050565b60005b8381101561148557808201518184015260208101905061146a565b83811115611494576000848401525b50505050565b6000601f19601f8301169050919050565b60006114b68261144b565b6114c08185611456565b93506114d0818560208601611467565b6114d98161149a565b840191505092915050565b600073ffffffffffffffffffffffffffffffffffffffff82169050919050565b600061150f826114e4565b9050919050565b61151f81611504565b82525050565b61152e816113e8565b82525050565b6000819050919050565b61154781611534565b82525050565b7f4e487b7100000000000000000000000000000000000000000000000000000000600052602160045260246000fd5b6003811061158d5761158c61154d565b5b50565b600081905061159e8261157c565b919050565b60006115ae82611590565b9050919050565b6115be816115a3565b82525050565b600060e08201905081810360008301526115de818a6114ab565b905081810360208301526115f281896114ab565b90506116016040830188611516565b61160e6060830187611516565b61161b6080830186611525565b61162860a083018561153e565b61163560c08301846115b5565b98975050505050505050565b60006020820190506116566000830184611516565b92915050565b60008115159050919050565b6116718161165c565b811461167c57600080fd5b50565b60008135905061168e81611668565b92915050565b600080604083850312156116ab576116aa6113de565b5b60006116b985828601611409565b92505060206116ca8582860161167f565b9150509250929050565b600080fd5b600080fd5b7f4e487b7100000000000000000000000000000000000000000000000000000000600052604160045260246000fd5b6117168261149a565b810181811067ffffffffffffffff82111715611735576117346116de565b5b80604052505050565b60006117486113d4565b9050611754828261170d565b919050565b600067ffffffffffffffff821115611774576117736116de565b5b61177d8261149a565b9050602081019050919050565b82818337600083830152505050565b60006117ac6117a784611759565b61173e565b9050828152602081018484840111156117c8576117c76116d9565b5b6117d384828561178a565b509392505050565b600082601f8301126117f0576117ef6116d4565b5b8135611800848260208601611799565b91505092915050565b61181281611504565b811461181d57600080fd5b50565b60008135905061182f81611809565b92915050565b6000806000806080858703121561184f5761184e6113de565b5b600085013567ffffffffffffffff81111561186d5761186c6113e3565b5b611879878288016117db565b945050602085013567ffffffffffffffff81111561189a576118996113e3565b5b6118a6878288016117db565b93505060406118b787828801611820565b92505060606118c887828801611409565b91505092959194509250565b7f4e487b7100000000000000000000000000000000000000000000000000000000600052602260045260246000fd5b6000600282049050600182168061191b57607f821691505b6020821081141561192f5761192e6118d4565b5b50919050565b600081519050611944816113f2565b92915050565b6000602082840312156119605761195f6113de565b5b600061196e84828501611935565b91505092915050565b7f4e487b7100000000000000000000000000000000000000000000000000000000600052603260045260246000fd5b7f4e487b7100000000000000000000000000000000000000000000000000000000600052601160045260246000fd5b60006119e082611534565b91506119eb83611534565b9250817f7fffffffffffffffffffffffffffffffffffffffffffffffffffffffffffffff03831360008312151615611a2657611a256119a6565b5b817f8000000000000000000000000000000000000000000000000000000000000000038312600083121615611a5e57611a5d6119a6565b5b828201905092915050565b6000611a7482611534565b9150611a7f83611534565b9250827f800000000000000000000000000000000000000000000000000000000000000001821260008412151615611aba57611ab96119a6565b5b827f7fffffffffffffffffffffffffffffffffffffffffffffffffffffffffffffff018213600084121615611af257611af16119a6565b5b828203905092915050565b7f4e6f7420656e6f7567682062616c616e63650000000000000000000000000000600082015250565b6000611b33601283611456565b9150611b3e82611afd565b602082019050919050565b60006020820190508181036000830152611b6281611b26565b9050919050565b60006080820190508181036000830152611b8381876114ab565b90508181036020830152611b9781866114ab565b9050611ba66040830185611516565b611bb36060830184611525565b95945050505050565b6000611bc7826113e8565b9150611bd2836113e8565b9250827fffffffffffffffffffffffffffffffffffffffffffffffffffffffffffffffff03821115611c0757611c066119a6565b5b828201905092915050565b6000611c1d826113e8565b9150611c28836113e8565b9250817fffffffffffffffffffffffffffffffffffffffffffffffffffffffffffffffff0483118215151615611c6157611c606119a6565b5b828202905092915050565b7f4e487b7100000000000000000000000000000000000000000000000000000000600052601260045260246000fd5b6000611ca6826113e8565b9150611cb1836113e8565b925082611cc157611cc0611c6c565b5b828204905092915050565b6000604082019050611ce16000830185611516565b611cee6020830184611525565b9392505050565b600081519050611d0481611668565b92915050565b600060208284031215611d2057611d1f6113de565b5b6000611d2e84828501611cf5565b9150509291505056fea2646970667358221220ca919290140f143f2bd56573b61cc15d5fb855d3d1ee509c4979c7ec7b91f9aa64736f6c634300080a003360806040523480156200001157600080fd5b5060405162001d4738038062001d4783398181016040528101906200003791906200052e565b8282816003908051906020019062000051929190620002a6565b5080600490805190602001906200006a929190620002a6565b505050620000be336200008b62000108640100000000026401000000009004565b60ff16600a6200009c91906200074b565b83620000a991906200079c565b62000111640100000000026401000000009004565b33600560006101000a81548173ffffffffffffffffffffffffffffffffffffffff021916908373ffffffffffffffffffffffffffffffffffffffff16021790555050505062000970565b60006012905090565b600073ffffffffffffffffffffffffffffffffffffffff168273ffffffffffffffffffffffffffffffffffffffff16141562000184576040517f08c379a00000000000000000000000000000000000000000000000000000000081526004016200017b906200085e565b60405180910390fd5b620001a1600083836200029c640100000000026401000000009004565b8060026000828254620001b5919062000880565b92505081905550806000808473ffffffffffffffffffffffffffffffffffffffff1673ffffffffffffffffffffffffffffffffffffffff16815260200190815260200160002060008282546200020c919062000880565b925050819055508173ffffffffffffffffffffffffffffffffffffffff16600073ffffffffffffffffffffffffffffffffffffffff167fddf252ad1be2c89b69c2b068fc378daa952ba7f163c4a11628f55a4df523b3ef83604051620002739190620008ee565b60405180910390a36200029860008383620002a1640100000000026401000000009004565b5050565b505050565b505050565b828054620002b4906200093a565b90600052602060002090601f016020900481019282620002d8576000855562000324565b82601f10620002f357805160ff191683800117855562000324565b8280016001018555821562000324579182015b828111156200032357825182559160200191906001019062000306565b5b50905062000333919062000337565b5090565b5b808211156200035257600081600090555060010162000338565b5090565b6000604051905090565b600080fd5b600080fd5b600080fd5b600080fd5b6000601f19601f8301169050919050565b7f4e487b7100000000000000000000000000000000000000000000000000000000600052604160045260246000fd5b620003bf8262000374565b810181811067ffffffffffffffff82111715620003e157620003e062000385565b5b80604052505050565b6000620003f662000356565b9050620004048282620003b4565b919050565b600067ffffffffffffffff82111562000427576200042662000385565b5b620004328262000374565b9050602081019050919050565b60005b838110156200045f57808201518184015260208101905062000442565b838111156200046f576000848401525b50505050565b60006200048c620004868462000409565b620003ea565b905082815260208101848484011115620004ab57620004aa6200036f565b5b620004b88482856200043f565b509392505050565b600082601f830112620004d857620004d76200036a565b5b8151620004ea84826020860162000475565b91505092915050565b6000819050919050565b6200050881620004f3565b81146200051457600080fd5b50565b6000815190506200052881620004fd565b92915050565b6000806000606084860312156200054a576200054962000360565b5b600084015167ffffffffffffffff8111156200056b576200056a62000365565b5b6200057986828701620004c0565b935050602084015167ffffffffffffffff8111156200059d576200059c62000365565b5b620005ab86828701620004c0565b9250506040620005be8682870162000517565b9150509250925092565b7f4e487b7100000000000000000000000000000000000000000000000000000000600052601160045260246000fd5b6000600282049050919050565b6000808291508390505b600185111562000656578086048111156200062e576200062d620005c8565b5b60018516156200063e5780820291505b80810290506200064e85620005f7565b94506200060e565b94509492505050565b60008262000671576001905062000744565b8162000681576000905062000744565b81600181146200069a5760028114620006a557620006db565b600191505062000744565b60ff841115620006ba57620006b9620005c8565b5b8360020a915084821115620006d457620006d3620005c8565b5b5062000744565b5060208310610133831016604e8410600b8410161715620007155782820a9050838111156200070f576200070e620005c8565b5b62000744565b62000724848484600162000604565b925090508184048111156200073e576200073d620005c8565b5b81810290505b9392505050565b60006200075882620004f3565b91506200076583620004f3565b9250620007947fffffffffffffffffffffffffffffffffffffffffffffffffffffffffffffffff84846200065f565b905092915050565b6000620007a982620004f3565b9150620007b683620004f3565b9250817fffffffffffffffffffffffffffffffffffffffffffffffffffffffffffffffff0483118215151615620007f257620007f1620005c8565b5b828202905092915050565b600082825260208201905092915050565b7f45524332303a206d696e7420746f20746865207a65726f206164647265737300600082015250565b600062000846601f83620007fd565b915062000853826200080e565b602082019050919050565b60006020820190508181036000830152620008798162000837565b9050919050565b60006200088d82620004f3565b91506200089a83620004f3565b9250827fffffffffffffffffffffffffffffffffffffffffffffffffffffffffffffffff03821115620008d257620008d1620005c8565b5b828201905092915050565b620008e881620004f3565b82525050565b6000602082019050620009056000830184620008dd565b92915050565b7f4e487b7100000000000000000000000000000000000000000000000000000000600052602260045260246000fd5b600060028204905060018216806200095357607f821691505b602082108114156200096a57620009696200090b565b5b50919050565b6113c780620009806000396000f3fe608060405234801561001057600080fd5b50600436106100c6576000357c010000000000000000000000000000000000000000000000000000000090048063395093511161008e578063395093511461018557806370a08231146101b557806395d89b41146101e5578063a457c2d714610203578063a9059cbb14610233578063dd62ed3e14610263576100c6565b806306fdde03146100cb578063095ea7b3146100e957806318160ddd1461011957806323b872dd14610137578063313ce56714610167575b600080fd5b6100d3610293565b6040516100e09190610c5b565b60405180910390f35b61010360048036038101906100fe9190610d16565b610325565b6040516101109190610d71565b60405180910390f35b610121610343565b60405161012e9190610d9b565b60405180910390f35b610151600480360381019061014c9190610db6565b61034d565b60405161015e9190610d71565b60405180910390f35b61016f610445565b60405161017c9190610e25565b60405180910390f35b61019f600480360381019061019a9190610d16565b61044e565b6040516101ac9190610d71565b60405180910390f35b6101cf60048036038101906101ca9190610e40565b6104fa565b6040516101dc9190610d9b565b60405180910390f35b6101ed610542565b6040516101fa9190610c5b565b60405180910390f35b61021d60048036038101906102189190610d16565b6105d4565b60405161022a9190610d71565b60405180910390f35b61024d60048036038101906102489190610d16565b6106bf565b60405161025a9190610d71565b60405180910390f35b61027d60048036038101906102789190610e6d565b6106dd565b60405161028a9190610d9b565b60405180910390f35b6060600380546102a290610edc565b80601f01602080910402602001604051908101604052809291908181526020018280546102ce90610edc565b801561031b5780601f106102f05761010080835404028352916020019161031b565b820191906000526020600020905b8154815290600101906020018083116102fe57829003601f168201915b5050505050905090565b6000610339610332610764565b848461076c565b6001905092915050565b6000600254905090565b600061035a848484610937565b6000600160008673ffffffffffffffffffffffffffffffffffffffff1673ffffffffffffffffffffffffffffffffffffffff16815260200190815260200160002060006103a5610764565b73ffffffffffffffffffffffffffffffffffffffff1673ffffffffffffffffffffffffffffffffffffffff16815260200190815260200160002054905082811015610425576040517f08c379a000000000000000000000000000000000000000000000000000000000815260040161041c90610f80565b60405180910390fd5b61043985610431610764565b85840361076c565b60019150509392505050565b60006012905090565b60006104f061045b610764565b848460016000610469610764565b73ffffffffffffffffffffffffffffffffffffffff1673ffffffffffffffffffffffffffffffffffffffff16815260200190815260200160002060008873ffffffffffffffffffffffffffffffffffffffff1673ffffffffffffffffffffffffffffffffffffffff168152602001908152602001600020546104eb9190610fcf565b61076c565b6001905092915050565b60008060008373ffffffffffffffffffffffffffffffffffffffff1673ffffffffffffffffffffffffffffffffffffffff168152602001908152602001600020549050919050565b60606004805461055190610edc565b80601f016020809104026020016040519081016040528092919081815260200182805461057d90610edc565b80156105ca5780601f1061059f576101008083540402835291602001916105ca565b820191906000526020600020905b8154815290600101906020018083116105ad57829003601f168201915b5050505050905090565b600080600160006105e3610764565b73ffffffffffffffffffffffffffffffffffffffff1673ffffffffffffffffffffffffffffffffffffffff16815260200190815260200160002060008573ffffffffffffffffffffffffffffffffffffffff1673ffffffffffffffffffffffffffffffffffffffff168152602001908152602001600020549050828110156106a0576040517f08c379a000000000000000000000000000000000000000000000000000000000815260040161069790611097565b60405180910390fd5b6106b46106ab610764565b8585840361076c565b600191505092915050565b60006106d36106cc610764565b8484610937565b6001905092915050565b6000600160008473ffffffffffffffffffffffffffffffffffffffff1673ffffffffffffffffffffffffffffffffffffffff16815260200190815260200160002060008373ffffffffffffffffffffffffffffffffffffffff1673ffffffffffffffffffffffffffffffffffffffff16815260200190815260200160002054905092915050565b600033905090565b600073ffffffffffffffffffffffffffffffffffffffff168373ffffffffffffffffffffffffffffffffffffffff1614156107dc576040517f08c379a00000000000000000000000000000000000000000000000000000000081526004016107d390611129565b60405180910390fd5b600073ffffffffffffffffffffffffffffffffffffffff168273ffffffffffffffffffffffffffffffffffffffff16141561084c576040517f08c379a0000000000000000000000000000000000000000000000000000000008152600401610843906111bb565b60405180910390fd5b80600160008573ffffffffffffffffffffffffffffffffffffffff1673ffffffffffffffffffffffffffffffffffffffff16815260200190815260200160002060008473ffffffffffffffffffffffffffffffffffffffff1673ffffffffffffffffffffffffffffffffffffffff168152602001908152602001600020819055508173ffffffffffffffffffffffffffffffffffffffff168373ffffffffffffffffffffffffffffffffffffffff167f8c5be1e5ebec7d5bd14f71427d1e84f3dd0314c0f7b2291e5b200ac8c7c3b9258360405161092a9190610d9b565b60405180910390a3505050565b600073ffffffffffffffffffffffffffffffffffffffff168373ffffffffffffffffffffffffffffffffffffffff1614156109a7576040517f08c379a000000000000000000000000000000000000000000000000000000000815260040161099e9061124d565b60405180910390fd5b600073ffffffffffffffffffffffffffffffffffffffff168273ffffffffffffffffffffffffffffffffffffffff161415610a17576040517f08c379a0000000000000000000000000000000000000000000000000000000008152600401610a0e906112df565b60405180910390fd5b610a22838383610bb8565b60008060008573ffffffffffffffffffffffffffffffffffffffff1673ffffffffffffffffffffffffffffffffffffffff16815260200190815260200160002054905081811015610aa8576040517f08c379a0000000000000000000000000000000000000000000000000000000008152600401610a9f90611371565b60405180910390fd5b8181036000808673ffffffffffffffffffffffffffffffffffffffff1673ffffffffffffffffffffffffffffffffffffffff16815260200190815260200160002081905550816000808573ffffffffffffffffffffffffffffffffffffffff1673ffffffffffffffffffffffffffffffffffffffff1681526020019081526020016000206000828254610b3b9190610fcf565b925050819055508273ffffffffffffffffffffffffffffffffffffffff168473ffffffffffffffffffffffffffffffffffffffff167fddf252ad1be2c89b69c2b068fc378daa952ba7f163c4a11628f55a4df523b3ef84604051610b9f9190610d9b565b60405180910390a3610bb2848484610bbd565b50505050565b505050565b505050565b600081519050919050565b600082825260208201905092915050565b60005b83811015610bfc578082015181840152602081019050610be1565b83811115610c0b576000848401525b50505050565b6000601f19601f8301169050919050565b6000610c2d82610bc2565b610c378185610bcd565b9350610c47818560208601610bde565b610c5081610c11565b840191505092915050565b60006020820190508181036000830152610c758184610c22565b905092915050565b600080fd5b600073ffffffffffffffffffffffffffffffffffffffff82169050919050565b6000610cad82610c82565b9050919050565b610cbd81610ca2565b8114610cc857600080fd5b50565b600081359050610cda81610cb4565b92915050565b6000819050919050565b610cf381610ce0565b8114610cfe57600080fd5b50565b600081359050610d1081610cea565b92915050565b60008060408385031215610d2d57610d2c610c7d565b5b6000610d3b85828601610ccb565b9250506020610d4c85828601610d01565b9150509250929050565b60008115159050919050565b610d6b81610d56565b82525050565b6000602082019050610d866000830184610d62565b92915050565b610d9581610ce0565b82525050565b6000602082019050610db06000830184610d8c565b92915050565b600080600060608486031215610dcf57610dce610c7d565b5b6000610ddd86828701610ccb565b9350506020610dee86828701610ccb565b9250506040610dff86828701610d01565b9150509250925092565b600060ff82169050919050565b610e1f81610e09565b82525050565b6000602082019050610e3a6000830184610e16565b92915050565b600060208284031215610e5657610e55610c7d565b5b6000610e6484828501610ccb565b91505092915050565b60008060408385031215610e8457610e83610c7d565b5b6000610e9285828601610ccb565b9250506020610ea385828601610ccb565b9150509250929050565b7f4e487b7100000000000000000000000000000000000000000000000000000000600052602260045260246000fd5b60006002820490506001821680610ef457607f821691505b60208210811415610f0857610f07610ead565b5b50919050565b7f45524332303a207472616e7366657220616d6f756e742065786365656473206160008201527f6c6c6f77616e6365000000000000000000000000000000000000000000000000602082015250565b6000610f6a602883610bcd565b9150610f7582610f0e565b604082019050919050565b60006020820190508181036000830152610f9981610f5d565b9050919050565b7f4e487b7100000000000000000000000000000000000000000000000000000000600052601160045260246000fd5b6000610fda82610ce0565b9150610fe583610ce0565b9250827fffffffffffffffffffffffffffffffffffffffffffffffffffffffffffffffff0382111561101a57611019610fa0565b5b828201905092915050565b7f45524332303a2064656372656173656420616c6c6f77616e63652062656c6f7760008201527f207a65726f000000000000000000000000000000000000000000000000000000602082015250565b6000611081602583610bcd565b915061108c82611025565b604082019050919050565b600060208201905081810360008301526110b081611074565b9050919050565b7f45524332303a20617070726f76652066726f6d20746865207a65726f2061646460008201527f7265737300000000000000000000000000000000000000000000000000000000602082015250565b6000611113602483610bcd565b915061111e826110b7565b604082019050919050565b6000602082019050818103600083015261114281611106565b9050919050565b7f45524332303a20617070726f766520746f20746865207a65726f20616464726560008201527f7373000000000000000000000000000000000000000000000000000000000000602082015250565b60006111a5602283610bcd565b91506111b082611149565b604082019050919050565b600060208201905081810360008301526111d481611198565b9050919050565b7f45524332303a207472616e736665722066726f6d20746865207a65726f20616460008201527f6472657373000000000000000000000000000000000000000000000000000000602082015250565b6000611237602583610bcd565b9150611242826111db565b604082019050919050565b600060208201905081810360008301526112668161122a565b9050919050565b7f45524332303a207472616e7366657220746f20746865207a65726f206164647260008201527f6573730000000000000000000000000000000000000000000000000000000000602082015250565b60006112c9602383610bcd565b91506112d48261126d565b604082019050919050565b600060208201905081810360008301526112f8816112bc565b9050919050565b7f45524332303a207472616e7366657220616d6f756e742065786365656473206260008201527f616c616e63650000000000000000000000000000000000000000000000000000602082015250565b600061135b602683610bcd565b9150611366826112ff565b604082019050919050565b6000602082019050818103600083015261138a8161134e565b905091905056fea2646970667358221220565b120251516bf38f420e7137514bd44f90e4f039b6bdc611da6ee017b71c4c64736f6c634300080a0033a2646970667358221220a46c4f692342c510e28944279b25a9e8c422646d9dedb080ceb84b63cd575a9564736f6c634300080a003360806040523480156200001157600080fd5b5060405162001d4738038062001d4783398181016040528101906200003791906200052e565b8282816003908051906020019062000051929190620002a6565b5080600490805190602001906200006a929190620002a6565b505050620000be336200008b62000108640100000000026401000000009004565b60ff16600a6200009c91906200074b565b83620000a991906200079c565b62000111640100000000026401000000009004565b33600560006101000a81548173ffffffffffffffffffffffffffffffffffffffff021916908373ffffffffffffffffffffffffffffffffffffffff16021790555050505062000970565b60006012905090565b600073ffffffffffffffffffffffffffffffffffffffff168273ffffffffffffffffffffffffffffffffffffffff16141562000184576040517f08c379a00000000000000000000000000000000000000000000000000000000081526004016200017b906200085e565b60405180910390fd5b620001a1600083836200029c640100000000026401000000009004565b8060026000828254620001b5919062000880565b92505081905550806000808473ffffffffffffffffffffffffffffffffffffffff1673ffffffffffffffffffffffffffffffffffffffff16815260200190815260200160002060008282546200020c919062000880565b925050819055508173ffffffffffffffffffffffffffffffffffffffff16600073ffffffffffffffffffffffffffffffffffffffff167fddf252ad1be2c89b69c2b068fc378daa952ba7f163c4a11628f55a4df523b3ef83604051620002739190620008ee565b60405180910390a36200029860008383620002a1640100000000026401000000009004565b5050565b505050565b505050565b828054620002b4906200093a565b90600052602060002090601f016020900481019282620002d8576000855562000324565b82601f10620002f357805160ff191683800117855562000324565b8280016001018555821562000324579182015b828111156200032357825182559160200191906001019062000306565b5b50905062000333919062000337565b5090565b5b808211156200035257600081600090555060010162000338565b5090565b6000604051905090565b600080fd5b600080fd5b600080fd5b600080fd5b6000601f19601f8301169050919050565b7f4e487b7100000000000000000000000000000000000000000000000000000000600052604160045260246000fd5b620003bf8262000374565b810181811067ffffffffffffffff82111715620003e157620003e062000385565b5b80604052505050565b6000620003f662000356565b9050620004048282620003b4565b919050565b600067ffffffffffffffff82111562000427576200042662000385565b5b620004328262000374565b9050602081019050919050565b60005b838110156200045f57808201518184015260208101905062000442565b838111156200046f576000848401525b50505050565b60006200048c620004868462000409565b620003ea565b905082815260208101848484011115620004ab57620004aa6200036f565b5b620004b88482856200043f565b509392505050565b600082601f830112620004d857620004d76200036a565b5b8151620004ea84826020860162000475565b91505092915050565b6000819050919050565b6200050881620004f3565b81146200051457600080fd5b50565b6000815190506200052881620004fd565b92915050565b6000806000606084860312156200054a576200054962000360565b5b600084015167ffffffffffffffff8111156200056b576200056a62000365565b5b6200057986828701620004c0565b935050602084015167ffffffffffffffff8111156200059d576200059c62000365565b5b620005ab86828701620004c0565b9250506040620005be8682870162000517565b9150509250925092565b7f4e487b7100000000000000000000000000000000000000000000000000000000600052601160045260246000fd5b6000600282049050919050565b6000808291508390505b600185111562000656578086048111156200062e576200062d620005c8565b5b60018516156200063e5780820291505b80810290506200064e85620005f7565b94506200060e565b94509492505050565b60008262000671576001905062000744565b8162000681576000905062000744565b81600181146200069a5760028114620006a557620006db565b600191505062000744565b60ff841115620006ba57620006b9620005c8565b5b8360020a915084821115620006d457620006d3620005c8565b5b5062000744565b5060208310610133831016604e8410600b8410161715620007155782820a9050838111156200070f576200070e620005c8565b5b62000744565b62000724848484600162000604565b925090508184048111156200073e576200073d620005c8565b5b81810290505b9392505050565b60006200075882620004f3565b91506200076583620004f3565b9250620007947fffffffffffffffffffffffffffffffffffffffffffffffffffffffffffffffff84846200065f565b905092915050565b6000620007a982620004f3565b9150620007b683620004f3565b9250817fffffffffffffffffffffffffffffffffffffffffffffffffffffffffffffffff0483118215151615620007f257620007f1620005c8565b5b828202905092915050565b600082825260208201905092915050565b7f45524332303a206d696e7420746f20746865207a65726f206164647265737300600082015250565b600062000846601f83620007fd565b915062000853826200080e565b602082019050919050565b60006020820190508181036000830152620008798162000837565b9050919050565b60006200088d82620004f3565b91506200089a83620004f3565b9250827fffffffffffffffffffffffffffffffffffffffffffffffffffffffffffffffff03821115620008d257620008d1620005c8565b5b828201905092915050565b620008e881620004f3565b82525050565b6000602082019050620009056000830184620008dd565b92915050565b7f4e487b7100000000000000000000000000000000000000000000000000000000600052602260045260246000fd5b600060028204905060018216806200095357607f821691505b602082108114156200096a57620009696200090b565b5b50919050565b6113c780620009806000396000f3fe608060405234801561001057600080fd5b50600436106100c6576000357c010000000000000000000000000000000000000000000000000000000090048063395093511161008e578063395093511461018557806370a08231146101b557806395d89b41146101e5578063a457c2d714610203578063a9059cbb14610233578063dd62ed3e14610263576100c6565b806306fdde03146100cb578063095ea7b3146100e957806318160ddd1461011957806323b872dd14610137578063313ce56714610167575b600080fd5b6100d3610293565b6040516100e09190610c5b565b60405180910390f35b61010360048036038101906100fe9190610d16565b610325565b6040516101109190610d71565b60405180910390f35b610121610343565b60405161012e9190610d9b565b60405180910390f35b610151600480360381019061014c9190610db6565b61034d565b60405161015e9190610d71565b60405180910390f35b61016f610445565b60405161017c9190610e25565b60405180910390f35b61019f600480360381019061019a9190610d16565b61044e565b6040516101ac9190610d71565b60405180910390f35b6101cf60048036038101906101ca9190610e40565b6104fa565b6040516101dc9190610d9b565b60405180910390f35b6101ed610542565b6040516101fa9190610c5b565b60405180910390f35b61021d60048036038101906102189190610d16565b6105d4565b60405161022a9190610d71565b60405180910390f35b61024d60048036038101906102489190610d16565b6106bf565b60405161025a9190610d71565b60405180910390f35b61027d60048036038101906102789190610e6d565b6106dd565b60405161028a9190610d9b565b60405180910390f35b6060600380546102a290610edc565b80601f01602080910402602001604051908101604052809291908181526020018280546102ce90610edc565b801561031b5780601f106102f05761010080835404028352916020019161031b565b820191906000526020600020905b8154815290600101906020018083116102fe57829003601f168201915b5050505050905090565b6000610339610332610764565b848461076c565b6001905092915050565b6000600254905090565b600061035a848484610937565b6000600160008673ffffffffffffffffffffffffffffffffffffffff1673ffffffffffffffffffffffffffffffffffffffff16815260200190815260200160002060006103a5610764565b73ffffffffffffffffffffffffffffffffffffffff1673ffffffffffffffffffffffffffffffffffffffff16815260200190815260200160002054905082811015610425576040517f08c379a000000000000000000000000000000000000000000000000000000000815260040161041c90610f80565b60405180910390fd5b61043985610431610764565b85840361076c565b60019150509392505050565b60006012905090565b60006104f061045b610764565b848460016000610469610764565b73ffffffffffffffffffffffffffffffffffffffff1673ffffffffffffffffffffffffffffffffffffffff16815260200190815260200160002060008873ffffffffffffffffffffffffffffffffffffffff1673ffffffffffffffffffffffffffffffffffffffff168152602001908152602001600020546104eb9190610fcf565b61076c565b6001905092915050565b60008060008373ffffffffffffffffffffffffffffffffffffffff1673ffffffffffffffffffffffffffffffffffffffff168152602001908152602001600020549050919050565b60606004805461055190610edc565b80601f016020809104026020016040519081016040528092919081815260200182805461057d90610edc565b80156105ca5780601f1061059f576101008083540402835291602001916105ca565b820191906000526020600020905b8154815290600101906020018083116105ad57829003601f168201915b5050505050905090565b600080600160006105e3610764565b73ffffffffffffffffffffffffffffffffffffffff1673ffffffffffffffffffffffffffffffffffffffff16815260200190815260200160002060008573ffffffffffffffffffffffffffffffffffffffff1673ffffffffffffffffffffffffffffffffffffffff168152602001908152602001600020549050828110156106a0576040517f08c379a000000000000000000000000000000000000000000000000000000000815260040161069790611097565b60405180910390fd5b6106b46106ab610764565b8585840361076c565b600191505092915050565b60006106d36106cc610764565b8484610937565b6001905092915050565b6000600160008473ffffffffffffffffffffffffffffffffffffffff1673ffffffffffffffffffffffffffffffffffffffff16815260200190815260200160002060008373ffffffffffffffffffffffffffffffffffffffff1673ffffffffffffffffffffffffffffffffffffffff16815260200190815260200160002054905092915050565b600033905090565b600073ffffffffffffffffffffffffffffffffffffffff168373ffffffffffffffffffffffffffffffffffffffff1614156107dc576040517f08c379a00000000000000000000000000000000000000000000000000000000081526004016107d390611129565b60405180910390fd5b600073ffffffffffffffffffffffffffffffffffffffff168273ffffffffffffffffffffffffffffffffffffffff16141561084c576040517f08c379a0000000000000000000000000000000000000000000000000000000008152600401610843906111bb565b60405180910390fd5b80600160008573ffffffffffffffffffffffffffffffffffffffff1673ffffffffffffffffffffffffffffffffffffffff16815260200190815260200160002060008473ffffffffffffffffffffffffffffffffffffffff1673ffffffffffffffffffffffffffffffffffffffff168152602001908152602001600020819055508173ffffffffffffffffffffffffffffffffffffffff168373ffffffffffffffffffffffffffffffffffffffff167f8c5be1e5ebec7d5bd14f71427d1e84f3dd0314c0f7b2291e5b200ac8c7c3b9258360405161092a9190610d9b565b60405180910390a3505050565b600073ffffffffffffffffffffffffffffffffffffffff168373ffffffffffffffffffffffffffffffffffffffff1614156109a7576040517f08c379a000000000000000000000000000000000000000000000000000000000815260040161099e9061124d565b60405180910390fd5b600073ffffffffffffffffffffffffffffffffffffffff168273ffffffffffffffffffffffffffffffffffffffff161415610a17576040517f08c379a0000000000000000000000000000000000000000000000000000000008152600401610a0e906112df565b60405180910390fd5b610a22838383610bb8565b60008060008573ffffffffffffffffffffffffffffffffffffffff1673ffffffffffffffffffffffffffffffffffffffff16815260200190815260200160002054905081811015610aa8576040517f08c379a0000000000000000000000000000000000000000000000000000000008152600401610a9f90611371565b60405180910390fd5b8181036000808673ffffffffffffffffffffffffffffffffffffffff1673ffffffffffffffffffffffffffffffffffffffff16815260200190815260200160002081905550816000808573ffffffffffffffffffffffffffffffffffffffff1673ffffffffffffffffffffffffffffffffffffffff1681526020019081526020016000206000828254610b3b9190610fcf565b925050819055508273ffffffffffffffffffffffffffffffffffffffff168473ffffffffffffffffffffffffffffffffffffffff167fddf252ad1be2c89b69c2b068fc378daa952ba7f163c4a11628f55a4df523b3ef84604051610b9f9190610d9b565b60405180910390a3610bb2848484610bbd565b50505050565b505050565b505050565b600081519050919050565b600082825260208201905092915050565b60005b83811015610bfc578082015181840152602081019050610be1565b83811115610c0b576000848401525b50505050565b6000601f19601f8301169050919050565b6000610c2d82610bc2565b610c378185610bcd565b9350610c47818560208601610bde565b610c5081610c11565b840191505092915050565b60006020820190508181036000830152610c758184610c22565b905092915050565b600080fd5b600073ffffffffffffffffffffffffffffffffffffffff82169050919050565b6000610cad82610c82565b9050919050565b610cbd81610ca2565b8114610cc857600080fd5b50565b600081359050610cda81610cb4565b92915050565b6000819050919050565b610cf381610ce0565b8114610cfe57600080fd5b50565b600081359050610d1081610cea565b92915050565b60008060408385031215610d2d57610d2c610c7d565b5b6000610d3b85828601610ccb565b9250506020610d4c85828601610d01565b9150509250929050565b60008115159050919050565b610d6b81610d56565b82525050565b6000602082019050610d866000830184610d62565b92915050565b610d9581610ce0565b82525050565b6000602082019050610db06000830184610d8c565b92915050565b600080600060608486031215610dcf57610dce610c7d565b5b6000610ddd86828701610ccb565b9350506020610dee86828701610ccb565b9250506040610dff86828701610d01565b9150509250925092565b600060ff82169050919050565b610e1f81610e09565b82525050565b6000602082019050610e3a6000830184610e16565b92915050565b600060208284031215610e5657610e55610c7d565b5b6000610e6484828501610ccb565b91505092915050565b60008060408385031215610e8457610e83610c7d565b5b6000610e9285828601610ccb565b9250506020610ea385828601610ccb565b9150509250929050565b7f4e487b7100000000000000000000000000000000000000000000000000000000600052602260045260246000fd5b60006002820490506001821680610ef457607f821691505b60208210811415610f0857610f07610ead565b5b50919050565b7f45524332303a207472616e7366657220616d6f756e742065786365656473206160008201527f6c6c6f77616e6365000000000000000000000000000000000000000000000000602082015250565b6000610f6a602883610bcd565b9150610f7582610f0e565b604082019050919050565b60006020820190508181036000830152610f9981610f5d565b9050919050565b7f4e487b7100000000000000000000000000000000000000000000000000000000600052601160045260246000fd5b6000610fda82610ce0565b9150610fe583610ce0565b9250827fffffffffffffffffffffffffffffffffffffffffffffffffffffffffffffffff0382111561101a57611019610fa0565b5b828201905092915050565b7f45524332303a2064656372656173656420616c6c6f77616e63652062656c6f7760008201527f207a65726f000000000000000000000000000000000000000000000000000000602082015250565b6000611081602583610bcd565b915061108c82611025565b604082019050919050565b600060208201905081810360008301526110b081611074565b9050919050565b7f45524332303a20617070726f76652066726f6d20746865207a65726f2061646460008201527f7265737300000000000000000000000000000000000000000000000000000000602082015250565b6000611113602483610bcd565b915061111e826110b7565b604082019050919050565b6000602082019050818103600083015261114281611106565b9050919050565b7f45524332303a20617070726f766520746f20746865207a65726f20616464726560008201527f7373000000000000000000000000000000000000000000000000000000000000602082015250565b60006111a5602283610bcd565b91506111b082611149565b604082019050919050565b600060208201905081810360008301526111d481611198565b9050919050565b7f45524332303a207472616e736665722066726f6d20746865207a65726f20616460008201527f6472657373000000000000000000000000000000000000000000000000000000602082015250565b6000611237602583610bcd565b9150611242826111db565b604082019050919050565b600060208201905081810360008301526112668161122a565b9050919050565b7f45524332303a207472616e7366657220746f20746865207a65726f206164647260008201527f6573730000000000000000000000000000000000000000000000000000000000602082015250565b60006112c9602383610bcd565b91506112d48261126d565b604082019050919050565b600060208201905081810360008301526112f8816112bc565b9050919050565b7f45524332303a207472616e7366657220616d6f756e742065786365656473206260008201527f616c616e63650000000000000000000000000000000000000000000000000000602082015250565b600061135b602683610bcd565b9150611366826112ff565b604082019050919050565b6000602082019050818103600083015261138a8161134e565b905091905056fea2646970667358221220565b120251516bf38f420e7137514bd44f90e4f039b6bdc611da6ee017b71c4c64736f6c634300080a0033",
  "immutableReferences": {},
  "source": "// SPDX-License-Identifier: MIT\r\npragma solidity >=0.4.22 <0.9.0;\r\n\r\nimport \"./Token.sol\";\r\nimport \"./BoardDao.sol\";\r\n\r\ncontract RaiseDao {\r\n  string campaignName;\r\n  address _owner;\r\n  address invesDao;\r\n  Token companyToken;\r\n\r\n  uint raiseGoal;\r\n  uint yetToBeRaised;\r\n  DAOStatus stageOfDAO;\r\n  uint constant votingPeriod = 2 weeks;\r\n  uint constant disputablePeriod = 1 weeks;\r\n  uint constant minDisputeCollateral = 1 ether;\r\n  uint timeOfCreation;\r\n\r\n  enum DAOStatus {VOTING, EXECUTING, DISBANDED}\r\n  enum proposalStatus {ACTIVE, DISPUTED, ACCEPTED}\r\n\r\n  mapping (address => uint) depositorBank;\r\n  address[] depositors;\r\n\r\n  struct Proposal {\r\n    string title;\r\n    string idea;\r\n    string ipfs;\r\n    string tokenName;\r\n    string tokenSymbol;\r\n    string socialThread;\r\n    address creator;\r\n    proposalStatus status;\r\n    address disputor;\r\n    uint daoOwnership;\r\n    uint creatorOwnership;\r\n  }\r\n  \r\n  Proposal[] public proposals;\r\n\r\n  mapping (address => uint) voteBank;\r\n  address[] voters;\r\n\r\n  uint totalVoteTokens;\r\n\r\n  mapping (int => uint) proposalVotes;\r\n\r\n  event proposalCreated(address _from, uint _proposalId);\r\n  event TransferReceived(address _from, uint _amount);\r\n\r\n  constructor(\r\n    string memory _daoThemeName,\r\n    string memory _daoTokenName,\r\n    string memory _daoTokenSymbol,\r\n    uint _raiseGoal\r\n  )  {\r\n    campaignName = _daoThemeName;\r\n    _owner = msg.sender;\r\n    timeOfCreation = block.timestamp;\r\n    invesDao = msg.sender;\r\n    companyToken = new Token(_daoTokenName, _daoTokenSymbol, _raiseGoal);\r\n    raiseGoal = _raiseGoal * (1 ether);\r\n    yetToBeRaised = _raiseGoal * (1 ether);\r\n    stageOfDAO = DAOStatus.VOTING;\r\n  }\r\n\r\n  modifier onlyOwner() {\r\n    require(msg.sender == _owner);\r\n    _;  \r\n  }\r\n\r\n  modifier membershipAvailable() {\r\n    require(yetToBeRaised > 0);\r\n    _;\r\n  }\r\n\r\n  modifier isMember () {\r\n    require(companyToken.balanceOf(msg.sender) > 0);\r\n    _;\r\n  }\r\n\r\n  modifier currentlyRaising() {\r\n    require(stageOfDAO == DAOStatus.VOTING);\r\n    _;\r\n  }\r\n\r\n  modifier currentlyExecutiveBoard() {\r\n    require(stageOfDAO == DAOStatus.EXECUTING);\r\n    _;\r\n  }\r\n\r\n  function applyForMembership() payable public membershipAvailable currentlyRaising {\r\n    require(msg.value <= yetToBeRaised, \"Not enough membership tokens available\");\r\n    yetToBeRaised -= msg.value;\r\n    depositorBank[msg.sender] = msg.value;\r\n    depositors.push(msg.sender);\r\n    companyToken.transfer(msg.sender, msg.value); \r\n    emit TransferReceived(msg.sender, msg.value);\r\n  }\r\n\r\n  function createProposal(string memory _title, string memory _idea, string memory _ipfs, string memory _tokenName, string memory _tokenSymbol, string memory _socialThread, uint _daoOwnership, uint _creatorOwnership) public isMember currentlyRaising returns (bool) {\r\n    require(_daoOwnership == 49, \"Only 49-49-2 structure is allowed currently\");\r\n    require(_creatorOwnership == 49, \"Only 49-49-2 structure is allowed currently\");\r\n    proposals.push(Proposal(_title, _idea, _ipfs, _tokenName, _tokenSymbol, _socialThread, msg.sender, proposalStatus.ACTIVE, address(0), _daoOwnership, _creatorOwnership));\r\n    return true;\r\n  }\r\n\r\n  function getNumOfProposals() public view returns (uint) {\r\n    return proposals.length;\r\n  }\r\n\r\n  function getProposalDetails(uint _proposalId) public view returns (string memory, string memory, string memory, string memory, address, proposalStatus, address) {\r\n    Proposal memory prop = proposals[_proposalId];\r\n    return (prop.title, prop.idea, prop.ipfs, prop.socialThread, prop.creator, prop.status, prop.disputor);\r\n  }\r\n\r\n  function voteForProposal(int _proposalId, uint _lockTokens) public isMember currentlyRaising returns (bool) {\r\n    require(companyToken.balanceOf(msg.sender) >= _lockTokens, \"Insufficient DAO tokens\");\r\n    companyToken.transferFrom(msg.sender, address(this), _lockTokens);\r\n    voteBank[msg.sender] += _lockTokens;\r\n    voters.push(msg.sender);\r\n    proposalVotes[_proposalId] += _lockTokens;\r\n    return true;\r\n  }\r\n\r\n  function disputeProposal(uint _proposalId) public payable currentlyRaising returns (bool) {\r\n    require(proposals[_proposalId].status == proposalStatus.ACTIVE);\r\n    require(msg.value >= minDisputeCollateral);\r\n    proposals[_proposalId].status = proposalStatus.DISPUTED;\r\n    address payable sender = payable(msg.sender);\r\n    sender.transfer(msg.value);\r\n    return true;\r\n  }\r\n\r\n  // string memory, string memory, string memory, string memory, address memory, string memory\r\n  function pickTopProposal() internal view onlyOwner currentlyRaising returns(int) {\r\n    int winnerPropsalId = -1;\r\n    int maxSupport = int(proposalVotes[-1]);\r\n    for(int i = 0; i < int(proposals.length); i++) {\r\n      if(int(proposalVotes[i]) > maxSupport && proposals[uint(i)].status == proposalStatus.ACTIVE) {\r\n        maxSupport = int(proposalVotes[i]);\r\n        winnerPropsalId = i;\r\n      }\r\n    }\r\n    return winnerPropsalId;\r\n  }\r\n\r\n  function makeOrBreak() external onlyOwner currentlyRaising returns(bool) {\r\n    if(totalVoteTokens < (raiseGoal / 4)){\r\n      disbandDAO();\r\n      return false;\r\n    } \r\n    int topProposal = pickTopProposal();\r\n    if(topProposal == -1) {\r\n      disbandDAO();\r\n      return false;\r\n    }\r\n\r\n    makeBoardDAO(uint(topProposal));\r\n    return true;\r\n  }\r\n\r\n  function disbandDAO() internal onlyOwner currentlyRaising {\r\n    uint totalClaim = 0;\r\n    for(uint i = 0; i < depositors.length; i++) {\r\n      totalClaim += depositorBank[depositors[i]];\r\n    }\r\n    address payable curr;\r\n    for(uint i = 0; i < depositors.length; i++) {\r\n      curr = payable(depositors[i]);\r\n      curr.transfer((depositorBank[depositors[i]]) / totalClaim);\r\n    }\r\n    stageOfDAO = DAOStatus.DISBANDED;\r\n  }\r\n\r\n  address boardTokenAddress;\r\n  IERC20 public boardToken;\r\n  enum BoardProposalStatus {VOTING, ACCEPTED, DECLINED}\r\n\r\n  struct BoardProposal {\r\n    string title;\r\n    string purpose;\r\n    address creator;\r\n    address recipient;\r\n    uint amountRequired;\r\n    int support;\r\n    BoardProposalStatus status;\r\n  }\r\n\r\n  BoardProposal[] public boardProposals;\r\n  BoardDao private board;\r\n\r\n  modifier boardProposalUpForVoting (uint _proposalId) {\r\n    require(boardProposals[_proposalId].status == BoardProposalStatus.VOTING);\r\n    _;\r\n  }\r\n\r\n  modifier boardProposalAccepted (uint _proposalId) {\r\n    require(boardProposals[_proposalId].status == BoardProposalStatus.ACCEPTED);\r\n    _;\r\n  }\r\n\r\n  function makeBoardDAO(uint _proposalId) internal onlyOwner currentlyRaising {\r\n    proposals[_proposalId].status = proposalStatus.ACCEPTED;\r\n    board = new BoardDao(proposals[_proposalId].creator, invesDao, proposals[_proposalId].daoOwnership, proposals[_proposalId].creatorOwnership, 2, proposals[_proposalId].tokenName, proposals[_proposalId].tokenSymbol, address(companyToken));\r\n    boardTokenAddress = board.getTokenAddress();\r\n    boardToken = IERC20(boardTokenAddress);\r\n    stageOfDAO = DAOStatus.EXECUTING;\r\n    resetVoteBank();\r\n  }\r\n\r\n  function resetVoteBank() internal onlyOwner {\r\n    address payable curr;\r\n    for(uint i = 0; i < voters.length; i++) {\r\n      curr = payable(voters[i]);\r\n      companyToken.transfer(curr, (depositorBank[depositors[i]]));\r\n    }\r\n    for(uint i = 0; i < voters.length; i++) {\r\n      voteBank[voters[i]] = 0;\r\n    } delete voters;\r\n  }\r\n  \r\n  modifier isBoardDao() {\r\n    require(msg.sender == address(board));\r\n    _;\r\n  }\r\n\r\n  function createBoardProposal(string memory _title, string memory _purpose, address _recipient, uint _amountRequired) external isBoardDao currentlyExecutiveBoard {\r\n    boardProposals.push(BoardProposal(_title, _purpose, msg.sender, _recipient, _amountRequired, 0, BoardProposalStatus.VOTING));\r\n  }\r\n\r\n  function voteForBoardProposal(uint _proposalId, bool isInFavour) public payable isMember currentlyExecutiveBoard boardProposalUpForVoting(_proposalId) returns (bool) {\r\n    voteBank[msg.sender] += msg.value;\r\n    voters.push(msg.sender);\r\n    if (isInFavour == true){\r\n      boardProposals[_proposalId].support += int(msg.value);\r\n    } else {\r\n      boardProposals[_proposalId].support -= int(msg.value);\r\n    }\r\n    return true;\r\n  }\r\n\r\n  function executeBoardProposal(uint _proposalId) public onlyOwner currentlyExecutiveBoard boardProposalUpForVoting(_proposalId) {\r\n    if(boardProposals[_proposalId].support > 0) {\r\n      boardProposals[_proposalId].status = BoardProposalStatus.ACCEPTED;\r\n      board.voteForProposal(_proposalId, true);\r\n    } else {\r\n      boardProposals[_proposalId].status = BoardProposalStatus.DECLINED;\r\n      board.voteForProposal(_proposalId, false);\r\n    }\r\n  }\r\n\r\n  modifier isNotDisbanded() {\r\n    require(stageOfDAO != DAOStatus.DISBANDED);\r\n    _;\r\n  }\r\n\r\n  function getRaiseDaoTokenAddress() public view isNotDisbanded returns(address) {\r\n    return address(companyToken);\r\n  }\r\n\r\n  function getBoardDaoTokenAddress() public view isNotDisbanded currentlyExecutiveBoard returns(address) {\r\n    return boardTokenAddress;\r\n  }\r\n\r\n}\r\n",
  "sourcePath": "C:\\Users\\shrey\\Downloads\\InvesDAO\\contracts\\contracts\\RaiseDao.sol",
  "compiler": {
    "name": "solc",
    "version": "0.8.10+commit.fc410830.Emscripten.clang"
  },
  "schemaVersion": "3.4.3",
  "updatedAt": "2021-12-14T07:04:38.819Z",
  "devdoc": {
    "kind": "dev",
    "methods": {},
    "version": 1
  },
  "userdoc": {
    "kind": "user",
    "methods": {},
    "version": 1
  }
}