{
  "contractName": "Token",
  "abi": [
    {
      "inputs": [
        {
          "internalType": "string",
          "name": "_tokenName",
          "type": "string"
        },
        {
          "internalType": "string",
          "name": "_tokenSymbol",
          "type": "string"
        },
        {
          "internalType": "uint256",
          "name": "_maxSupply",
          "type": "uint256"
        }
      ],
      "stateMutability": "nonpayable",
      "type": "constructor"
    },
    {
      "anonymous": false,
      "inputs": [
        {
          "indexed": true,
          "internalType": "address",
          "name": "owner",
          "type": "address"
        },
        {
          "indexed": true,
          "internalType": "address",
          "name": "spender",
          "type": "address"
        },
        {
          "indexed": false,
          "internalType": "uint256",
          "name": "value",
          "type": "uint256"
        }
      ],
      "name": "Approval",
      "type": "event"
    },
    {
      "anonymous": false,
      "inputs": [
        {
          "indexed": true,
          "internalType": "address",
          "name": "from",
          "type": "address"
        },
        {
          "indexed": true,
          "internalType": "address",
          "name": "to",
          "type": "address"
        },
        {
          "indexed": false,
          "internalType": "uint256",
          "name": "value",
          "type": "uint256"
        }
      ],
      "name": "Transfer",
      "type": "event"
    },
    {
      "inputs": [
        {
          "internalType": "address",
          "name": "owner",
          "type": "address"
        },
        {
          "internalType": "address",
          "name": "spender",
          "type": "address"
        }
      ],
      "name": "allowance",
      "outputs": [
        {
          "internalType": "uint256",
          "name": "",
          "type": "uint256"
        }
      ],
      "stateMutability": "view",
      "type": "function"
    },
    {
      "inputs": [
        {
          "internalType": "address",
          "name": "spender",
          "type": "address"
        },
        {
          "internalType": "uint256",
          "name": "amount",
          "type": "uint256"
        }
      ],
      "name": "approve",
      "outputs": [
        {
          "internalType": "bool",
          "name": "",
          "type": "bool"
        }
      ],
      "stateMutability": "nonpayable",
      "type": "function"
    },
    {
      "inputs": [
        {
          "internalType": "address",
          "name": "account",
          "type": "address"
        }
      ],
      "name": "balanceOf",
      "outputs": [
        {
          "internalType": "uint256",
          "name": "",
          "type": "uint256"
        }
      ],
      "stateMutability": "view",
      "type": "function"
    },
    {
      "inputs": [],
      "name": "decimals",
      "outputs": [
        {
          "internalType": "uint8",
          "name": "",
          "type": "uint8"
        }
      ],
      "stateMutability": "view",
      "type": "function"
    },
    {
      "inputs": [
        {
          "internalType": "address",
          "name": "spender",
          "type": "address"
        },
        {
          "internalType": "uint256",
          "name": "subtractedValue",
          "type": "uint256"
        }
      ],
      "name": "decreaseAllowance",
      "outputs": [
        {
          "internalType": "bool",
          "name": "",
          "type": "bool"
        }
      ],
      "stateMutability": "nonpayable",
      "type": "function"
    },
    {
      "inputs": [
        {
          "internalType": "address",
          "name": "spender",
          "type": "address"
        },
        {
          "internalType": "uint256",
          "name": "addedValue",
          "type": "uint256"
        }
      ],
      "name": "increaseAllowance",
      "outputs": [
        {
          "internalType": "bool",
          "name": "",
          "type": "bool"
        }
      ],
      "stateMutability": "nonpayable",
      "type": "function"
    },
    {
      "inputs": [],
      "name": "name",
      "outputs": [
        {
          "internalType": "string",
          "name": "",
          "type": "string"
        }
      ],
      "stateMutability": "view",
      "type": "function"
    },
    {
      "inputs": [],
      "name": "symbol",
      "outputs": [
        {
          "internalType": "string",
          "name": "",
          "type": "string"
        }
      ],
      "stateMutability": "view",
      "type": "function"
    },
    {
      "inputs": [],
      "name": "totalSupply",
      "outputs": [
        {
          "internalType": "uint256",
          "name": "",
          "type": "uint256"
        }
      ],
      "stateMutability": "view",
      "type": "function"
    },
    {
      "inputs": [
        {
          "internalType": "address",
          "name": "recipient",
          "type": "address"
        },
        {
          "internalType": "uint256",
          "name": "amount",
          "type": "uint256"
        }
      ],
      "name": "transfer",
      "outputs": [
        {
          "internalType": "bool",
          "name": "",
          "type": "bool"
        }
      ],
      "stateMutability": "nonpayable",
      "type": "function"
    },
    {
      "inputs": [
        {
          "internalType": "address",
          "name": "sender",
          "type": "address"
        },
        {
          "internalType": "address",
          "name": "recipient",
          "type": "address"
        },
        {
          "internalType": "uint256",
          "name": "amount",
          "type": "uint256"
        }
      ],
      "name": "transferFrom",
      "outputs": [
        {
          "internalType": "bool",
          "name": "",
          "type": "bool"
        }
      ],
      "stateMutability": "nonpayable",
      "type": "function"
    }
  ],
  "bytecode": "0x60806040523480156200001157600080fd5b5060405162001d4738038062001d4783398181016040528101906200003791906200052e565b8282816003908051906020019062000051929190620002a6565b5080600490805190602001906200006a929190620002a6565b505050620000be336200008b62000108640100000000026401000000009004565b60ff16600a6200009c91906200074b565b83620000a991906200079c565b62000111640100000000026401000000009004565b33600560006101000a81548173ffffffffffffffffffffffffffffffffffffffff021916908373ffffffffffffffffffffffffffffffffffffffff16021790555050505062000970565b60006012905090565b600073ffffffffffffffffffffffffffffffffffffffff168273ffffffffffffffffffffffffffffffffffffffff16141562000184576040517f08c379a00000000000000000000000000000000000000000000000000000000081526004016200017b906200085e565b60405180910390fd5b620001a1600083836200029c640100000000026401000000009004565b8060026000828254620001b5919062000880565b92505081905550806000808473ffffffffffffffffffffffffffffffffffffffff1673ffffffffffffffffffffffffffffffffffffffff16815260200190815260200160002060008282546200020c919062000880565b925050819055508173ffffffffffffffffffffffffffffffffffffffff16600073ffffffffffffffffffffffffffffffffffffffff167fddf252ad1be2c89b69c2b068fc378daa952ba7f163c4a11628f55a4df523b3ef83604051620002739190620008ee565b60405180910390a36200029860008383620002a1640100000000026401000000009004565b5050565b505050565b505050565b828054620002b4906200093a565b90600052602060002090601f016020900481019282620002d8576000855562000324565b82601f10620002f357805160ff191683800117855562000324565b8280016001018555821562000324579182015b828111156200032357825182559160200191906001019062000306565b5b50905062000333919062000337565b5090565b5b808211156200035257600081600090555060010162000338565b5090565b6000604051905090565b600080fd5b600080fd5b600080fd5b600080fd5b6000601f19601f8301169050919050565b7f4e487b7100000000000000000000000000000000000000000000000000000000600052604160045260246000fd5b620003bf8262000374565b810181811067ffffffffffffffff82111715620003e157620003e062000385565b5b80604052505050565b6000620003f662000356565b9050620004048282620003b4565b919050565b600067ffffffffffffffff82111562000427576200042662000385565b5b620004328262000374565b9050602081019050919050565b60005b838110156200045f57808201518184015260208101905062000442565b838111156200046f576000848401525b50505050565b60006200048c620004868462000409565b620003ea565b905082815260208101848484011115620004ab57620004aa6200036f565b5b620004b88482856200043f565b509392505050565b600082601f830112620004d857620004d76200036a565b5b8151620004ea84826020860162000475565b91505092915050565b6000819050919050565b6200050881620004f3565b81146200051457600080fd5b50565b6000815190506200052881620004fd565b92915050565b6000806000606084860312156200054a576200054962000360565b5b600084015167ffffffffffffffff8111156200056b576200056a62000365565b5b6200057986828701620004c0565b935050602084015167ffffffffffffffff8111156200059d576200059c62000365565b5b620005ab86828701620004c0565b9250506040620005be8682870162000517565b9150509250925092565b7f4e487b7100000000000000000000000000000000000000000000000000000000600052601160045260246000fd5b6000600282049050919050565b6000808291508390505b600185111562000656578086048111156200062e576200062d620005c8565b5b60018516156200063e5780820291505b80810290506200064e85620005f7565b94506200060e565b94509492505050565b60008262000671576001905062000744565b8162000681576000905062000744565b81600181146200069a5760028114620006a557620006db565b600191505062000744565b60ff841115620006ba57620006b9620005c8565b5b8360020a915084821115620006d457620006d3620005c8565b5b5062000744565b5060208310610133831016604e8410600b8410161715620007155782820a9050838111156200070f576200070e620005c8565b5b62000744565b62000724848484600162000604565b925090508184048111156200073e576200073d620005c8565b5b81810290505b9392505050565b60006200075882620004f3565b91506200076583620004f3565b9250620007947fffffffffffffffffffffffffffffffffffffffffffffffffffffffffffffffff84846200065f565b905092915050565b6000620007a982620004f3565b9150620007b683620004f3565b9250817fffffffffffffffffffffffffffffffffffffffffffffffffffffffffffffffff0483118215151615620007f257620007f1620005c8565b5b828202905092915050565b600082825260208201905092915050565b7f45524332303a206d696e7420746f20746865207a65726f206164647265737300600082015250565b600062000846601f83620007fd565b915062000853826200080e565b602082019050919050565b60006020820190508181036000830152620008798162000837565b9050919050565b60006200088d82620004f3565b91506200089a83620004f3565b9250827fffffffffffffffffffffffffffffffffffffffffffffffffffffffffffffffff03821115620008d257620008d1620005c8565b5b828201905092915050565b620008e881620004f3565b82525050565b6000602082019050620009056000830184620008dd565b92915050565b7f4e487b7100000000000000000000000000000000000000000000000000000000600052602260045260246000fd5b600060028204905060018216806200095357607f821691505b602082108114156200096a57620009696200090b565b5b50919050565b6113c780620009806000396000f3fe608060405234801561001057600080fd5b50600436106100c6576000357c010000000000000000000000000000000000000000000000000000000090048063395093511161008e578063395093511461018557806370a08231146101b557806395d89b41146101e5578063a457c2d714610203578063a9059cbb14610233578063dd62ed3e14610263576100c6565b806306fdde03146100cb578063095ea7b3146100e957806318160ddd1461011957806323b872dd14610137578063313ce56714610167575b600080fd5b6100d3610293565b6040516100e09190610c5b565b60405180910390f35b61010360048036038101906100fe9190610d16565b610325565b6040516101109190610d71565b60405180910390f35b610121610343565b60405161012e9190610d9b565b60405180910390f35b610151600480360381019061014c9190610db6565b61034d565b60405161015e9190610d71565b60405180910390f35b61016f610445565b60405161017c9190610e25565b60405180910390f35b61019f600480360381019061019a9190610d16565b61044e565b6040516101ac9190610d71565b60405180910390f35b6101cf60048036038101906101ca9190610e40565b6104fa565b6040516101dc9190610d9b565b60405180910390f35b6101ed610542565b6040516101fa9190610c5b565b60405180910390f35b61021d60048036038101906102189190610d16565b6105d4565b60405161022a9190610d71565b60405180910390f35b61024d60048036038101906102489190610d16565b6106bf565b60405161025a9190610d71565b60405180910390f35b61027d60048036038101906102789190610e6d565b6106dd565b60405161028a9190610d9b565b60405180910390f35b6060600380546102a290610edc565b80601f01602080910402602001604051908101604052809291908181526020018280546102ce90610edc565b801561031b5780601f106102f05761010080835404028352916020019161031b565b820191906000526020600020905b8154815290600101906020018083116102fe57829003601f168201915b5050505050905090565b6000610339610332610764565b848461076c565b6001905092915050565b6000600254905090565b600061035a848484610937565b6000600160008673ffffffffffffffffffffffffffffffffffffffff1673ffffffffffffffffffffffffffffffffffffffff16815260200190815260200160002060006103a5610764565b73ffffffffffffffffffffffffffffffffffffffff1673ffffffffffffffffffffffffffffffffffffffff16815260200190815260200160002054905082811015610425576040517f08c379a000000000000000000000000000000000000000000000000000000000815260040161041c90610f80565b60405180910390fd5b61043985610431610764565b85840361076c565b60019150509392505050565b60006012905090565b60006104f061045b610764565b848460016000610469610764565b73ffffffffffffffffffffffffffffffffffffffff1673ffffffffffffffffffffffffffffffffffffffff16815260200190815260200160002060008873ffffffffffffffffffffffffffffffffffffffff1673ffffffffffffffffffffffffffffffffffffffff168152602001908152602001600020546104eb9190610fcf565b61076c565b6001905092915050565b60008060008373ffffffffffffffffffffffffffffffffffffffff1673ffffffffffffffffffffffffffffffffffffffff168152602001908152602001600020549050919050565b60606004805461055190610edc565b80601f016020809104026020016040519081016040528092919081815260200182805461057d90610edc565b80156105ca5780601f1061059f576101008083540402835291602001916105ca565b820191906000526020600020905b8154815290600101906020018083116105ad57829003601f168201915b5050505050905090565b600080600160006105e3610764565b73ffffffffffffffffffffffffffffffffffffffff1673ffffffffffffffffffffffffffffffffffffffff16815260200190815260200160002060008573ffffffffffffffffffffffffffffffffffffffff1673ffffffffffffffffffffffffffffffffffffffff168152602001908152602001600020549050828110156106a0576040517f08c379a000000000000000000000000000000000000000000000000000000000815260040161069790611097565b60405180910390fd5b6106b46106ab610764565b8585840361076c565b600191505092915050565b60006106d36106cc610764565b8484610937565b6001905092915050565b6000600160008473ffffffffffffffffffffffffffffffffffffffff1673ffffffffffffffffffffffffffffffffffffffff16815260200190815260200160002060008373ffffffffffffffffffffffffffffffffffffffff1673ffffffffffffffffffffffffffffffffffffffff16815260200190815260200160002054905092915050565b600033905090565b600073ffffffffffffffffffffffffffffffffffffffff168373ffffffffffffffffffffffffffffffffffffffff1614156107dc576040517f08c379a00000000000000000000000000000000000000000000000000000000081526004016107d390611129565b60405180910390fd5b600073ffffffffffffffffffffffffffffffffffffffff168273ffffffffffffffffffffffffffffffffffffffff16141561084c576040517f08c379a0000000000000000000000000000000000000000000000000000000008152600401610843906111bb565b60405180910390fd5b80600160008573ffffffffffffffffffffffffffffffffffffffff1673ffffffffffffffffffffffffffffffffffffffff16815260200190815260200160002060008473ffffffffffffffffffffffffffffffffffffffff1673ffffffffffffffffffffffffffffffffffffffff168152602001908152602001600020819055508173ffffffffffffffffffffffffffffffffffffffff168373ffffffffffffffffffffffffffffffffffffffff167f8c5be1e5ebec7d5bd14f71427d1e84f3dd0314c0f7b2291e5b200ac8c7c3b9258360405161092a9190610d9b565b60405180910390a3505050565b600073ffffffffffffffffffffffffffffffffffffffff168373ffffffffffffffffffffffffffffffffffffffff1614156109a7576040517f08c379a000000000000000000000000000000000000000000000000000000000815260040161099e9061124d565b60405180910390fd5b600073ffffffffffffffffffffffffffffffffffffffff168273ffffffffffffffffffffffffffffffffffffffff161415610a17576040517f08c379a0000000000000000000000000000000000000000000000000000000008152600401610a0e906112df565b60405180910390fd5b610a22838383610bb8565b60008060008573ffffffffffffffffffffffffffffffffffffffff1673ffffffffffffffffffffffffffffffffffffffff16815260200190815260200160002054905081811015610aa8576040517f08c379a0000000000000000000000000000000000000000000000000000000008152600401610a9f90611371565b60405180910390fd5b8181036000808673ffffffffffffffffffffffffffffffffffffffff1673ffffffffffffffffffffffffffffffffffffffff16815260200190815260200160002081905550816000808573ffffffffffffffffffffffffffffffffffffffff1673ffffffffffffffffffffffffffffffffffffffff1681526020019081526020016000206000828254610b3b9190610fcf565b925050819055508273ffffffffffffffffffffffffffffffffffffffff168473ffffffffffffffffffffffffffffffffffffffff167fddf252ad1be2c89b69c2b068fc378daa952ba7f163c4a11628f55a4df523b3ef84604051610b9f9190610d9b565b60405180910390a3610bb2848484610bbd565b50505050565b505050565b505050565b600081519050919050565b600082825260208201905092915050565b60005b83811015610bfc578082015181840152602081019050610be1565b83811115610c0b576000848401525b50505050565b6000601f19601f8301169050919050565b6000610c2d82610bc2565b610c378185610bcd565b9350610c47818560208601610bde565b610c5081610c11565b840191505092915050565b60006020820190508181036000830152610c758184610c22565b905092915050565b600080fd5b600073ffffffffffffffffffffffffffffffffffffffff82169050919050565b6000610cad82610c82565b9050919050565b610cbd81610ca2565b8114610cc857600080fd5b50565b600081359050610cda81610cb4565b92915050565b6000819050919050565b610cf381610ce0565b8114610cfe57600080fd5b50565b600081359050610d1081610cea565b92915050565b60008060408385031215610d2d57610d2c610c7d565b5b6000610d3b85828601610ccb565b9250506020610d4c85828601610d01565b9150509250929050565b60008115159050919050565b610d6b81610d56565b82525050565b6000602082019050610d866000830184610d62565b92915050565b610d9581610ce0565b82525050565b6000602082019050610db06000830184610d8c565b92915050565b600080600060608486031215610dcf57610dce610c7d565b5b6000610ddd86828701610ccb565b9350506020610dee86828701610ccb565b9250506040610dff86828701610d01565b9150509250925092565b600060ff82169050919050565b610e1f81610e09565b82525050565b6000602082019050610e3a6000830184610e16565b92915050565b600060208284031215610e5657610e55610c7d565b5b6000610e6484828501610ccb565b91505092915050565b60008060408385031215610e8457610e83610c7d565b5b6000610e9285828601610ccb565b9250506020610ea385828601610ccb565b9150509250929050565b7f4e487b7100000000000000000000000000000000000000000000000000000000600052602260045260246000fd5b60006002820490506001821680610ef457607f821691505b60208210811415610f0857610f07610ead565b5b50919050565b7f45524332303a207472616e7366657220616d6f756e742065786365656473206160008201527f6c6c6f77616e6365000000000000000000000000000000000000000000000000602082015250565b6000610f6a602883610bcd565b9150610f7582610f0e565b604082019050919050565b60006020820190508181036000830152610f9981610f5d565b9050919050565b7f4e487b7100000000000000000000000000000000000000000000000000000000600052601160045260246000fd5b6000610fda82610ce0565b9150610fe583610ce0565b9250827fffffffffffffffffffffffffffffffffffffffffffffffffffffffffffffffff0382111561101a57611019610fa0565b5b828201905092915050565b7f45524332303a2064656372656173656420616c6c6f77616e63652062656c6f7760008201527f207a65726f000000000000000000000000000000000000000000000000000000602082015250565b6000611081602583610bcd565b915061108c82611025565b604082019050919050565b600060208201905081810360008301526110b081611074565b9050919050565b7f45524332303a20617070726f76652066726f6d20746865207a65726f2061646460008201527f7265737300000000000000000000000000000000000000000000000000000000602082015250565b6000611113602483610bcd565b915061111e826110b7565b604082019050919050565b6000602082019050818103600083015261114281611106565b9050919050565b7f45524332303a20617070726f766520746f20746865207a65726f20616464726560008201527f7373000000000000000000000000000000000000000000000000000000000000602082015250565b60006111a5602283610bcd565b91506111b082611149565b604082019050919050565b600060208201905081810360008301526111d481611198565b9050919050565b7f45524332303a207472616e736665722066726f6d20746865207a65726f20616460008201527f6472657373000000000000000000000000000000000000000000000000000000602082015250565b6000611237602583610bcd565b9150611242826111db565b604082019050919050565b600060208201905081810360008301526112668161122a565b9050919050565b7f45524332303a207472616e7366657220746f20746865207a65726f206164647260008201527f6573730000000000000000000000000000000000000000000000000000000000602082015250565b60006112c9602383610bcd565b91506112d48261126d565b604082019050919050565b600060208201905081810360008301526112f8816112bc565b9050919050565b7f45524332303a207472616e7366657220616d6f756e742065786365656473206260008201527f616c616e63650000000000000000000000000000000000000000000000000000602082015250565b600061135b602683610bcd565b9150611366826112ff565b604082019050919050565b6000602082019050818103600083015261138a8161134e565b905091905056fea2646970667358221220565b120251516bf38f420e7137514bd44f90e4f039b6bdc611da6ee017b71c4c64736f6c634300080a0033",
  "immutableReferences": {},
  "source": "// SPDX-License-Identifier: MIT\r\npragma solidity >=0.5.0 <0.9.0;\r\n\r\nimport \"../node_modules/@openzeppelin/contracts/token/ERC20/ERC20.sol\";\r\n\r\ncontract Token is ERC20 {\r\n    address ownerDao;\r\n    \r\n    constructor(string memory _tokenName, string memory _tokenSymbol, uint _maxSupply) ERC20(_tokenName, _tokenSymbol) {\r\n        _mint(msg.sender, _maxSupply * (10 ** uint256(decimals())));\r\n        ownerDao = msg.sender;\r\n    }\r\n}",
  "sourcePath": "C:\\Users\\shrey\\Downloads\\InvesDAO\\contracts\\contracts\\Token.sol",
  "compiler": {
    "name": "solc",
    "version": "0.8.10+commit.fc410830.Emscripten.clang"
  },
  "schemaVersion": "3.4.3",
  "updatedAt": "2021-12-14T07:04:38.882Z",
  "devdoc": {
    "kind": "dev",
    "methods": {
      "allowance(address,address)": {
        "details": "See {IERC20-allowance}."
      },
      "approve(address,uint256)": {
        "details": "See {IERC20-approve}. Requirements: - `spender` cannot be the zero address."
      },
      "balanceOf(address)": {
        "details": "See {IERC20-balanceOf}."
      },
      "decimals()": {
        "details": "Returns the number of decimals used to get its user representation. For example, if `decimals` equals `2`, a balance of `505` tokens should be displayed to a user as `5.05` (`505 / 10 ** 2`). Tokens usually opt for a value of 18, imitating the relationship between Ether and Wei. This is the value {ERC20} uses, unless this function is overridden; NOTE: This information is only used for _display_ purposes: it in no way affects any of the arithmetic of the contract, including {IERC20-balanceOf} and {IERC20-transfer}."
      },
      "decreaseAllowance(address,uint256)": {
        "details": "Atomically decreases the allowance granted to `spender` by the caller. This is an alternative to {approve} that can be used as a mitigation for problems described in {IERC20-approve}. Emits an {Approval} event indicating the updated allowance. Requirements: - `spender` cannot be the zero address. - `spender` must have allowance for the caller of at least `subtractedValue`."
      },
      "increaseAllowance(address,uint256)": {
        "details": "Atomically increases the allowance granted to `spender` by the caller. This is an alternative to {approve} that can be used as a mitigation for problems described in {IERC20-approve}. Emits an {Approval} event indicating the updated allowance. Requirements: - `spender` cannot be the zero address."
      },
      "name()": {
        "details": "Returns the name of the token."
      },
      "symbol()": {
        "details": "Returns the symbol of the token, usually a shorter version of the name."
      },
      "totalSupply()": {
        "details": "See {IERC20-totalSupply}."
      },
      "transfer(address,uint256)": {
        "details": "See {IERC20-transfer}. Requirements: - `recipient` cannot be the zero address. - the caller must have a balance of at least `amount`."
      },
      "transferFrom(address,address,uint256)": {
        "details": "See {IERC20-transferFrom}. Emits an {Approval} event indicating the updated allowance. This is not required by the EIP. See the note at the beginning of {ERC20}. Requirements: - `sender` and `recipient` cannot be the zero address. - `sender` must have a balance of at least `amount`. - the caller must have allowance for ``sender``'s tokens of at least `amount`."
      }
    },
    "version": 1
  },
  "userdoc": {
    "kind": "user",
    "methods": {},
    "version": 1
  }
}